{
  "contractName": "CoordinatesLib",
  "abi": [
    {
      "inputs": [
        {
          "internalType": "bytes32",
          "name": "source",
          "type": "bytes32"
        }
      ],
      "name": "split",
      "outputs": [
        {
          "internalType": "bytes16",
          "name": "x",
          "type": "bytes16"
        },
        {
          "internalType": "bytes16",
          "name": "y",
          "type": "bytes16"
        }
      ],
      "stateMutability": "pure",
      "type": "function",
      "constant": true
    },
    {
      "inputs": [
        {
          "internalType": "bytes16",
          "name": "sourceA",
          "type": "bytes16"
        },
        {
          "internalType": "bytes16",
          "name": "sourceB",
          "type": "bytes16"
        }
      ],
      "name": "merge",
      "outputs": [
        {
          "internalType": "bytes32",
          "name": "output",
          "type": "bytes32"
        }
      ],
      "stateMutability": "pure",
      "type": "function",
      "constant": true
    },
    {
      "inputs": [
        {
          "internalType": "bytes32",
          "name": "input",
          "type": "bytes32"
        }
      ],
      "name": "convertToCoordinates",
      "outputs": [
        {
          "internalType": "int128",
          "name": "x",
          "type": "int128"
        },
        {
          "internalType": "int128",
          "name": "y",
          "type": "int128"
        }
      ],
      "stateMutability": "pure",
      "type": "function",
      "constant": true
    },
    {
      "inputs": [
        {
          "internalType": "int128",
          "name": "x",
          "type": "int128"
        },
        {
          "internalType": "int128",
          "name": "y",
          "type": "int128"
        }
      ],
      "name": "convertFromCoordinates",
      "outputs": [
        {
          "internalType": "bytes32",
          "name": "output",
          "type": "bytes32"
        }
      ],
      "stateMutability": "pure",
      "type": "function",
      "constant": true
    },
    {
      "inputs": [
        {
          "internalType": "uint256",
          "name": "x",
          "type": "uint256"
        }
      ],
      "name": "sqrt",
      "outputs": [
        {
          "internalType": "uint256",
          "name": "output",
          "type": "uint256"
        }
      ],
      "stateMutability": "pure",
      "type": "function",
      "constant": true
    },
    {
      "inputs": [
        {
          "internalType": "int128",
          "name": "x1",
          "type": "int128"
        },
        {
          "internalType": "int128",
          "name": "y1",
          "type": "int128"
        },
        {
          "internalType": "int128",
          "name": "x2",
          "type": "int128"
        },
        {
          "internalType": "int128",
          "name": "y2",
          "type": "int128"
        }
      ],
      "name": "distance",
      "outputs": [
        {
          "internalType": "uint256",
          "name": "estimatedDistance",
          "type": "uint256"
        }
      ],
      "stateMutability": "pure",
      "type": "function",
      "constant": true
    }
  ],
  "bytecode": "0x610a07610053600b82828239805160001a607314610046577f4e487b7100000000000000000000000000000000000000000000000000000000600052600060045260246000fd5b30600052607381538281f3fe730000000000000000000000000000000000000000301460806040526004361061006c5760003560e01c80630b8ee38c14610071578063158c7649146100a1578063516d8184146100d2578063677342ce146101035780637313308d14610133578063845de71614610163575b600080fd5b61008b600480360381019061008691906103bb565b610193565b6040516100989190610414565b60405180910390f35b6100bb60048036038101906100b6919061045b565b6101ad565b6040516100c9929190610497565b60405180910390f35b6100ec60048036038101906100e7919061045b565b6101e3565b6040516100fa9291906104fb565b60405180910390f35b61011d6004803603810190610118919061055a565b610285565b60405161012a9190610596565b60405180910390f35b61014d600480360381019061014891906105dd565b6102e2565b60405161015a9190610414565b60405180910390f35b61017d6004803603810190610178919061061d565b610320565b60405161018a9190610596565b60405180910390f35b60006101a58360801b8360801b6102e2565b905092915050565b6000806000806101bc856101e3565b809250819350505060008260801c905060008260801c905081955080945050505050915091565b60008060006040518060400160405280600060801b6fffffffffffffffffffffffffffffffff19166fffffffffffffffffffffffffffffffff19168152602001600060801b6fffffffffffffffffffffffffffffffff191681525090508381528360108201528060006002811061025d5761025c610684565b5b60200201518160016002811061027657610275610684565b5b60200201519250925050915091565b600080600260018461029791906106e2565b6102a19190610767565b90508291505b818110156102dc5780915060028182856102c19190610767565b6102cb91906106e2565b6102d59190610767565b90506102a7565b50919050565b60008160801c6fffffffffffffffffffffffffffffffff1660808460801c6fffffffffffffffffffffffffffffffff16901b1760001b905092915050565b600080858461032f9190610798565b600f0b9050600085846103429190610798565b600f0b905061037181826103569190610826565b83846103629190610826565b61036c919061093d565b610285565b92505050949350505050565b600080fd5b600081600f0b9050919050565b61039881610382565b81146103a357600080fd5b50565b6000813590506103b58161038f565b92915050565b600080604083850312156103d2576103d161037d565b5b60006103e0858286016103a6565b92505060206103f1858286016103a6565b9150509250929050565b6000819050919050565b61040e816103fb565b82525050565b60006020820190506104296000830184610405565b92915050565b610438816103fb565b811461044357600080fd5b50565b6000813590506104558161042f565b92915050565b6000602082840312156104715761047061037d565b5b600061047f84828501610446565b91505092915050565b61049181610382565b82525050565b60006040820190506104ac6000830185610488565b6104b96020830184610488565b9392505050565b60007fffffffffffffffffffffffffffffffff0000000000000000000000000000000082169050919050565b6104f5816104c0565b82525050565b600060408201905061051060008301856104ec565b61051d60208301846104ec565b9392505050565b6000819050919050565b61053781610524565b811461054257600080fd5b50565b6000813590506105548161052e565b92915050565b6000602082840312156105705761056f61037d565b5b600061057e84828501610545565b91505092915050565b61059081610524565b82525050565b60006020820190506105ab6000830184610587565b92915050565b6105ba816104c0565b81146105c557600080fd5b50565b6000813590506105d7816105b1565b92915050565b600080604083850312156105f4576105f361037d565b5b6000610602858286016105c8565b9250506020610613858286016105c8565b9150509250929050565b600080600080608085870312156106375761063661037d565b5b6000610645878288016103a6565b9450506020610656878288016103a6565b9350506040610667878288016103a6565b9250506060610678878288016103a6565b91505092959194509250565b7f4e487b7100000000000000000000000000000000000000000000000000000000600052603260045260246000fd5b7f4e487b7100000000000000000000000000000000000000000000000000000000600052601160045260246000fd5b60006106ed82610524565b91506106f883610524565b9250827fffffffffffffffffffffffffffffffffffffffffffffffffffffffffffffffff0382111561072d5761072c6106b3565b5b828201905092915050565b7f4e487b7100000000000000000000000000000000000000000000000000000000600052601260045260246000fd5b600061077282610524565b915061077d83610524565b92508261078d5761078c610738565b5b828204905092915050565b60006107a382610382565b91506107ae83610382565b9250827fffffffffffffffffffffffffffffffff80000000000000000000000000000000018212600084121516156107e9576107e86106b3565b5b826f7fffffffffffffffffffffffffffffff018213600084121615610811576108106106b3565b5b828203905092915050565b6000819050919050565b60006108318261081c565b915061083c8361081c565b9250827f7fffffffffffffffffffffffffffffffffffffffffffffffffffffffffffffff048211600084136000841316161561087b5761087a6106b3565b5b817f800000000000000000000000000000000000000000000000000000000000000005831260008412600084131616156108b8576108b76106b3565b5b827f800000000000000000000000000000000000000000000000000000000000000005821260008413600084121616156108f5576108f46106b3565b5b827f7fffffffffffffffffffffffffffffffffffffffffffffffffffffffffffffff0582126000841260008412161615610932576109316106b3565b5b828202905092915050565b60006109488261081c565b91506109538361081c565b9250817f7fffffffffffffffffffffffffffffffffffffffffffffffffffffffffffffff0383136000831215161561098e5761098d6106b3565b5b817f80000000000000000000000000000000000000000000000000000000000000000383126000831216156109c6576109c56106b3565b5b82820190509291505056fea2646970667358221220a868896ead8670dc0c093bf7e98eca42d95ce4db30ecc934cc11d6d3504c896a64736f6c63430008090033",
  "immutableReferences": {},
  "source": "// SPDX-License-Identifier: MIT\npragma solidity >=0.8.9 <0.9.0;\n\nlibrary CoordinatesLib {\n    /**\n     * Splits a bytes32 in two bytes16\n     * @param source to split\n     * @return x the first 16 bytes\n     * @return y the next 16 bytes\n     */\n    function split(bytes32 source) public pure returns (bytes16 x, bytes16 y) {\n        bytes16[2] memory output = [bytes16(0), 0];\n        assembly {\n            mstore(output, source)\n            mstore(add(output, 16), source)\n        }\n        return (output[0], output[1]);\n    }\n\n    /**\n     * Merges two bytes16 in a bytes32\n     * @param sourceA the first 16 bytes\n     * @param sourceB the next 16 bytes\n     * @return output the merged bytes\n     */\n    function merge(bytes16 sourceA, bytes16 sourceB)\n        public\n        pure\n        returns (bytes32 output)\n    {\n        return bytes32((uint256(uint128(sourceA)) << 128) | uint128(sourceB));\n    }\n\n    /**\n     * Deserializes a bytes32 in a (x,y) point\n     * @param input to deserialize\n     * @return x deserialized value on the x axis\n     * @return y deserialized value on the y axis\n     */\n    function convertToCoordinates(bytes32 input)\n        public\n        pure\n        returns (int128 x, int128 y)\n    {\n        bytes16 xbytes;\n        bytes16 ybytes;\n        (xbytes, ybytes) = split(input);\n\n        uint128 ux = uint128(xbytes);\n        uint128 uy = uint128(ybytes);\n\n        x = int128(ux);\n        y = int128(uy);\n    }\n\n    /**\n     * Takes (x,y) coordinates and returns its bytes32 serialization\n     * @param x the value on the x axis\n     * @param y the value on the y axis\n     * @return output serialized (x,y) coordinates\n     */\n    function convertFromCoordinates(int128 x, int128 y)\n        public\n        pure\n        returns (bytes32 output)\n    {\n        return merge(bytes16(uint128(x)), bytes16(uint128(y)));\n    }\n\n    /**\n     * Takes a number and returns its square root.\n     * @param x the value to square\n     * @return output the square root of the given number\n     */\n    function sqrt(uint256 x) public pure returns (uint256 output) {\n        uint256 z = (x + 1) / 2;\n        output = x;\n        while (z < output) {\n            output = z;\n            z = (x / z + z) / 2;\n        }\n    }\n\n    /**\n     * Takes two (x,y) points on a grid and returns distance between them.\n     * @param x1 the value on the x axis of the first point\n     * @param y1 the value on the y axis of the first point\n     * @param x2 the value on the x axis of the second point\n     * @param y2 the value on the y axis of the second point\n     * @return estimatedDistance between the two points\n     */\n    function distance(\n        int128 x1,\n        int128 y1,\n        int128 x2,\n        int128 y2\n    ) public pure returns (uint256 estimatedDistance) {\n        int256 x = x2 - x1;\n        int256 y = y2 - y1;\n        estimatedDistance = sqrt(uint256(x * x + y * y));\n    }\n}\n",
  "sourcePath": "/Users/thomas/workspace/eykar/contract/contracts/CoordinatesLib.sol",
  "compiler": {
    "name": "solc",
    "version": "0.8.9+commit.e5eed63a.Emscripten.clang"
  },
  "schemaVersion": "3.4.3",
  "updatedAt": "2021-11-20T16:53:27.803Z",
  "networkType": "ethereum",
  "devdoc": {
    "kind": "dev",
    "methods": {
      "convertFromCoordinates(int128,int128)": {
        "params": {
          "x": "the value on the x axis",
          "y": "the value on the y axis"
        },
        "returns": {
          "output": "serialized (x,y) coordinates"
        }
      },
      "convertToCoordinates(bytes32)": {
        "params": {
          "input": "to deserialize"
        },
        "returns": {
          "x": "deserialized value on the x axis",
          "y": "deserialized value on the y axis"
        }
      },
      "distance(int128,int128,int128,int128)": {
        "params": {
          "x1": "the value on the x axis of the first point",
          "x2": "the value on the x axis of the second point",
          "y1": "the value on the y axis of the first point",
          "y2": "the value on the y axis of the second point"
        },
        "returns": {
          "estimatedDistance": "between the two points"
        }
      },
      "merge(bytes16,bytes16)": {
        "params": {
          "sourceA": "the first 16 bytes",
          "sourceB": "the next 16 bytes"
        },
        "returns": {
          "output": "the merged bytes"
        }
      },
      "split(bytes32)": {
        "params": {
          "source": "to split"
        },
        "returns": {
          "x": "the first 16 bytes",
          "y": "the next 16 bytes"
        }
      },
      "sqrt(uint256)": {
        "params": {
          "x": "the value to square"
        },
        "returns": {
          "output": "the square root of the given number"
        }
      }
    },
    "version": 1
  },
  "userdoc": {
    "kind": "user",
    "methods": {
      "convertFromCoordinates(int128,int128)": {
        "notice": "Takes (x,y) coordinates and returns its bytes32 serialization"
      },
      "convertToCoordinates(bytes32)": {
        "notice": "Deserializes a bytes32 in a (x,y) point"
      },
      "distance(int128,int128,int128,int128)": {
        "notice": "Takes two (x,y) points on a grid and returns distance between them."
      },
      "merge(bytes16,bytes16)": {
        "notice": "Merges two bytes16 in a bytes32"
      },
      "split(bytes32)": {
        "notice": "Splits a bytes32 in two bytes16"
      },
      "sqrt(uint256)": {
        "notice": "Takes a number and returns its square root."
      }
    },
    "version": 1
  }
}