{
  "contractName": "CoordinatesLib",
  "abi": [
    {
      "inputs": [
        {
          "internalType": "bytes32",
          "name": "source",
          "type": "bytes32"
        }
      ],
      "name": "split",
      "outputs": [
        {
          "internalType": "bytes16",
          "name": "x",
          "type": "bytes16"
        },
        {
          "internalType": "bytes16",
          "name": "y",
          "type": "bytes16"
        }
      ],
      "stateMutability": "pure",
      "type": "function",
      "constant": true
    },
    {
      "inputs": [
        {
          "internalType": "bytes16",
          "name": "sourceA",
          "type": "bytes16"
        },
        {
          "internalType": "bytes16",
          "name": "sourceB",
          "type": "bytes16"
        }
      ],
      "name": "merge",
      "outputs": [
        {
          "internalType": "bytes32",
          "name": "output",
          "type": "bytes32"
        }
      ],
      "stateMutability": "pure",
      "type": "function",
      "constant": true
    },
    {
      "inputs": [
        {
          "internalType": "bytes32",
          "name": "input",
          "type": "bytes32"
        }
      ],
      "name": "convertToCoordinates",
      "outputs": [
        {
          "internalType": "int128",
          "name": "x",
          "type": "int128"
        },
        {
          "internalType": "int128",
          "name": "y",
          "type": "int128"
        }
      ],
      "stateMutability": "pure",
      "type": "function",
      "constant": true
    },
    {
      "inputs": [
        {
          "internalType": "int128",
          "name": "x",
          "type": "int128"
        },
        {
          "internalType": "int128",
          "name": "y",
          "type": "int128"
        }
      ],
      "name": "convertFromCoordinates",
      "outputs": [
        {
          "internalType": "bytes32",
          "name": "output",
          "type": "bytes32"
        }
      ],
      "stateMutability": "pure",
      "type": "function",
      "constant": true
    },
    {
      "inputs": [
        {
          "internalType": "bytes32",
          "name": "input",
          "type": "bytes32"
        }
      ],
      "name": "getChunk",
      "outputs": [
        {
          "internalType": "bytes32",
          "name": "output",
          "type": "bytes32"
        }
      ],
      "stateMutability": "pure",
      "type": "function",
      "constant": true
    },
    {
      "inputs": [
        {
          "internalType": "uint256",
          "name": "x",
          "type": "uint256"
        }
      ],
      "name": "sqrt",
      "outputs": [
        {
          "internalType": "uint256",
          "name": "output",
          "type": "uint256"
        }
      ],
      "stateMutability": "pure",
      "type": "function",
      "constant": true
    },
    {
      "inputs": [
        {
          "internalType": "int128",
          "name": "x1",
          "type": "int128"
        },
        {
          "internalType": "int128",
          "name": "y1",
          "type": "int128"
        },
        {
          "internalType": "int128",
          "name": "x2",
          "type": "int128"
        },
        {
          "internalType": "int128",
          "name": "y2",
          "type": "int128"
        }
      ],
      "name": "distance",
      "outputs": [
        {
          "internalType": "uint256",
          "name": "estimatedDistance",
          "type": "uint256"
        }
      ],
      "stateMutability": "pure",
      "type": "function",
      "constant": true
    }
  ],
  "bytecode": "0x610afd610053600b82828239805160001a607314610046577f4e487b7100000000000000000000000000000000000000000000000000000000600052600060045260246000fd5b30600052607381538281f3fe73000000000000000000000000000000000000000030146080604052600436106100875760003560e01c8063677342ce11610065578063677342ce1461011e5780637313308d1461014e578063845de7161461017e578063af874ae0146101ae57610087565b80630b8ee38c1461008c578063158c7649146100bc578063516d8184146100ed575b600080fd5b6100a660048036038101906100a19190610447565b6101de565b6040516100b391906104a0565b60405180910390f35b6100d660048036038101906100d191906104e7565b6101f8565b6040516100e4929190610523565b60405180910390f35b610107600480360381019061010291906104e7565b61022e565b604051610115929190610587565b60405180910390f35b610138600480360381019061013391906105e6565b6102d0565b6040516101459190610622565b60405180910390f35b61016860048036038101906101639190610669565b61032d565b60405161017591906104a0565b60405180910390f35b610198600480360381019061019391906106a9565b61036b565b6040516101a59190610622565b60405180910390f35b6101c860048036038101906101c391906104e7565b6103c8565b6040516101d591906104a0565b60405180910390f35b60006101f08360801b8360801b61032d565b905092915050565b6000806000806102078561022e565b809250819350505060008260801c905060008260801c905081955080945050505050915091565b60008060006040518060400160405280600060801b6fffffffffffffffffffffffffffffffff19166fffffffffffffffffffffffffffffffff19168152602001600060801b6fffffffffffffffffffffffffffffffff19168152509050838152836010820152806000600281106102a8576102a7610710565b5b6020020151816001600281106102c1576102c0610710565b5b60200201519250925050915091565b60008060026001846102e2919061076e565b6102ec91906107f3565b90508291505b8181101561032757809150600281828561030c91906107f3565b610316919061076e565b61032091906107f3565b90506102f2565b50919050565b60008160801c6fffffffffffffffffffffffffffffffff1660808460801c6fffffffffffffffffffffffffffffffff16901b1760001b905092915050565b600080858461037a9190610824565b600f0b90506000858461038d9190610824565b600f0b90506103bc81826103a191906108b2565b83846103ad91906108b2565b6103b791906109c9565b6102d0565b92505050949350505050565b60008060006103d6846101f8565b80925081935050506104006008836103ee9190610a5d565b6008836103fb9190610a5d565b6101de565b92505050919050565b600080fd5b600081600f0b9050919050565b6104248161040e565b811461042f57600080fd5b50565b6000813590506104418161041b565b92915050565b6000806040838503121561045e5761045d610409565b5b600061046c85828601610432565b925050602061047d85828601610432565b9150509250929050565b6000819050919050565b61049a81610487565b82525050565b60006020820190506104b56000830184610491565b92915050565b6104c481610487565b81146104cf57600080fd5b50565b6000813590506104e1816104bb565b92915050565b6000602082840312156104fd576104fc610409565b5b600061050b848285016104d2565b91505092915050565b61051d8161040e565b82525050565b60006040820190506105386000830185610514565b6105456020830184610514565b9392505050565b60007fffffffffffffffffffffffffffffffff0000000000000000000000000000000082169050919050565b6105818161054c565b82525050565b600060408201905061059c6000830185610578565b6105a96020830184610578565b9392505050565b6000819050919050565b6105c3816105b0565b81146105ce57600080fd5b50565b6000813590506105e0816105ba565b92915050565b6000602082840312156105fc576105fb610409565b5b600061060a848285016105d1565b91505092915050565b61061c816105b0565b82525050565b60006020820190506106376000830184610613565b92915050565b6106468161054c565b811461065157600080fd5b50565b6000813590506106638161063d565b92915050565b600080604083850312156106805761067f610409565b5b600061068e85828601610654565b925050602061069f85828601610654565b9150509250929050565b600080600080608085870312156106c3576106c2610409565b5b60006106d187828801610432565b94505060206106e287828801610432565b93505060406106f387828801610432565b925050606061070487828801610432565b91505092959194509250565b7f4e487b7100000000000000000000000000000000000000000000000000000000600052603260045260246000fd5b7f4e487b7100000000000000000000000000000000000000000000000000000000600052601160045260246000fd5b6000610779826105b0565b9150610784836105b0565b9250827fffffffffffffffffffffffffffffffffffffffffffffffffffffffffffffffff038211156107b9576107b861073f565b5b828201905092915050565b7f4e487b7100000000000000000000000000000000000000000000000000000000600052601260045260246000fd5b60006107fe826105b0565b9150610809836105b0565b925082610819576108186107c4565b5b828204905092915050565b600061082f8261040e565b915061083a8361040e565b9250827fffffffffffffffffffffffffffffffff80000000000000000000000000000000018212600084121516156108755761087461073f565b5b826f7fffffffffffffffffffffffffffffff01821360008412161561089d5761089c61073f565b5b828203905092915050565b6000819050919050565b60006108bd826108a8565b91506108c8836108a8565b9250827f7fffffffffffffffffffffffffffffffffffffffffffffffffffffffffffffff04821160008413600084131616156109075761090661073f565b5b817f800000000000000000000000000000000000000000000000000000000000000005831260008412600084131616156109445761094361073f565b5b827f800000000000000000000000000000000000000000000000000000000000000005821260008413600084121616156109815761098061073f565b5b827f7fffffffffffffffffffffffffffffffffffffffffffffffffffffffffffffff05821260008412600084121616156109be576109bd61073f565b5b828202905092915050565b60006109d4826108a8565b91506109df836108a8565b9250817f7fffffffffffffffffffffffffffffffffffffffffffffffffffffffffffffff03831360008312151615610a1a57610a1961073f565b5b817f8000000000000000000000000000000000000000000000000000000000000000038312600083121615610a5257610a5161073f565b5b828201905092915050565b6000610a688261040e565b9150610a738361040e565b925082610a8357610a826107c4565b5b600160000383147fffffffffffffffffffffffffffffffff8000000000000000000000000000000083141615610abc57610abb61073f565b5b82820590509291505056fea2646970667358221220de9570fa67a342ec4f2a91815c1ca8f167d5c8d8fca09888e022f1f79c6d829b64736f6c63430008090033",
  "immutableReferences": {},
  "source": "// SPDX-License-Identifier: MIT\npragma solidity >=0.8.9 <0.9.0;\n\nlibrary CoordinatesLib {\n    /**\n     * Splits a bytes32 in two bytes16\n     * @param source to split\n     * @return x the first 16 bytes\n     * @return y the next 16 bytes\n     */\n    function split(bytes32 source) public pure returns (bytes16 x, bytes16 y) {\n        bytes16[2] memory output = [bytes16(0), 0];\n        assembly {\n            mstore(output, source)\n            mstore(add(output, 16), source)\n        }\n        return (output[0], output[1]);\n    }\n\n    /**\n     * Merges two bytes16 in a bytes32\n     * @param sourceA the first 16 bytes\n     * @param sourceB the next 16 bytes\n     * @return output the merged bytes\n     */\n    function merge(bytes16 sourceA, bytes16 sourceB)\n        public\n        pure\n        returns (bytes32 output)\n    {\n        return bytes32((uint256(uint128(sourceA)) << 128) | uint128(sourceB));\n    }\n\n    /**\n     * Deserializes a bytes32 in a (x,y) point\n     * @param input to deserialize\n     * @return x deserialized value on the x axis\n     * @return y deserialized value on the y axis\n     */\n    function convertToCoordinates(bytes32 input)\n        public\n        pure\n        returns (int128 x, int128 y)\n    {\n        bytes16 xbytes;\n        bytes16 ybytes;\n        (xbytes, ybytes) = split(input);\n\n        uint128 ux = uint128(xbytes);\n        uint128 uy = uint128(ybytes);\n\n        x = int128(ux);\n        y = int128(uy);\n    }\n\n    /**\n     * Takes (x,y) coordinates and returns its bytes32 serialization\n     * @param x the value on the x axis\n     * @param y the value on the y axis\n     * @return output serialized (x,y) coordinates\n     */\n    function convertFromCoordinates(int128 x, int128 y)\n        public\n        pure\n        returns (bytes32 output)\n    {\n        return merge(bytes16(uint128(x)), bytes16(uint128(y)));\n    }\n\n    /**\n     * Convert cell coordinates to chunk coordinates\n     * @param input cell coordinates\n     * @return output serialized chunk coordinates\n     */\n    function getChunk(bytes32 input) public pure returns (bytes32 output) {\n        int128 x;\n        int128 y;\n        (x, y) = convertToCoordinates(input);\n        output = convertFromCoordinates(x / 8, y / 8);\n    }\n\n    /**\n     * Takes a number and returns its square root.\n     * @param x the value to square\n     * @return output the square root of the given number\n     */\n    function sqrt(uint256 x) public pure returns (uint256 output) {\n        uint256 z = (x + 1) / 2;\n        output = x;\n        while (z < output) {\n            output = z;\n            z = (x / z + z) / 2;\n        }\n    }\n\n    /**\n     * Takes two (x,y) points on a grid and returns distance between them.\n     * @param x1 the value on the x axis of the first point\n     * @param y1 the value on the y axis of the first point\n     * @param x2 the value on the x axis of the second point\n     * @param y2 the value on the y axis of the second point\n     * @return estimatedDistance between the two points\n     */\n    function distance(\n        int128 x1,\n        int128 y1,\n        int128 x2,\n        int128 y2\n    ) public pure returns (uint256 estimatedDistance) {\n        int256 x = x2 - x1;\n        int256 y = y2 - y1;\n        estimatedDistance = sqrt(uint256(x * x + y * y));\n    }\n}\n",
  "sourcePath": "/home/thomas/workspace/eykar/contract/contracts/CoordinatesLib.sol",
  "compiler": {
    "name": "solc",
    "version": "0.8.9+commit.e5eed63a.Emscripten.clang"
  },
  "schemaVersion": "3.4.3",
  "updatedAt": "2022-01-10T09:49:07.830Z",
  "networkType": "ethereum",
  "devdoc": {
    "kind": "dev",
    "methods": {
      "convertFromCoordinates(int128,int128)": {
        "params": {
          "x": "the value on the x axis",
          "y": "the value on the y axis"
        },
        "returns": {
          "output": "serialized (x,y) coordinates"
        }
      },
      "convertToCoordinates(bytes32)": {
        "params": {
          "input": "to deserialize"
        },
        "returns": {
          "x": "deserialized value on the x axis",
          "y": "deserialized value on the y axis"
        }
      },
      "distance(int128,int128,int128,int128)": {
        "params": {
          "x1": "the value on the x axis of the first point",
          "x2": "the value on the x axis of the second point",
          "y1": "the value on the y axis of the first point",
          "y2": "the value on the y axis of the second point"
        },
        "returns": {
          "estimatedDistance": "between the two points"
        }
      },
      "getChunk(bytes32)": {
        "params": {
          "input": "cell coordinates"
        },
        "returns": {
          "output": "serialized chunk coordinates"
        }
      },
      "merge(bytes16,bytes16)": {
        "params": {
          "sourceA": "the first 16 bytes",
          "sourceB": "the next 16 bytes"
        },
        "returns": {
          "output": "the merged bytes"
        }
      },
      "split(bytes32)": {
        "params": {
          "source": "to split"
        },
        "returns": {
          "x": "the first 16 bytes",
          "y": "the next 16 bytes"
        }
      },
      "sqrt(uint256)": {
        "params": {
          "x": "the value to square"
        },
        "returns": {
          "output": "the square root of the given number"
        }
      }
    },
    "version": 1
  },
  "userdoc": {
    "kind": "user",
    "methods": {
      "convertFromCoordinates(int128,int128)": {
        "notice": "Takes (x,y) coordinates and returns its bytes32 serialization"
      },
      "convertToCoordinates(bytes32)": {
        "notice": "Deserializes a bytes32 in a (x,y) point"
      },
      "distance(int128,int128,int128,int128)": {
        "notice": "Takes two (x,y) points on a grid and returns distance between them."
      },
      "getChunk(bytes32)": {
        "notice": "Convert cell coordinates to chunk coordinates"
      },
      "merge(bytes16,bytes16)": {
        "notice": "Merges two bytes16 in a bytes32"
      },
      "split(bytes32)": {
        "notice": "Splits a bytes32 in two bytes16"
      },
      "sqrt(uint256)": {
        "notice": "Takes a number and returns its square root."
      }
    },
    "version": 1
  }
}