{
  "contractName": "Eykar",
  "abi": [
    {
      "inputs": [],
      "stateMutability": "payable",
      "type": "constructor",
      "payable": true
    },
    {
      "inputs": [
        {
          "internalType": "bytes32",
          "name": "",
          "type": "bytes32"
        }
      ],
      "name": "chunks",
      "outputs": [
        {
          "internalType": "bool",
          "name": "",
          "type": "bool"
        }
      ],
      "stateMutability": "view",
      "type": "function",
      "constant": true
    },
    {
      "inputs": [
        {
          "internalType": "uint256",
          "name": "",
          "type": "uint256"
        }
      ],
      "name": "colonies",
      "outputs": [
        {
          "internalType": "string",
          "name": "name",
          "type": "string"
        },
        {
          "internalType": "address",
          "name": "owner",
          "type": "address"
        },
        {
          "internalType": "bytes32",
          "name": "location",
          "type": "bytes32"
        },
        {
          "internalType": "uint64",
          "name": "plotsAmount",
          "type": "uint64"
        },
        {
          "internalType": "uint256",
          "name": "people",
          "type": "uint256"
        },
        {
          "internalType": "uint256",
          "name": "food",
          "type": "uint256"
        },
        {
          "internalType": "uint256",
          "name": "materials",
          "type": "uint256"
        },
        {
          "internalType": "uint256",
          "name": "redirection",
          "type": "uint256"
        }
      ],
      "stateMutability": "view",
      "type": "function",
      "constant": true
    },
    {
      "inputs": [
        {
          "internalType": "address",
          "name": "",
          "type": "address"
        },
        {
          "internalType": "uint256",
          "name": "",
          "type": "uint256"
        }
      ],
      "name": "coloniesPerPlayer",
      "outputs": [
        {
          "internalType": "uint256",
          "name": "",
          "type": "uint256"
        }
      ],
      "stateMutability": "view",
      "type": "function",
      "constant": true
    },
    {
      "inputs": [
        {
          "internalType": "bytes32",
          "name": "",
          "type": "bytes32"
        }
      ],
      "name": "map",
      "outputs": [
        {
          "internalType": "uint256",
          "name": "owner",
          "type": "uint256"
        },
        {
          "internalType": "uint256",
          "name": "dateOfOwnership",
          "type": "uint256"
        },
        {
          "internalType": "enum Eykar.StructureType",
          "name": "structure",
          "type": "uint8"
        }
      ],
      "stateMutability": "view",
      "type": "function",
      "constant": true
    },
    {
      "inputs": [],
      "name": "owner",
      "outputs": [
        {
          "internalType": "address payable",
          "name": "",
          "type": "address"
        }
      ],
      "stateMutability": "view",
      "type": "function",
      "constant": true
    },
    {
      "inputs": [
        {
          "components": [
            {
              "internalType": "string",
              "name": "name",
              "type": "string"
            },
            {
              "internalType": "address",
              "name": "owner",
              "type": "address"
            },
            {
              "internalType": "bytes32",
              "name": "location",
              "type": "bytes32"
            },
            {
              "internalType": "uint64",
              "name": "plotsAmount",
              "type": "uint64"
            },
            {
              "internalType": "uint256",
              "name": "people",
              "type": "uint256"
            },
            {
              "internalType": "uint256",
              "name": "food",
              "type": "uint256"
            },
            {
              "internalType": "uint256",
              "name": "materials",
              "type": "uint256"
            },
            {
              "internalType": "uint256",
              "name": "redirection",
              "type": "uint256"
            }
          ],
          "internalType": "struct Eykar.Colony",
          "name": "colony",
          "type": "tuple"
        }
      ],
      "name": "wrapColony",
      "outputs": [
        {
          "components": [
            {
              "internalType": "string",
              "name": "name",
              "type": "string"
            },
            {
              "internalType": "address",
              "name": "owner",
              "type": "address"
            },
            {
              "internalType": "int128",
              "name": "xLocation",
              "type": "int128"
            },
            {
              "internalType": "int128",
              "name": "yLocation",
              "type": "int128"
            },
            {
              "internalType": "uint64",
              "name": "plotsAmount",
              "type": "uint64"
            },
            {
              "internalType": "uint256",
              "name": "people",
              "type": "uint256"
            },
            {
              "internalType": "uint256",
              "name": "food",
              "type": "uint256"
            },
            {
              "internalType": "uint256",
              "name": "materials",
              "type": "uint256"
            },
            {
              "internalType": "uint256",
              "name": "id",
              "type": "uint256"
            }
          ],
          "internalType": "struct Eykar.WrappedColony",
          "name": "",
          "type": "tuple"
        }
      ],
      "stateMutability": "view",
      "type": "function",
      "constant": true
    },
    {
      "inputs": [
        {
          "internalType": "int128",
          "name": "x",
          "type": "int128"
        },
        {
          "internalType": "int128",
          "name": "y",
          "type": "int128"
        }
      ],
      "name": "getPlot",
      "outputs": [
        {
          "components": [
            {
              "internalType": "uint256",
              "name": "owner",
              "type": "uint256"
            },
            {
              "internalType": "uint256",
              "name": "dateOfOwnership",
              "type": "uint256"
            },
            {
              "internalType": "enum Eykar.StructureType",
              "name": "structure",
              "type": "uint8"
            }
          ],
          "internalType": "struct Eykar.Plot",
          "name": "",
          "type": "tuple"
        }
      ],
      "stateMutability": "view",
      "type": "function",
      "constant": true
    },
    {
      "inputs": [
        {
          "internalType": "int128",
          "name": "xChunk",
          "type": "int128"
        },
        {
          "internalType": "int128",
          "name": "yChunk",
          "type": "int128"
        }
      ],
      "name": "getPlots",
      "outputs": [
        {
          "components": [
            {
              "internalType": "uint256",
              "name": "owner",
              "type": "uint256"
            },
            {
              "internalType": "uint256",
              "name": "dateOfOwnership",
              "type": "uint256"
            },
            {
              "internalType": "enum Eykar.StructureType",
              "name": "structure",
              "type": "uint8"
            }
          ],
          "internalType": "struct Eykar.Plot[]",
          "name": "plots",
          "type": "tuple[]"
        },
        {
          "internalType": "int128[]",
          "name": "xArray",
          "type": "int128[]"
        },
        {
          "internalType": "int128[]",
          "name": "yArray",
          "type": "int128[]"
        }
      ],
      "stateMutability": "view",
      "type": "function",
      "constant": true
    },
    {
      "inputs": [
        {
          "internalType": "uint128",
          "name": "currentRegistrationId",
          "type": "uint128"
        },
        {
          "internalType": "int128",
          "name": "spacing",
          "type": "int128"
        }
      ],
      "name": "findNextLocationOnSpiral",
      "outputs": [
        {
          "internalType": "bytes32",
          "name": "location",
          "type": "bytes32"
        },
        {
          "internalType": "uint128",
          "name": "newRegistrationId",
          "type": "uint128"
        }
      ],
      "stateMutability": "view",
      "type": "function",
      "constant": true
    },
    {
      "inputs": [
        {
          "internalType": "string",
          "name": "name",
          "type": "string"
        }
      ],
      "name": "register",
      "outputs": [],
      "stateMutability": "payable",
      "type": "function",
      "payable": true
    },
    {
      "inputs": [],
      "name": "withdraw",
      "outputs": [],
      "stateMutability": "nonpayable",
      "type": "function"
    },
    {
      "inputs": [
        {
          "internalType": "address",
          "name": "playerAddress",
          "type": "address"
        }
      ],
      "name": "getColonies",
      "outputs": [
        {
          "components": [
            {
              "internalType": "string",
              "name": "name",
              "type": "string"
            },
            {
              "internalType": "address",
              "name": "owner",
              "type": "address"
            },
            {
              "internalType": "int128",
              "name": "xLocation",
              "type": "int128"
            },
            {
              "internalType": "int128",
              "name": "yLocation",
              "type": "int128"
            },
            {
              "internalType": "uint64",
              "name": "plotsAmount",
              "type": "uint64"
            },
            {
              "internalType": "uint256",
              "name": "people",
              "type": "uint256"
            },
            {
              "internalType": "uint256",
              "name": "food",
              "type": "uint256"
            },
            {
              "internalType": "uint256",
              "name": "materials",
              "type": "uint256"
            },
            {
              "internalType": "uint256",
              "name": "id",
              "type": "uint256"
            }
          ],
          "internalType": "struct Eykar.WrappedColony[]",
          "name": "coloniesOwned",
          "type": "tuple[]"
        }
      ],
      "stateMutability": "view",
      "type": "function",
      "constant": true
    },
    {
      "inputs": [
        {
          "internalType": "uint256",
          "name": "colonyId",
          "type": "uint256"
        }
      ],
      "name": "getColony",
      "outputs": [
        {
          "components": [
            {
              "internalType": "string",
              "name": "name",
              "type": "string"
            },
            {
              "internalType": "address",
              "name": "owner",
              "type": "address"
            },
            {
              "internalType": "bytes32",
              "name": "location",
              "type": "bytes32"
            },
            {
              "internalType": "uint64",
              "name": "plotsAmount",
              "type": "uint64"
            },
            {
              "internalType": "uint256",
              "name": "people",
              "type": "uint256"
            },
            {
              "internalType": "uint256",
              "name": "food",
              "type": "uint256"
            },
            {
              "internalType": "uint256",
              "name": "materials",
              "type": "uint256"
            },
            {
              "internalType": "uint256",
              "name": "redirection",
              "type": "uint256"
            }
          ],
          "internalType": "struct Eykar.Colony",
          "name": "colony",
          "type": "tuple"
        }
      ],
      "stateMutability": "view",
      "type": "function",
      "constant": true
    },
    {
      "inputs": [
        {
          "internalType": "uint256",
          "name": "colonyId",
          "type": "uint256"
        },
        {
          "internalType": "bytes32",
          "name": "location",
          "type": "bytes32"
        }
      ],
      "name": "conquerWithExistingColony",
      "outputs": [
        {
          "internalType": "uint256",
          "name": "arrivalDate",
          "type": "uint256"
        }
      ],
      "stateMutability": "nonpayable",
      "type": "function"
    },
    {
      "inputs": [
        {
          "internalType": "uint256",
          "name": "colonyId",
          "type": "uint256"
        },
        {
          "internalType": "bytes32",
          "name": "location",
          "type": "bytes32"
        },
        {
          "internalType": "string",
          "name": "newColonyName",
          "type": "string"
        }
      ],
      "name": "conquerWithoutExistingColony",
      "outputs": [
        {
          "internalType": "uint256",
          "name": "arrivalDate",
          "type": "uint256"
        }
      ],
      "stateMutability": "nonpayable",
      "type": "function"
    }
  ],
  "bytecode": "0x6080604052336000806101000a81548173ffffffffffffffffffffffffffffffffffffffff021916908373ffffffffffffffffffffffffffffffffffffffff160217905550614497806100536000396000f3fe6080604052600436106100e85760003560e01c8063751036561161008a5780638da5cb5b116100595780638da5cb5b14610372578063a698b1301461039d578063c26138bd146103da578063f2c298be14610417576100e8565b8063751036561461027d578063751e3b30146102ba5780637896c51e146102f8578063825fe9e514610335576100e8565b8063418d1f19116100c6578063418d1f1914610187578063454aeaf5146101c45780636ed1f79b146102035780636f92650d14610240576100e8565b80630ae186a8146100ed5780632cfb20531461012c5780633ccfd60b14610170575b600080fd5b3480156100f957600080fd5b50610114600480360381019061010f9190612cf0565b610433565b60405161012393929190612dad565b60405180910390f35b34801561013857600080fd5b50610153600480360381019061014e9190612e10565b61046a565b604051610167989796959493929190612f49565b60405180910390f35b34801561017c57600080fd5b5061018561057e565b005b34801561019357600080fd5b506101ae60048036038101906101a99190612ffa565b61064e565b6040516101bb9190613241565b60405180910390f35b3480156101d057600080fd5b506101eb60048036038101906101e6919061328f565b610bab565b6040516101fa9392919061347e565b60405180910390f35b34801561020f57600080fd5b5061022a600480360381019061022591906134ca565b61116d565b604051610237919061350a565b60405180910390f35b34801561024c57600080fd5b5061026760048036038101906102629190612e10565b61119e565b60405161027491906135e4565b60405180910390f35b34801561028957600080fd5b506102a4600480360381019061029f919061373b565b6114d3565b6040516102b1919061350a565b60405180910390f35b3480156102c657600080fd5b506102e160048036038101906102dc91906137f2565b611554565b6040516102ef929190613841565b60405180910390f35b34801561030457600080fd5b5061031f600480360381019061031a919061386a565b611a20565b60405161032c919061350a565b60405180910390f35b34801561034157600080fd5b5061035c6004803603810190610357919061328f565b611a98565b60405161036991906138ec565b60405180910390f35b34801561037e57600080fd5b50610387611b9d565b6040516103949190613928565b60405180910390f35b3480156103a957600080fd5b506103c460048036038101906103bf9190612cf0565b611bc1565b6040516103d1919061395e565b60405180910390f35b3480156103e657600080fd5b5061040160048036038101906103fc9190613a95565b611be1565b60405161040e9190613ba3565b60405180910390f35b610431600480360381019061042c9190613bc5565b611d15565b005b60016020528060005260406000206000915090508060000154908060010154908060020160009054906101000a900460ff16905083565b6003818154811061047a57600080fd5b906000526020600020906008020160009150905080600001805461049d90613c3d565b80601f01602080910402602001604051908101604052809291908181526020018280546104c990613c3d565b80156105165780601f106104eb57610100808354040283529160200191610516565b820191906000526020600020905b8154815290600101906020018083116104f957829003601f168201915b5050505050908060010160009054906101000a900473ffffffffffffffffffffffffffffffffffffffff16908060020154908060030160009054906101000a900467ffffffffffffffff16908060040154908060050154908060060154908060070154905088565b60008060009054906101000a900473ffffffffffffffffffffffffffffffffffffffff1673ffffffffffffffffffffffffffffffffffffffff16476040516105c590613ca0565b60006040518083038185875af1925050503d8060008114610602576040519150601f19603f3d011682016040523d82523d6000602084013e610607565b606091505b505090508061064b576040517f08c379a000000000000000000000000000000000000000000000000000000000815260040161064290613d01565b60405180910390fd5b50565b60606000600460008473ffffffffffffffffffffffffffffffffffffffff1673ffffffffffffffffffffffffffffffffffffffff1681526020019081526020016000208054806020026020016040519081016040528092919081815260200182805480156106db57602002820191906000526020600020905b8154815260200190600101908083116106c7575b505050505090506000805b825181101561090357600083828151811061070457610703613d21565b5b602002602001015190506000600360018361071f9190613d7f565b815481106107305761072f613d21565b5b90600052602060002090600802016040518061010001604052908160008201805461075a90613c3d565b80601f016020809104026020016040519081016040528092919081815260200182805461078690613c3d565b80156107d35780601f106107a8576101008083540402835291602001916107d3565b820191906000526020600020905b8154815290600101906020018083116107b657829003601f168201915b505050505081526020016001820160009054906101000a900473ffffffffffffffffffffffffffffffffffffffff1673ffffffffffffffffffffffffffffffffffffffff1673ffffffffffffffffffffffffffffffffffffffff168152602001600282015481526020016003820160009054906101000a900467ffffffffffffffff1667ffffffffffffffff1667ffffffffffffffff16815260200160048201548152602001600582015481526020016006820154815260200160078201548152505090508060e00151821480156108da57508673ffffffffffffffffffffffffffffffffffffffff16816020015173ffffffffffffffffffffffffffffffffffffffff16145b156108ee5783806108ea90613db3565b9450505b505080806108fb90613db3565b9150506106e6565b508067ffffffffffffffff81111561091e5761091d613610565b5b60405190808252806020026020018201604052801561095757816020015b610944612af6565b81526020019060019003908161093c5790505b5092506000905060005b8251811015610ba357600083828151811061097f5761097e613d21565b5b602002602001015190506000600360018361099a9190613d7f565b815481106109ab576109aa613d21565b5b9060005260206000209060080201604051806101000160405290816000820180546109d590613c3d565b80601f0160208091040260200160405190810160405280929190818152602001828054610a0190613c3d565b8015610a4e5780601f10610a2357610100808354040283529160200191610a4e565b820191906000526020600020905b815481529060010190602001808311610a3157829003601f168201915b505050505081526020016001820160009054906101000a900473ffffffffffffffffffffffffffffffffffffffff1673ffffffffffffffffffffffffffffffffffffffff1673ffffffffffffffffffffffffffffffffffffffff168152602001600282015481526020016003820160009054906101000a900467ffffffffffffffff1667ffffffffffffffff1667ffffffffffffffff16815260200160048201548152602001600582015481526020016006820154815260200160078201548152505090508060e0015182148015610b5557508673ffffffffffffffffffffffffffffffffffffffff16816020015173ffffffffffffffffffffffffffffffffffffffff16145b15610b8e57610b6381611be1565b868580610b6f90613db3565b965081518110610b8257610b81613d21565b5b60200260200101819052505b50508080610b9b90613db3565b915050610961565b505050919050565b606080606060006002600073__CoordinatesLib________________________630b8ee38c89896040518363ffffffff1660e01b8152600401610bef929190613e0b565b60206040518083038186803b158015610c0757600080fd5b505af4158015610c1b573d6000803e3d6000fd5b505050506040513d601f19601f82011682018060405250810190610c3f9190613e49565b815260200190815260200160002060009054906101000a900460ff1615611078576000604067ffffffffffffffff811115610c7d57610c7c613610565b5b604051908082528060200260200182016040528015610cb657816020015b610ca3612b68565b815260200190600190039081610c9b5790505b5090506000604067ffffffffffffffff811115610cd657610cd5613610565b5b604051908082528060200260200182016040528015610d045781602001602082028036833780820191505090505b5090506000604067ffffffffffffffff811115610d2457610d23613610565b5b604051908082528060200260200182016040528015610d525781602001602082028036833780820191505090505b509050600060088a610d649190613e76565b90505b600860018b610d769190613f6d565b610d809190613e76565b600f0b81600f0b1215610ea957600060088a610d9c9190613e76565b90505b600860018b610dae9190613f6d565b610db89190613e76565b600f0b81600f0b1215610e95576000610dd18383611a98565b905060006003811115610de757610de6612d36565b5b81604001516003811115610dfe57610dfd612d36565b5b14610e815780868881518110610e1757610e16613d21565b5b602002602001018190525082858881518110610e3657610e35613d21565b5b6020026020010190600f0b9081600f0b8152505081848881518110610e5e57610e5d613d21565b5b6020026020010190600f0b9081600f0b815250508680610e7d90613db3565b9750505b508080610e8d90613ff1565b915050610d9f565b508080610ea190613ff1565b915050610d67565b508367ffffffffffffffff811115610ec457610ec3613610565b5b604051908082528060200260200182016040528015610efd57816020015b610eea612b68565b815260200190600190039081610ee25790505b5096508367ffffffffffffffff811115610f1a57610f19613610565b5b604051908082528060200260200182016040528015610f485781602001602082028036833780820191505090505b5095508367ffffffffffffffff811115610f6557610f64613610565b5b604051908082528060200260200182016040528015610f935781602001602082028036833780820191505090505b5094505b6000841115611070578380610fab9061402a565b945050828481518110610fc157610fc0613d21565b5b6020026020010151878581518110610fdc57610fdb613d21565b5b6020026020010181905250818481518110610ffa57610ff9613d21565b5b602002602001015186858151811061101557611014613d21565b5b6020026020010190600f0b9081600f0b8152505080848151811061103c5761103b613d21565b5b602002602001015185858151811061105757611056613d21565b5b6020026020010190600f0b9081600f0b81525050610f97565b505050611165565b8067ffffffffffffffff81111561109257611091613610565b5b6040519080825280602002602001820160405280156110cb57816020015b6110b8612b68565b8152602001906001900390816110b05790505b5093508067ffffffffffffffff8111156110e8576110e7613610565b5b6040519080825280602002602001820160405280156111165781602001602082028036833780820191505090505b5092508067ffffffffffffffff81111561113357611132613610565b5b6040519080825280602002602001820160405280156111615781602001602082028036833780820191505090505b5091505b509250925092565b6004602052816000526040600020818154811061118957600080fd5b90600052602060002001600091509150505481565b6111a6612b9b565b60036001836111b59190613d7f565b815481106111c6576111c5613d21565b5b9060005260206000209060080201604051806101000160405290816000820180546111f090613c3d565b80601f016020809104026020016040519081016040528092919081815260200182805461121c90613c3d565b80156112695780601f1061123e57610100808354040283529160200191611269565b820191906000526020600020905b81548152906001019060200180831161124c57829003601f168201915b505050505081526020016001820160009054906101000a900473ffffffffffffffffffffffffffffffffffffffff1673ffffffffffffffffffffffffffffffffffffffff1673ffffffffffffffffffffffffffffffffffffffff168152602001600282015481526020016003820160009054906101000a900467ffffffffffffffff1667ffffffffffffffff1667ffffffffffffffff16815260200160048201548152602001600582015481526020016006820154815260200160078201548152505090505b818160e00151146114ce578060e00151915060036001836113509190613d7f565b8154811061136157611360613d21565b5b90600052602060002090600802016040518061010001604052908160008201805461138b90613c3d565b80601f01602080910402602001604051908101604052809291908181526020018280546113b790613c3d565b80156114045780601f106113d957610100808354040283529160200191611404565b820191906000526020600020905b8154815290600101906020018083116113e757829003601f168201915b505050505081526020016001820160009054906101000a900473ffffffffffffffffffffffffffffffffffffffff1673ffffffffffffffffffffffffffffffffffffffff1673ffffffffffffffffffffffffffffffffffffffff168152602001600282015481526020016003820160009054906101000a900467ffffffffffffffff1667ffffffffffffffff1667ffffffffffffffff168152602001600482015481526020016005820154815260200160068201548152602001600782015481525050905061132f565b919050565b6000606060006114e38686611daa565b80955081935082945050505060008160ff16146114ff57600080fd5b60006115118533886004806004612495565b905061154a8660405180606001604052808481526020018781526020016001600381111561154257611541612d36565b5b81525061269f565b5050509392505050565b6000805b600073__CoordinatesLib________________________63677342ce866040518263ffffffff1660e01b8152600401611591919061408f565b60206040518083038186803b1580156115a957600080fd5b505af41580156115bd573d6000803e3d6000fd5b505050506040513d601f19601f820116820180604052508101906115e191906140bf565b90506000816fffffffffffffffffffffffffffffffff161180156116235750600060028261160f919061411b565b6fffffffffffffffffffffffffffffffff16145b1561163857600181611635919061414c565b90505b600081826116469190614180565b86611651919061414c565b905060018261166091906141ca565b915060006002836116719190614210565b9050600083836116819190614210565b905060008484611691919061411b565b905073__CoordinatesLib________________________630b8ee38c8260405180608001604052806000600f0b600f0b81526020017fffffffffffffffffffffffffffffffffffffffffffffffffffffffffffffffff600f0b600f0b81526020016000600f0b600f0b81526020016001600f0b600f0b815250856fffffffffffffffffffffffffffffffff166004811061172e5761172d613d21565b5b602002015161173d9190613e76565b8560405180608001604052806001600f0b600f0b81526020016001600f0b600f0b81526020017fffffffffffffffffffffffffffffffffffffffffffffffffffffffffffffffff600f0b600f0b81526020017fffffffffffffffffffffffffffffffffffffffffffffffffffffffffffffffff600f0b600f0b815250866fffffffffffffffffffffffffffffffff16600481106117dd576117dc613d21565b5b60200201516117ec9190613e76565b6117f69190613f6d565b8a6118019190613e76565b8360405180608001604052807fffffffffffffffffffffffffffffffffffffffffffffffffffffffffffffffff600f0b600f0b81526020016000600f0b600f0b81526020016001600f0b600f0b81526020016000600f0b600f0b815250866fffffffffffffffffffffffffffffffff166004811061188257611881613d21565b5b60200201516118919190613e76565b8660405180608001604052806001600f0b600f0b81526020017fffffffffffffffffffffffffffffffffffffffffffffffffffffffffffffffff600f0b600f0b81526020017fffffffffffffffffffffffffffffffffffffffffffffffffffffffffffffffff600f0b600f0b81526020016001600f0b600f0b815250876fffffffffffffffffffffffffffffffff166004811061193157611930613d21565b5b60200201516119409190613e76565b61194a9190613f6d565b8b6119559190613e76565b6040518363ffffffff1660e01b8152600401611972929190613e0b565b60206040518083038186803b15801561198a57600080fd5b505af415801561199e573d6000803e3d6000fd5b505050506040513d601f19601f820116820180604052508101906119c29190613e49565b96506001896119d191906141ca565b955050505050506000600160008481526020019081526020016000206000015414158015611a15575042600160008481526020019081526020016000206001015411155b611558579250929050565b600060606000611a308585611daa565b80955081935082945050505060008160ff1611611a4c57600080fd5b611a90846040518060600160405280611a6586866127dc565b60e00151815260200186815260200160016003811115611a8857611a87612d36565b5b81525061269f565b505092915050565b611aa0612b68565b6001600073__CoordinatesLib________________________630b8ee38c86866040518363ffffffff1660e01b8152600401611add929190613e0b565b60206040518083038186803b158015611af557600080fd5b505af4158015611b09573d6000803e3d6000fd5b505050506040513d601f19601f82011682018060405250810190611b2d9190613e49565b815260200190815260200160002060405180606001604052908160008201548152602001600182015481526020016002820160009054906101000a900460ff166003811115611b7f57611b7e612d36565b5b6003811115611b9157611b90612d36565b5b81525050905092915050565b60008054906101000a900473ffffffffffffffffffffffffffffffffffffffff1681565b60026020528060005260406000206000915054906101000a900460ff1681565b611be9612af6565b60008073__CoordinatesLib________________________63158c764985604001516040518263ffffffff1660e01b8152600401611c279190614250565b604080518083038186803b158015611c3e57600080fd5b505af4158015611c52573d6000803e3d6000fd5b505050506040513d601f19601f82011682018060405250810190611c769190614280565b809250819350505060405180610120016040528085600001518152602001856020015173ffffffffffffffffffffffffffffffffffffffff16815260200183600f0b815260200182600f0b8152602001856060015167ffffffffffffffff168152602001856080015181526020018560a0015181526020018560c001518152602001611d058660e0015161119e565b60e0015181525092505050919050565b678ac7230489e80000341015611d2a57600080fd5b600080611d56600560009054906101000a90046fffffffffffffffffffffffffffffffff166040611554565b9150915080600560006101000a8154816fffffffffffffffffffffffffffffffff02191690836fffffffffffffffffffffffffffffffff160217905550611da4833384600460086010612495565b50505050565b606060008060006003600187611dc09190613d7f565b81548110611dd157611dd0613d21565b5b906000526020600020906008020160405180610100016040529081600082018054611dfb90613c3d565b80601f0160208091040260200160405190810160405280929190818152602001828054611e2790613c3d565b8015611e745780601f10611e4957610100808354040283529160200191611e74565b820191906000526020600020905b815481529060010190602001808311611e5757829003601f168201915b505050505081526020016001820160009054906101000a900473ffffffffffffffffffffffffffffffffffffffff1673ffffffffffffffffffffffffffffffffffffffff1673ffffffffffffffffffffffffffffffffffffffff168152602001600282015481526020016003820160009054906101000a900467ffffffffffffffff1667ffffffffffffffff1667ffffffffffffffff1681526020016004820154815260200160058201548152602001600682015481526020016007820154815250509050806020015173ffffffffffffffffffffffffffffffffffffffff163373ffffffffffffffffffffffffffffffffffffffff1614611f7557600080fd5b60008073__CoordinatesLib________________________63158c764984604001516040518263ffffffff1660e01b8152600401611fb39190614250565b604080518083038186803b158015611fca57600080fd5b505af4158015611fde573d6000803e3d6000fd5b505050506040513d601f19601f820116820180604052508101906120029190614280565b9150915060008073__CoordinatesLib________________________63158c76498a6040518263ffffffff1660e01b81526004016120409190614250565b604080518083038186803b15801561205757600080fd5b505af415801561206b573d6000803e3d6000fd5b505050506040513d601f19601f8201168201806040525081019061208f9190614280565b91509150600073__CoordinatesLib________________________63845de716868686866040518563ffffffff1660e01b81526004016120d294939291906142c0565b60206040518083038186803b1580156120ea57600080fd5b505af41580156120fe573d6000803e3d6000fd5b505050506040513d601f19601f8201168201806040525081019061212291906140bf565b9050426008826121329190614305565b61213c919061435f565b96506000600160008c8152602001908152602001600020600001541480612178575086600160008c815260200190815260200160002060010154115b61218157600080fd5b600467ffffffffffffffff81111561219c5761219b613610565b5b6040519080825280602002602001820160405280156121d557816020015b6121c2612b9b565b8152602001906001900390816121ba5790505b5098506000975060007fffffffffffffffffffffffffffffffffffffffffffffffffffffffffffffffff90505b60018160000b136124875760007fffffffffffffffffffffffffffffffffffffffffffffffffffffffffffffffff90505b60018160000b1315801561225c57508060000b8260000b14801561225a575060008260000b145b155b156124735760006001600073__CoordinatesLib________________________630b8ee38c8660000b8a6122909190613f6d565b8660000b8a61229f9190613f6d565b6040518363ffffffff1660e01b81526004016122bc929190613e0b565b60206040518083038186803b1580156122d457600080fd5b505af41580156122e8573d6000803e3d6000fd5b505050506040513d601f19601f8201168201806040525081019061230c9190613e49565b815260200190815260200160002060405180606001604052908160008201548152602001600182015481526020016002820160009054906101000a900460ff16600381111561235e5761235d612d36565b5b60038111156123705761236f612d36565b5b815250509050600080612386836000015161119e565b90503373ffffffffffffffffffffffffffffffffffffffff16816020015173ffffffffffffffffffffffffffffffffffffffff16146123c757505050612460565b60005b821580156123dd57508d60ff168160ff16105b15612427578160e001518f8260ff16815181106123fd576123fc613d21565b5b602002602001015160e00151141561241457600192505b808061241f906143c2565b9150506123ca565b508161245c57808e8e8061243a906143c2565b9f5060ff16815181106124505761244f613d21565b5b60200260200101819052505b5050505b808061246b906143f9565b915050612233565b50808061247f906143f9565b915050612202565b505050505050509250925092565b600060016003805490506124a9919061435f565b905060036040518061010001604052808981526020018873ffffffffffffffffffffffffffffffffffffffff168152602001878152602001600167ffffffffffffffff168152602001868152602001858152602001848152602001838152509080600181540180825580915050600190039060005260206000209060080201600090919091909150600082015181600001908051906020019061254d929190612c03565b5060208201518160010160006101000a81548173ffffffffffffffffffffffffffffffffffffffff021916908373ffffffffffffffffffffffffffffffffffffffff1602179055506040820151816002015560608201518160030160006101000a81548167ffffffffffffffff021916908367ffffffffffffffff1602179055506080820151816004015560a0820151816005015560c0820151816006015560e08201518160070155505061262f8560405180606001604052808481526020014281526020016001600381111561262757612626612d36565b5b81525061269f565b600460008773ffffffffffffffffffffffffffffffffffffffff1673ffffffffffffffffffffffffffffffffffffffff1681526020019081526020016000208190806001815401808255809150506001900390600052602060002001600090919091909150559695505050505050565b8060016000848152602001908152602001600020600082015181600001556020820151816001015560408201518160020160006101000a81548160ff021916908360038111156126f2576126f1612d36565b5b0217905550905050600073__CoordinatesLib________________________63af874ae0846040518263ffffffff1660e01b81526004016127339190614250565b60206040518083038186803b15801561274b57600080fd5b505af415801561275f573d6000803e3d6000fd5b505050506040513d601f19601f820116820180604052508101906127839190613e49565b90506002600082815260200190815260200160002060009054906101000a900460ff166127d75760016002600083815260200190815260200160002060006101000a81548160ff0219169083151502179055505b505050565b6127e4612b9b565b6000836000815181106127fa576127f9613d21565b5b602002602001015160600151905060008460008151811061281e5761281d613d21565b5b602002602001015160800151905060008560008151811061284257612841613d21565b5b602002602001015160a00151905060008660008151811061286657612865613d21565b5b602002602001015160c00151905060008490508760008151811061288d5761288c613d21565b5b602002602001015195506000600190505b8760ff168160ff161015612955576000898260ff16815181106128c4576128c3613d21565b5b602002602001015190508060600151876128de9190614423565b96508060800151866128f0919061435f565b95508060a0015185612902919061435f565b94508060c0015184612914919061435f565b93508267ffffffffffffffff16816060015167ffffffffffffffff16111561294157806060015192508097505b50808061294d906143c2565b91505061289e565b5084866060019067ffffffffffffffff16908167ffffffffffffffff168152505083866080018181525050828660a0018181525050818660c001818152505060005b8760ff168160ff161015612aea576000898260ff16815181106129bd576129bc613d21565b5b6020026020010151905060008160e0015190508860e001518260e00181815250508160036001836129ee9190613d7f565b815481106129ff576129fe613d21565b5b90600052602060002090600802016000820151816000019080519060200190612a29929190612c03565b5060208201518160010160006101000a81548173ffffffffffffffffffffffffffffffffffffffff021916908373ffffffffffffffffffffffffffffffffffffffff1602179055506040820151816002015560608201518160030160006101000a81548167ffffffffffffffff021916908367ffffffffffffffff1602179055506080820151816004015560a0820151816005015560c0820151816006015560e0820151816007015590505050508080612ae2906143c2565b915050612997565b50505050505092915050565b60405180610120016040528060608152602001600073ffffffffffffffffffffffffffffffffffffffff1681526020016000600f0b81526020016000600f0b8152602001600067ffffffffffffffff168152602001600081526020016000815260200160008152602001600081525090565b6040518060600160405280600081526020016000815260200160006003811115612b9557612b94612d36565b5b81525090565b60405180610100016040528060608152602001600073ffffffffffffffffffffffffffffffffffffffff16815260200160008019168152602001600067ffffffffffffffff168152602001600081526020016000815260200160008152602001600081525090565b828054612c0f90613c3d565b90600052602060002090601f016020900481019282612c315760008555612c78565b82601f10612c4a57805160ff1916838001178555612c78565b82800160010185558215612c78579182015b82811115612c77578251825591602001919060010190612c5c565b5b509050612c859190612c89565b5090565b5b80821115612ca2576000816000905550600101612c8a565b5090565b6000604051905090565b600080fd5b600080fd5b6000819050919050565b612ccd81612cba565b8114612cd857600080fd5b50565b600081359050612cea81612cc4565b92915050565b600060208284031215612d0657612d05612cb0565b5b6000612d1484828501612cdb565b91505092915050565b6000819050919050565b612d3081612d1d565b82525050565b7f4e487b7100000000000000000000000000000000000000000000000000000000600052602160045260246000fd5b60048110612d7657612d75612d36565b5b50565b6000819050612d8782612d65565b919050565b6000612d9782612d79565b9050919050565b612da781612d8c565b82525050565b6000606082019050612dc26000830186612d27565b612dcf6020830185612d27565b612ddc6040830184612d9e565b949350505050565b612ded81612d1d565b8114612df857600080fd5b50565b600081359050612e0a81612de4565b92915050565b600060208284031215612e2657612e25612cb0565b5b6000612e3484828501612dfb565b91505092915050565b600081519050919050565b600082825260208201905092915050565b60005b83811015612e77578082015181840152602081019050612e5c565b83811115612e86576000848401525b50505050565b6000601f19601f8301169050919050565b6000612ea882612e3d565b612eb28185612e48565b9350612ec2818560208601612e59565b612ecb81612e8c565b840191505092915050565b600073ffffffffffffffffffffffffffffffffffffffff82169050919050565b6000612f0182612ed6565b9050919050565b612f1181612ef6565b82525050565b612f2081612cba565b82525050565b600067ffffffffffffffff82169050919050565b612f4381612f26565b82525050565b6000610100820190508181036000830152612f64818b612e9d565b9050612f73602083018a612f08565b612f806040830189612f17565b612f8d6060830188612f3a565b612f9a6080830187612d27565b612fa760a0830186612d27565b612fb460c0830185612d27565b612fc160e0830184612d27565b9998505050505050505050565b612fd781612ef6565b8114612fe257600080fd5b50565b600081359050612ff481612fce565b92915050565b6000602082840312156130105761300f612cb0565b5b600061301e84828501612fe5565b91505092915050565b600081519050919050565b600082825260208201905092915050565b6000819050602082019050919050565b600082825260208201905092915050565b600061306f82612e3d565b6130798185613053565b9350613089818560208601612e59565b61309281612e8c565b840191505092915050565b6130a681612ef6565b82525050565b600081600f0b9050919050565b6130c2816130ac565b82525050565b6130d181612f26565b82525050565b6130e081612d1d565b82525050565b60006101208301600083015184820360008601526131048282613064565b9150506020830151613119602086018261309d565b50604083015161312c60408601826130b9565b50606083015161313f60608601826130b9565b50608083015161315260808601826130c8565b5060a083015161316560a08601826130d7565b5060c083015161317860c08601826130d7565b5060e083015161318b60e08601826130d7565b506101008301516131a06101008601826130d7565b508091505092915050565b60006131b783836130e6565b905092915050565b6000602082019050919050565b60006131d782613027565b6131e18185613032565b9350836020820285016131f385613043565b8060005b8581101561322f578484038952815161321085826131ab565b945061321b836131bf565b925060208a019950506001810190506131f7565b50829750879550505050505092915050565b6000602082019050818103600083015261325b81846131cc565b905092915050565b61326c816130ac565b811461327757600080fd5b50565b60008135905061328981613263565b92915050565b600080604083850312156132a6576132a5612cb0565b5b60006132b48582860161327a565b92505060206132c58582860161327a565b9150509250929050565b600081519050919050565b600082825260208201905092915050565b6000819050602082019050919050565b61330481612d8c565b82525050565b60608201600082015161332060008501826130d7565b50602082015161333360208501826130d7565b50604082015161334660408501826132fb565b50505050565b6000613358838361330a565b60608301905092915050565b6000602082019050919050565b600061337c826132cf565b61338681856132da565b9350613391836132eb565b8060005b838110156133c25781516133a9888261334c565b97506133b483613364565b925050600181019050613395565b5085935050505092915050565b600081519050919050565b600082825260208201905092915050565b6000819050602082019050919050565b600061340783836130b9565b60208301905092915050565b6000602082019050919050565b600061342b826133cf565b61343581856133da565b9350613440836133eb565b8060005b8381101561347157815161345888826133fb565b975061346383613413565b925050600181019050613444565b5085935050505092915050565b600060608201905081810360008301526134988186613371565b905081810360208301526134ac8185613420565b905081810360408301526134c08184613420565b9050949350505050565b600080604083850312156134e1576134e0612cb0565b5b60006134ef85828601612fe5565b925050602061350085828601612dfb565b9150509250929050565b600060208201905061351f6000830184612d27565b92915050565b61352e81612cba565b82525050565b60006101008301600083015184820360008601526135528282613064565b9150506020830151613567602086018261309d565b50604083015161357a6040860182613525565b50606083015161358d60608601826130c8565b5060808301516135a060808601826130d7565b5060a08301516135b360a08601826130d7565b5060c08301516135c660c08601826130d7565b5060e08301516135d960e08601826130d7565b508091505092915050565b600060208201905081810360008301526135fe8184613534565b905092915050565b600080fd5b600080fd5b7f4e487b7100000000000000000000000000000000000000000000000000000000600052604160045260246000fd5b61364882612e8c565b810181811067ffffffffffffffff8211171561366757613666613610565b5b80604052505050565b600061367a612ca6565b9050613686828261363f565b919050565b600067ffffffffffffffff8211156136a6576136a5613610565b5b6136af82612e8c565b9050602081019050919050565b82818337600083830152505050565b60006136de6136d98461368b565b613670565b9050828152602081018484840111156136fa576136f961360b565b5b6137058482856136bc565b509392505050565b600082601f83011261372257613721613606565b5b81356137328482602086016136cb565b91505092915050565b60008060006060848603121561375457613753612cb0565b5b600061376286828701612dfb565b935050602061377386828701612cdb565b925050604084013567ffffffffffffffff81111561379457613793612cb5565b5b6137a08682870161370d565b9150509250925092565b60006fffffffffffffffffffffffffffffffff82169050919050565b6137cf816137aa565b81146137da57600080fd5b50565b6000813590506137ec816137c6565b92915050565b6000806040838503121561380957613808612cb0565b5b6000613817858286016137dd565b92505060206138288582860161327a565b9150509250929050565b61383b816137aa565b82525050565b60006040820190506138566000830185612f17565b6138636020830184613832565b9392505050565b6000806040838503121561388157613880612cb0565b5b600061388f85828601612dfb565b92505060206138a085828601612cdb565b9150509250929050565b6060820160008201516138c060008501826130d7565b5060208201516138d360208501826130d7565b5060408201516138e660408501826132fb565b50505050565b600060608201905061390160008301846138aa565b92915050565b600061391282612ed6565b9050919050565b61392281613907565b82525050565b600060208201905061393d6000830184613919565b92915050565b60008115159050919050565b61395881613943565b82525050565b6000602082019050613973600083018461394f565b92915050565b600080fd5b600080fd5b61398c81612f26565b811461399757600080fd5b50565b6000813590506139a981613983565b92915050565b600061010082840312156139c6576139c5613979565b5b6139d1610100613670565b9050600082013567ffffffffffffffff8111156139f1576139f061397e565b5b6139fd8482850161370d565b6000830152506020613a1184828501612fe5565b6020830152506040613a2584828501612cdb565b6040830152506060613a398482850161399a565b6060830152506080613a4d84828501612dfb565b60808301525060a0613a6184828501612dfb565b60a08301525060c0613a7584828501612dfb565b60c08301525060e0613a8984828501612dfb565b60e08301525092915050565b600060208284031215613aab57613aaa612cb0565b5b600082013567ffffffffffffffff811115613ac957613ac8612cb5565b5b613ad5848285016139af565b91505092915050565b6000610120830160008301518482036000860152613afc8282613064565b9150506020830151613b11602086018261309d565b506040830151613b2460408601826130b9565b506060830151613b3760608601826130b9565b506080830151613b4a60808601826130c8565b5060a0830151613b5d60a08601826130d7565b5060c0830151613b7060c08601826130d7565b5060e0830151613b8360e08601826130d7565b50610100830151613b986101008601826130d7565b508091505092915050565b60006020820190508181036000830152613bbd8184613ade565b905092915050565b600060208284031215613bdb57613bda612cb0565b5b600082013567ffffffffffffffff811115613bf957613bf8612cb5565b5b613c058482850161370d565b91505092915050565b7f4e487b7100000000000000000000000000000000000000000000000000000000600052602260045260246000fd5b60006002820490506001821680613c5557607f821691505b60208210811415613c6957613c68613c0e565b5b50919050565b600081905092915050565b50565b6000613c8a600083613c6f565b9150613c9582613c7a565b600082019050919050565b6000613cab82613c7d565b9150819050919050565b7f4661696c656420746f2073656e64204574686572000000000000000000000000600082015250565b6000613ceb601483612e48565b9150613cf682613cb5565b602082019050919050565b60006020820190508181036000830152613d1a81613cde565b9050919050565b7f4e487b7100000000000000000000000000000000000000000000000000000000600052603260045260246000fd5b7f4e487b7100000000000000000000000000000000000000000000000000000000600052601160045260246000fd5b6000613d8a82612d1d565b9150613d9583612d1d565b925082821015613da857613da7613d50565b5b828203905092915050565b6000613dbe82612d1d565b91507fffffffffffffffffffffffffffffffffffffffffffffffffffffffffffffffff821415613df157613df0613d50565b5b600182019050919050565b613e05816130ac565b82525050565b6000604082019050613e206000830185613dfc565b613e2d6020830184613dfc565b9392505050565b600081519050613e4381612cc4565b92915050565b600060208284031215613e5f57613e5e612cb0565b5b6000613e6d84828501613e34565b91505092915050565b6000613e81826130ac565b9150613e8c836130ac565b9250826f7fffffffffffffffffffffffffffffff0482116000841360008413161615613ebb57613eba613d50565b5b817fffffffffffffffffffffffffffffffff800000000000000000000000000000000583126000841260008413161615613ef857613ef7613d50565b5b827fffffffffffffffffffffffffffffffff800000000000000000000000000000000582126000841360008412161615613f3557613f34613d50565b5b826f7fffffffffffffffffffffffffffffff0582126000841260008412161615613f6257613f61613d50565b5b828202905092915050565b6000613f78826130ac565b9150613f83836130ac565b9250816f7fffffffffffffffffffffffffffffff03831360008312151615613fae57613fad613d50565b5b817fffffffffffffffffffffffffffffffff80000000000000000000000000000000038312600083121615613fe657613fe5613d50565b5b828201905092915050565b6000613ffc826130ac565b91506f7fffffffffffffffffffffffffffffff82141561401f5761401e613d50565b5b600182019050919050565b600061403582612d1d565b9150600082141561404957614048613d50565b5b600182039050919050565b6000819050919050565b600061407961407461406f846137aa565b614054565b612d1d565b9050919050565b6140898161405e565b82525050565b60006020820190506140a46000830184614080565b92915050565b6000815190506140b981612de4565b92915050565b6000602082840312156140d5576140d4612cb0565b5b60006140e3848285016140aa565b91505092915050565b7f4e487b7100000000000000000000000000000000000000000000000000000000600052601260045260246000fd5b6000614126826137aa565b9150614131836137aa565b925082614141576141406140ec565b5b828206905092915050565b6000614157826137aa565b9150614162836137aa565b92508282101561417557614174613d50565b5b828203905092915050565b600061418b826137aa565b9150614196836137aa565b9250816fffffffffffffffffffffffffffffffff04831182151516156141bf576141be613d50565b5b828202905092915050565b60006141d5826137aa565b91506141e0836137aa565b9250826fffffffffffffffffffffffffffffffff0382111561420557614204613d50565b5b828201905092915050565b600061421b826137aa565b9150614226836137aa565b925082614236576142356140ec565b5b828204905092915050565b61424a81612cba565b82525050565b60006020820190506142656000830184614241565b92915050565b60008151905061427a81613263565b92915050565b6000806040838503121561429757614296612cb0565b5b60006142a58582860161426b565b92505060206142b68582860161426b565b9150509250929050565b60006080820190506142d56000830187613dfc565b6142e26020830186613dfc565b6142ef6040830185613dfc565b6142fc6060830184613dfc565b95945050505050565b600061431082612d1d565b915061431b83612d1d565b9250817fffffffffffffffffffffffffffffffffffffffffffffffffffffffffffffffff048311821515161561435457614353613d50565b5b828202905092915050565b600061436a82612d1d565b915061437583612d1d565b9250827fffffffffffffffffffffffffffffffffffffffffffffffffffffffffffffffff038211156143aa576143a9613d50565b5b828201905092915050565b600060ff82169050919050565b60006143cd826143b5565b915060ff8214156143e1576143e0613d50565b5b600182019050919050565b60008160000b9050919050565b6000614404826143ec565b9150607f82141561441857614417613d50565b5b600182019050919050565b600061442e82612f26565b915061443983612f26565b92508267ffffffffffffffff0382111561445657614455613d50565b5b82820190509291505056fea2646970667358221220b024dd251f2de4e15357a1ab0fe9dca5b5872b2e7bcab8cdb4de9b427b45ee3864736f6c63430008090033",
  "immutableReferences": {},
  "source": "// SPDX-License-Identifier: MIT\npragma solidity >=0.8.9 <0.9.0;\n\nimport \"./CoordinatesLib.sol\";\n\ncontract Eykar {\n    address payable public owner;\n\n    constructor() payable {\n        owner = payable(msg.sender);\n    }\n\n    enum StructureType {\n        None,\n        SettlerCamp,\n        Hamlet,\n        Town\n    }\n\n    struct Plot {\n        uint256 owner; // owner is a colony id\n        uint256 dateOfOwnership; // when owner will really own it\n        StructureType structure;\n    }\n\n    struct Colony {\n        string name;\n        address owner; // owner is a player\n        bytes32 location; // place of power\n        uint64 plotsAmount;\n        uint256 people;\n        uint256 food;\n        uint256 materials;\n        uint256 redirection; // id should be your own if there is no redirection\n    }\n\n    struct WrappedColony {\n        string name;\n        address owner; // owner is a player\n        int128 xLocation; // place of power\n        int128 yLocation; // place of power\n        uint64 plotsAmount;\n        uint256 people;\n        uint256 food;\n        uint256 materials;\n        uint256 id;\n    }\n\n    // all redeemed plots on the map\n    mapping(bytes32 => Plot) public map;\n\n    // map of non empty chunks for efficient queries\n    mapping(bytes32 => bool) public chunks;\n\n    // registered colonies\n    Colony[] public colonies;\n\n    // colonies id per player address\n    mapping(address => uint256[]) public coloniesPerPlayer;\n\n    /**\n     * Returns a colony with readable location and id\n     * @param colony to wrap\n     * @return wrapped colony\n     */\n    function wrapColony(Colony memory colony)\n        public\n        view\n        returns (WrappedColony memory)\n    {\n        int128 x;\n        int128 y;\n        (x, y) = CoordinatesLib.convertToCoordinates(colony.location);\n        return\n            WrappedColony({\n                name: colony.name,\n                owner: colony.owner,\n                xLocation: x,\n                yLocation: y,\n                plotsAmount: colony.plotsAmount,\n                people: colony.people,\n                food: colony.food,\n                materials: colony.materials,\n                id: getColony(colony.redirection).redirection\n            });\n    }\n\n    /**\n     * Places a Plot on the map\n     * @param location of the plot\n     * @param plot to place\n     */\n    function setPlot(bytes32 location, Plot memory plot) private {\n        map[location] = plot;\n        bytes32 chunkLocation = CoordinatesLib.getChunk(location);\n        if (!chunks[chunkLocation]) chunks[chunkLocation] = true;\n    }\n\n    /**\n     * Returns a specific Plot object\n     * @param x coordinate on the x axis\n     * @param y coordinate on the y axis\n     * @return plot object at this location\n     */\n    function getPlot(int128 x, int128 y) public view returns (Plot memory) {\n        return map[CoordinatesLib.convertFromCoordinates(x, y)];\n    }\n\n    /**\n     * Returns an array of Plots found on a specific chunk\n     * @param xChunk coordinate on the x axis of the chunk\n     * @param yChunk coordinate on the y axis of the chunk\n     * @return plots an array of plot object on this area\n     * @return xArray array of point x\n     * @return yArray array of point\n     */\n    function getPlots(int128 xChunk, int128 yChunk)\n        public\n        view\n        returns (\n            Plot[] memory plots,\n            int128[] memory xArray,\n            int128[] memory yArray\n        )\n    {\n        uint256 i = 0;\n        if (chunks[CoordinatesLib.convertFromCoordinates(xChunk, yChunk)]) {\n            Plot[] memory tempOutput = new Plot[](64);\n            int128[] memory tempxArray = new int128[](64);\n            int128[] memory tempyArray = new int128[](64);\n\n            for (int128 x = xChunk * 8; x < (xChunk + 1) * 8; x++)\n                for (int128 y = yChunk * 8; y < (yChunk + 1) * 8; y++) {\n                    Plot memory plot = getPlot(x, y);\n                    if (plot.structure != StructureType.None) {\n                        tempOutput[i] = plot;\n                        tempxArray[i] = x;\n                        tempyArray[i] = y;\n                        i++;\n                    }\n                }\n            plots = new Plot[](i);\n            xArray = new int128[](i);\n            yArray = new int128[](i);\n            while (i > 0) {\n                i--;\n                plots[i] = tempOutput[i];\n                xArray[i] = tempxArray[i];\n                yArray[i] = tempyArray[i];\n            }\n        } else {\n            plots = new Plot[](i);\n            xArray = new int128[](i);\n            yArray = new int128[](i);\n        }\n    }\n\n    /**\n     * Returns the next available plot location on the map and updates the lastRegistrationId\n     * @param spacing between plots\n     * @return location of the next available plot\n     */\n    function findNextLocationOnSpiral(\n        uint128 currentRegistrationId,\n        int128 spacing\n    ) public view returns (bytes32 location, uint128 newRegistrationId) {\n        do {\n            uint128 sqrt = uint128(CoordinatesLib.sqrt(currentRegistrationId));\n            if (sqrt > 0 && sqrt % 2 == 0) sqrt -= 1;\n\n            uint128 position_id = currentRegistrationId - sqrt * sqrt;\n            sqrt += 1;\n            uint128 circle_id = sqrt / 2;\n            uint128 side = position_id / sqrt;\n            uint128 position = position_id % sqrt;\n\n            location = CoordinatesLib.convertFromCoordinates(\n                spacing *\n                    ([int128(1), int128(1), int128(-1), int128(-1)][side] *\n                        int128(circle_id) +\n                        [int128(0), int128(-1), int128(0), int128(1)][side] *\n                        int128(position)),\n                spacing *\n                    ([int128(1), int128(-1), int128(-1), int128(1)][side] *\n                        int128(circle_id) +\n                        [int128(-1), int128(0), int128(1), int128(0)][side] *\n                        int128(position))\n            );\n            newRegistrationId = currentRegistrationId + 1;\n        } while (\n            map[location].owner != 0 &&\n                map[location].dateOfOwnership <= block.timestamp\n        );\n    }\n\n    // next input to the spiral function called on register\n    uint128 registrationId;\n\n    /**\n     * Registers a player to the game (creates its first colony)\n     * costs 10 ether\n     * @param name of the colony\n     */\n    function register(string memory name) public payable {\n        require(msg.value >= 10 ether);\n        (\n            bytes32 location,\n            uint128 newRegistrationId\n        ) = findNextLocationOnSpiral(registrationId, 64);\n\n        registrationId = newRegistrationId;\n        createColony(name, msg.sender, location, 4, 8, 16);\n    }\n\n    /**\n     * Withdraws all the balance\n     */\n    function withdraw() public {\n        (bool success, ) = owner.call{value: address(this).balance}(\"\");\n        require(success, \"Failed to send Ether\");\n    }\n\n    /**\n     * Returns the player owned colonies\n     * @param playerAddress the player address\n     * @return coloniesOwned by the player\n     */\n    function getColonies(address playerAddress)\n        public\n        view\n        returns (WrappedColony[] memory coloniesOwned)\n    {\n        uint256[] memory result = coloniesPerPlayer[playerAddress];\n        uint256 count = 0;\n        for (uint256 i = 0; i < result.length; i++) {\n            uint256 colonyId = result[i];\n            Colony memory colony = colonies[colonyId - 1];\n            if (colonyId == colony.redirection && colony.owner == playerAddress)\n                count++;\n        }\n        coloniesOwned = new WrappedColony[](count);\n        count = 0;\n        for (uint256 i = 0; i < result.length; i++) {\n            uint256 colonyId = result[i];\n            Colony memory colony = colonies[colonyId - 1];\n            if (colonyId == colony.redirection && colony.owner == playerAddress)\n                coloniesOwned[count++] = wrapColony(colony);\n        }\n    }\n\n    /**\n     * Returns the colony struct for the given colony id\n     * @param colonyId the colony id\n     * @return colony struct after redirections\n     */\n    function getColony(uint256 colonyId)\n        public\n        view\n        returns (Colony memory colony)\n    {\n        colony = colonies[colonyId - 1];\n        while (colony.redirection != colonyId) {\n            colonyId = colony.redirection;\n            colony = colonies[colonyId - 1];\n        }\n    }\n\n    /**\n     * Merges an array of colony into one single colony\n     * @param toMerge colonies to merge\n     * @param amount size of toMerge\n     * @return finalColony the merged colony\n     */\n    function mergeColonies(Colony[] memory toMerge, uint8 amount)\n        private\n        returns (Colony memory finalColony)\n    {\n        uint64 plotsAmount = toMerge[0].plotsAmount;\n        uint256 people = toMerge[0].people;\n        uint256 food = toMerge[0].food;\n        uint256 materials = toMerge[0].materials;\n        uint64 maxPlotsAmount = plotsAmount;\n        finalColony = toMerge[0];\n        for (uint8 i = 1; i < amount; i++) {\n            Colony memory toCompare = toMerge[i];\n            plotsAmount += toCompare.plotsAmount;\n            people += toCompare.people;\n            food += toCompare.food;\n            materials += toCompare.materials;\n            if (toCompare.plotsAmount > maxPlotsAmount) {\n                maxPlotsAmount = toCompare.plotsAmount;\n                finalColony = toCompare;\n            }\n        }\n\n        finalColony.plotsAmount = plotsAmount;\n        finalColony.people = people;\n        finalColony.food = food;\n        finalColony.materials = materials;\n\n        for (uint8 i = 0; i < amount; i++) {\n            Colony memory current = toMerge[i];\n            uint256 arrayPosition = current.redirection;\n            current.redirection = finalColony.redirection;\n            colonies[arrayPosition - 1] = current;\n        }\n    }\n\n    /**\n     * Create and register a new Colony\n     * @param name of the colony\n     * @param colonyOwner (player) of the colony\n     * @param location of the place of power\n     * @param people amount of people\n     * @param food amount of food\n     * @param materials amount of materials\n     * @return id of the created colony\n     */\n    function createColony(\n        string memory name,\n        address colonyOwner,\n        bytes32 location,\n        uint256 people,\n        uint256 food,\n        uint256 materials\n    ) private returns (uint256 id) {\n        id = colonies.length + 1;\n        colonies.push(\n            Colony({\n                name: name,\n                owner: colonyOwner,\n                location: location,\n                plotsAmount: 1,\n                people: people,\n                food: food,\n                materials: materials,\n                redirection: id\n            })\n        );\n        setPlot(\n            location,\n            Plot({\n                owner: id,\n                dateOfOwnership: block.timestamp,\n                structure: StructureType.SettlerCamp\n            })\n        );\n        coloniesPerPlayer[colonyOwner].push(id);\n    }\n\n    /**\n     * Common code between conquer with and without existing colony\n     * @param colonyId the source colony id\n     * @param location serialized plot location\n     * @return detectedColonies array of detected colonies\n     * @return detectedColoniesSize amount of detected colonies\n     * @return arrivalDate date of arrival\n     */\n    function conquer(uint256 colonyId, bytes32 location)\n        private\n        view\n        returns (\n            Colony[] memory detectedColonies,\n            uint8 detectedColoniesSize,\n            uint256 arrivalDate\n        )\n    {\n        Colony memory colony = colonies[colonyId - 1];\n        require(msg.sender == colony.owner);\n        (int128 x1, int128 y1) = CoordinatesLib.convertToCoordinates(\n            colony.location\n        );\n        (int128 x2, int128 y2) = CoordinatesLib.convertToCoordinates(location);\n        uint256 distanceLength = CoordinatesLib.distance(x1, y1, x2, y2);\n        arrivalDate = distanceLength * 8 + block.timestamp;\n\n        require(\n            map[location].owner == 0 ||\n                map[location].dateOfOwnership > arrivalDate\n        );\n\n        // we can have only 4 surrounding different colonies\n        detectedColonies = new Colony[](4);\n        detectedColoniesSize = 0;\n\n        for (int8 i = -1; i <= 1; i++)\n            for (int8 j = -1; j <= 1 && !(i == j && i == 0); j++) {\n                Plot memory plot = map[\n                    CoordinatesLib.convertFromCoordinates(x2 + i, y2 + j)\n                ];\n\n                // Insert colonies to detectedColonies so it doesn't contain duplicate value\n                bool found = false;\n                Colony memory foundColony = getColony(plot.owner);\n                if (foundColony.owner != msg.sender) continue;\n                for (uint8 k = 0; !found && k < detectedColoniesSize; k++)\n                    if (\n                        detectedColonies[k].redirection ==\n                        foundColony.redirection\n                    ) found = true;\n                if (!found)\n                    detectedColonies[detectedColoniesSize++] = foundColony;\n            }\n    }\n\n    /**\n     * Allows a player to conquer a new plot next to an existing colony\n     * @param colonyId the source colony id\n     * @param location serialized plot location\n     * @return arrivalDate\n     */\n    function conquerWithExistingColony(uint256 colonyId, bytes32 location)\n        public\n        returns (uint256 arrivalDate)\n    {\n        Colony[] memory detectedColonies;\n        uint8 detectedColoniesSize;\n        (detectedColonies, detectedColoniesSize, arrivalDate) = conquer(\n            colonyId,\n            location\n        );\n        require(detectedColoniesSize > 0);\n        setPlot(\n            location,\n            Plot(\n                mergeColonies(detectedColonies, detectedColoniesSize)\n                    .redirection,\n                arrivalDate,\n                StructureType.SettlerCamp\n            )\n        );\n    }\n\n    /**\n     * Allows a player to conquer a new plot that is not next to an existing owned colony\n     * @param colonyId the source colony id\n     * @param location serialized plot location\n     * @return arrivalDate\n     */\n    function conquerWithoutExistingColony(\n        uint256 colonyId,\n        bytes32 location,\n        string memory newColonyName\n    ) public returns (uint256 arrivalDate) {\n        Colony[] memory detectedColonies;\n        uint8 detectedColoniesSize;\n        (detectedColonies, detectedColoniesSize, arrivalDate) = conquer(\n            colonyId,\n            location\n        );\n        require(detectedColoniesSize == 0);\n        uint256 newColonyId = createColony({\n            name: newColonyName,\n            colonyOwner: msg.sender,\n            location: location,\n            people: 4,\n            food: 4,\n            materials: 4\n        });\n        setPlot(\n            location,\n            Plot(newColonyId, arrivalDate, StructureType.SettlerCamp)\n        );\n    }\n}\n",
  "sourcePath": "/Users/thomas/workspace/eykar/contract/contracts/Eykar.sol",
  "compiler": {
    "name": "solc",
    "version": "0.8.9+commit.e5eed63a.Emscripten.clang"
  },
  "schemaVersion": "3.4.3",
  "updatedAt": "2021-11-26T15:10:01.318Z",
  "networkType": "ethereum",
  "devdoc": {
    "kind": "dev",
    "methods": {
      "conquerWithExistingColony(uint256,bytes32)": {
        "params": {
          "colonyId": "the source colony id",
          "location": "serialized plot location"
        },
        "returns": {
          "arrivalDate": "arrivalDate"
        }
      },
      "conquerWithoutExistingColony(uint256,bytes32,string)": {
        "params": {
          "colonyId": "the source colony id",
          "location": "serialized plot location"
        },
        "returns": {
          "arrivalDate": "arrivalDate"
        }
      },
      "findNextLocationOnSpiral(uint128,int128)": {
        "params": {
          "spacing": "between plots"
        },
        "returns": {
          "location": "of the next available plot"
        }
      },
      "getColonies(address)": {
        "params": {
          "playerAddress": "the player address"
        },
        "returns": {
          "coloniesOwned": "by the player"
        }
      },
      "getColony(uint256)": {
        "params": {
          "colonyId": "the colony id"
        },
        "returns": {
          "colony": "struct after redirections"
        }
      },
      "getPlot(int128,int128)": {
        "params": {
          "x": "coordinate on the x axis",
          "y": "coordinate on the y axis"
        },
        "returns": {
          "_0": "plot object at this location"
        }
      },
      "getPlots(int128,int128)": {
        "params": {
          "xChunk": "coordinate on the x axis of the chunk",
          "yChunk": "coordinate on the y axis of the chunk"
        },
        "returns": {
          "plots": "an array of plot object on this area",
          "xArray": "array of point x",
          "yArray": "array of point"
        }
      },
      "register(string)": {
        "params": {
          "name": "of the colony"
        }
      },
      "wrapColony((string,address,bytes32,uint64,uint256,uint256,uint256,uint256))": {
        "params": {
          "colony": "to wrap"
        },
        "returns": {
          "_0": "wrapped colony"
        }
      }
    },
    "version": 1
  },
  "userdoc": {
    "kind": "user",
    "methods": {
      "conquerWithExistingColony(uint256,bytes32)": {
        "notice": "Allows a player to conquer a new plot next to an existing colony"
      },
      "conquerWithoutExistingColony(uint256,bytes32,string)": {
        "notice": "Allows a player to conquer a new plot that is not next to an existing owned colony"
      },
      "findNextLocationOnSpiral(uint128,int128)": {
        "notice": "Returns the next available plot location on the map and updates the lastRegistrationId"
      },
      "getColonies(address)": {
        "notice": "Returns the player owned colonies"
      },
      "getColony(uint256)": {
        "notice": "Returns the colony struct for the given colony id"
      },
      "getPlot(int128,int128)": {
        "notice": "Returns a specific Plot object"
      },
      "getPlots(int128,int128)": {
        "notice": "Returns an array of Plots found on a specific chunk"
      },
      "register(string)": {
        "notice": "Registers a player to the game (creates its first colony) costs 10 ether"
      },
      "withdraw()": {
        "notice": "Withdraws all the balance"
      },
      "wrapColony((string,address,bytes32,uint64,uint256,uint256,uint256,uint256))": {
        "notice": "Returns a colony with readable location and id"
      }
    },
    "version": 1
  }
}