{
  "contractName": "Eykar",
  "abi": [
    {
      "inputs": [],
      "stateMutability": "payable",
      "type": "constructor",
      "payable": true
    },
    {
      "inputs": [
        {
          "internalType": "uint256",
          "name": "",
          "type": "uint256"
        }
      ],
      "name": "colonies",
      "outputs": [
        {
          "internalType": "string",
          "name": "name",
          "type": "string"
        },
        {
          "internalType": "address",
          "name": "owner",
          "type": "address"
        },
        {
          "internalType": "bytes32",
          "name": "location",
          "type": "bytes32"
        },
        {
          "internalType": "uint64",
          "name": "plotsAmount",
          "type": "uint64"
        },
        {
          "internalType": "uint256",
          "name": "people",
          "type": "uint256"
        },
        {
          "internalType": "uint256",
          "name": "food",
          "type": "uint256"
        },
        {
          "internalType": "uint256",
          "name": "materials",
          "type": "uint256"
        },
        {
          "internalType": "uint256",
          "name": "redirection",
          "type": "uint256"
        }
      ],
      "stateMutability": "view",
      "type": "function",
      "constant": true
    },
    {
      "inputs": [
        {
          "internalType": "address",
          "name": "",
          "type": "address"
        },
        {
          "internalType": "uint256",
          "name": "",
          "type": "uint256"
        }
      ],
      "name": "coloniesPerPlayer",
      "outputs": [
        {
          "internalType": "uint256",
          "name": "",
          "type": "uint256"
        }
      ],
      "stateMutability": "view",
      "type": "function",
      "constant": true
    },
    {
      "inputs": [
        {
          "internalType": "bytes32",
          "name": "",
          "type": "bytes32"
        }
      ],
      "name": "map",
      "outputs": [
        {
          "internalType": "uint256",
          "name": "owner",
          "type": "uint256"
        },
        {
          "internalType": "uint256",
          "name": "dateOfOwnership",
          "type": "uint256"
        },
        {
          "internalType": "enum Eykar.StructureType",
          "name": "structure",
          "type": "uint8"
        }
      ],
      "stateMutability": "view",
      "type": "function",
      "constant": true
    },
    {
      "inputs": [],
      "name": "owner",
      "outputs": [
        {
          "internalType": "address payable",
          "name": "",
          "type": "address"
        }
      ],
      "stateMutability": "view",
      "type": "function",
      "constant": true
    },
    {
      "inputs": [
        {
          "internalType": "int128",
          "name": "x",
          "type": "int128"
        },
        {
          "internalType": "int128",
          "name": "y",
          "type": "int128"
        }
      ],
      "name": "getPlot",
      "outputs": [
        {
          "components": [
            {
              "internalType": "uint256",
              "name": "owner",
              "type": "uint256"
            },
            {
              "internalType": "uint256",
              "name": "dateOfOwnership",
              "type": "uint256"
            },
            {
              "internalType": "enum Eykar.StructureType",
              "name": "structure",
              "type": "uint8"
            }
          ],
          "internalType": "struct Eykar.Plot",
          "name": "",
          "type": "tuple"
        }
      ],
      "stateMutability": "view",
      "type": "function",
      "constant": true
    },
    {
      "inputs": [
        {
          "internalType": "int128",
          "name": "startX",
          "type": "int128"
        },
        {
          "internalType": "int128",
          "name": "startY",
          "type": "int128"
        },
        {
          "internalType": "int128",
          "name": "endX",
          "type": "int128"
        },
        {
          "internalType": "int128",
          "name": "endY",
          "type": "int128"
        }
      ],
      "name": "getPlots",
      "outputs": [
        {
          "components": [
            {
              "internalType": "uint256",
              "name": "owner",
              "type": "uint256"
            },
            {
              "internalType": "uint256",
              "name": "dateOfOwnership",
              "type": "uint256"
            },
            {
              "internalType": "enum Eykar.StructureType",
              "name": "structure",
              "type": "uint8"
            }
          ],
          "internalType": "struct Eykar.Plot[]",
          "name": "plots",
          "type": "tuple[]"
        },
        {
          "internalType": "int128[]",
          "name": "xArray",
          "type": "int128[]"
        },
        {
          "internalType": "int128[]",
          "name": "yArray",
          "type": "int128[]"
        }
      ],
      "stateMutability": "view",
      "type": "function",
      "constant": true
    },
    {
      "inputs": [
        {
          "internalType": "uint128",
          "name": "currentRegistrationId",
          "type": "uint128"
        },
        {
          "internalType": "int128",
          "name": "spacing",
          "type": "int128"
        }
      ],
      "name": "findNextLocationOnSpiral",
      "outputs": [
        {
          "internalType": "bytes32",
          "name": "location",
          "type": "bytes32"
        },
        {
          "internalType": "uint128",
          "name": "newRegistrationId",
          "type": "uint128"
        }
      ],
      "stateMutability": "view",
      "type": "function",
      "constant": true
    },
    {
      "inputs": [
        {
          "internalType": "string",
          "name": "name",
          "type": "string"
        }
      ],
      "name": "register",
      "outputs": [],
      "stateMutability": "payable",
      "type": "function",
      "payable": true
    },
    {
      "inputs": [],
      "name": "withdraw",
      "outputs": [],
      "stateMutability": "nonpayable",
      "type": "function"
    },
    {
      "inputs": [
        {
          "internalType": "address",
          "name": "playerAddress",
          "type": "address"
        }
      ],
      "name": "getColonies",
      "outputs": [
        {
          "components": [
            {
              "internalType": "string",
              "name": "name",
              "type": "string"
            },
            {
              "internalType": "address",
              "name": "owner",
              "type": "address"
            },
            {
              "internalType": "bytes32",
              "name": "location",
              "type": "bytes32"
            },
            {
              "internalType": "uint64",
              "name": "plotsAmount",
              "type": "uint64"
            },
            {
              "internalType": "uint256",
              "name": "people",
              "type": "uint256"
            },
            {
              "internalType": "uint256",
              "name": "food",
              "type": "uint256"
            },
            {
              "internalType": "uint256",
              "name": "materials",
              "type": "uint256"
            },
            {
              "internalType": "uint256",
              "name": "redirection",
              "type": "uint256"
            }
          ],
          "internalType": "struct Eykar.Colony[]",
          "name": "coloniesOwned",
          "type": "tuple[]"
        }
      ],
      "stateMutability": "view",
      "type": "function",
      "constant": true
    },
    {
      "inputs": [
        {
          "internalType": "uint256",
          "name": "colonyId",
          "type": "uint256"
        }
      ],
      "name": "getColony",
      "outputs": [
        {
          "components": [
            {
              "internalType": "string",
              "name": "name",
              "type": "string"
            },
            {
              "internalType": "address",
              "name": "owner",
              "type": "address"
            },
            {
              "internalType": "bytes32",
              "name": "location",
              "type": "bytes32"
            },
            {
              "internalType": "uint64",
              "name": "plotsAmount",
              "type": "uint64"
            },
            {
              "internalType": "uint256",
              "name": "people",
              "type": "uint256"
            },
            {
              "internalType": "uint256",
              "name": "food",
              "type": "uint256"
            },
            {
              "internalType": "uint256",
              "name": "materials",
              "type": "uint256"
            },
            {
              "internalType": "uint256",
              "name": "redirection",
              "type": "uint256"
            }
          ],
          "internalType": "struct Eykar.Colony",
          "name": "colony",
          "type": "tuple"
        }
      ],
      "stateMutability": "view",
      "type": "function",
      "constant": true
    },
    {
      "inputs": [
        {
          "internalType": "uint256",
          "name": "colonyId",
          "type": "uint256"
        },
        {
          "internalType": "bytes32",
          "name": "location",
          "type": "bytes32"
        }
      ],
      "name": "conquerWithExistingColony",
      "outputs": [
        {
          "internalType": "uint256",
          "name": "arrivalDate",
          "type": "uint256"
        }
      ],
      "stateMutability": "nonpayable",
      "type": "function"
    },
    {
      "inputs": [
        {
          "internalType": "uint256",
          "name": "colonyId",
          "type": "uint256"
        },
        {
          "internalType": "bytes32",
          "name": "location",
          "type": "bytes32"
        },
        {
          "internalType": "string",
          "name": "newColonyName",
          "type": "string"
        }
      ],
      "name": "conquerWithoutExistingColony",
      "outputs": [
        {
          "internalType": "uint256",
          "name": "arrivalDate",
          "type": "uint256"
        }
      ],
      "stateMutability": "nonpayable",
      "type": "function"
    }
  ],
  "bytecode": "0x6080604052336000806101000a81548173ffffffffffffffffffffffffffffffffffffffff021916908373ffffffffffffffffffffffffffffffffffffffff160217905550613f1c806100536000396000f3fe6080604052600436106100c25760003560e01c8063751036561161007f578063825fe9e511610059578063825fe9e5146102d05780638da5cb5b1461030d578063e4763dac14610338578063f2c298be14610377576100c2565b80637510365614610218578063751e3b30146102555780637896c51e14610293576100c2565b80630ae186a8146100c75780632cfb2053146101065780633ccfd60b1461014a578063418d1f19146101615780636ed1f79b1461019e5780636f92650d146101db575b600080fd5b3480156100d357600080fd5b506100ee60048036038101906100e99190612921565b610393565b6040516100fd939291906129de565b60405180910390f35b34801561011257600080fd5b5061012d60048036038101906101289190612a41565b6103ca565b604051610141989796959493929190612b7a565b60405180910390f35b34801561015657600080fd5b5061015f6104de565b005b34801561016d57600080fd5b5061018860048036038101906101839190612c2b565b6105ae565b6040516101959190612e50565b60405180910390f35b3480156101aa57600080fd5b506101c560048036038101906101c09190612e72565b610b03565b6040516101d29190612eb2565b60405180910390f35b3480156101e757600080fd5b5061020260048036038101906101fd9190612a41565b610b34565b60405161020f9190612f7d565b60405180910390f35b34801561022457600080fd5b5061023f600480360381019061023a91906130d4565b610e69565b60405161024c9190612eb2565b60405180910390f35b34801561026157600080fd5b5061027c600480360381019061027791906131c4565b610f3b565b60405161028a929190613213565b60405180910390f35b34801561029f57600080fd5b506102ba60048036038101906102b5919061323c565b611407565b6040516102c79190612eb2565b60405180910390f35b3480156102dc57600080fd5b506102f760048036038101906102f2919061327c565b6114d0565b604051610304919061330d565b60405180910390f35b34801561031957600080fd5b506103226115d5565b60405161032f9190613349565b60405180910390f35b34801561034457600080fd5b5061035f600480360381019061035a9190613364565b6115f9565b60405161036e9392919061357a565b60405180910390f35b610391600480360381019061038c91906135c6565b611aa4565b005b60016020528060005260406000206000915090508060000154908060010154908060020160009054906101000a900460ff16905083565b600281815481106103da57600080fd5b90600052602060002090600802016000915090508060000180546103fd9061363e565b80601f01602080910402602001604051908101604052809291908181526020018280546104299061363e565b80156104765780601f1061044b57610100808354040283529160200191610476565b820191906000526020600020905b81548152906001019060200180831161045957829003601f168201915b5050505050908060010160009054906101000a900473ffffffffffffffffffffffffffffffffffffffff16908060020154908060030160009054906101000a900467ffffffffffffffff16908060040154908060050154908060060154908060070154905088565b60008060009054906101000a900473ffffffffffffffffffffffffffffffffffffffff1673ffffffffffffffffffffffffffffffffffffffff1647604051610525906136a1565b60006040518083038185875af1925050503d8060008114610562576040519150601f19603f3d011682016040523d82523d6000602084013e610567565b606091505b50509050806105ab576040517f08c379a00000000000000000000000000000000000000000000000000000000081526004016105a290613702565b60405180910390fd5b50565b60606000600360008473ffffffffffffffffffffffffffffffffffffffff1673ffffffffffffffffffffffffffffffffffffffff16815260200190815260200160002080548060200260200160405190810160405280929190818152602001828054801561063b57602002820191906000526020600020905b815481526020019060010190808311610627575b505050505090506000805b825181101561086357600083828151811061066457610663613722565b5b602002602001015190506000600260018361067f9190613780565b815481106106905761068f613722565b5b9060005260206000209060080201604051806101000160405290816000820180546106ba9061363e565b80601f01602080910402602001604051908101604052809291908181526020018280546106e69061363e565b80156107335780601f1061070857610100808354040283529160200191610733565b820191906000526020600020905b81548152906001019060200180831161071657829003601f168201915b505050505081526020016001820160009054906101000a900473ffffffffffffffffffffffffffffffffffffffff1673ffffffffffffffffffffffffffffffffffffffff1673ffffffffffffffffffffffffffffffffffffffff168152602001600282015481526020016003820160009054906101000a900467ffffffffffffffff1667ffffffffffffffff1667ffffffffffffffff16815260200160048201548152602001600582015481526020016006820154815260200160078201548152505090508060e001518214801561083a57508673ffffffffffffffffffffffffffffffffffffffff16816020015173ffffffffffffffffffffffffffffffffffffffff16145b1561084e57838061084a906137b4565b9450505b5050808061085b906137b4565b915050610646565b508067ffffffffffffffff81111561087e5761087d612fa9565b5b6040519080825280602002602001820160405280156108b757816020015b6108a4612799565b81526020019060019003908161089c5790505b5092506000905060005b8251811015610afb5760008382815181106108df576108de613722565b5b60200260200101519050600060026001836108fa9190613780565b8154811061090b5761090a613722565b5b9060005260206000209060080201604051806101000160405290816000820180546109359061363e565b80601f01602080910402602001604051908101604052809291908181526020018280546109619061363e565b80156109ae5780601f10610983576101008083540402835291602001916109ae565b820191906000526020600020905b81548152906001019060200180831161099157829003601f168201915b505050505081526020016001820160009054906101000a900473ffffffffffffffffffffffffffffffffffffffff1673ffffffffffffffffffffffffffffffffffffffff1673ffffffffffffffffffffffffffffffffffffffff168152602001600282015481526020016003820160009054906101000a900467ffffffffffffffff1667ffffffffffffffff1667ffffffffffffffff16815260200160048201548152602001600582015481526020016006820154815260200160078201548152505090508060e0015182148015610ab557508673ffffffffffffffffffffffffffffffffffffffff16816020015173ffffffffffffffffffffffffffffffffffffffff16145b15610ae65780868580610ac7906137b4565b965081518110610ada57610ad9613722565b5b60200260200101819052505b50508080610af3906137b4565b9150506108c1565b505050919050565b60036020528160005260406000208181548110610b1f57600080fd5b90600052602060002001600091509150505481565b610b3c612799565b6002600183610b4b9190613780565b81548110610b5c57610b5b613722565b5b906000526020600020906008020160405180610100016040529081600082018054610b869061363e565b80601f0160208091040260200160405190810160405280929190818152602001828054610bb29061363e565b8015610bff5780601f10610bd457610100808354040283529160200191610bff565b820191906000526020600020905b815481529060010190602001808311610be257829003601f168201915b505050505081526020016001820160009054906101000a900473ffffffffffffffffffffffffffffffffffffffff1673ffffffffffffffffffffffffffffffffffffffff1673ffffffffffffffffffffffffffffffffffffffff168152602001600282015481526020016003820160009054906101000a900467ffffffffffffffff1667ffffffffffffffff1667ffffffffffffffff16815260200160048201548152602001600582015481526020016006820154815260200160078201548152505090505b818160e0015114610e64578060e0015191506002600183610ce69190613780565b81548110610cf757610cf6613722565b5b906000526020600020906008020160405180610100016040529081600082018054610d219061363e565b80601f0160208091040260200160405190810160405280929190818152602001828054610d4d9061363e565b8015610d9a5780601f10610d6f57610100808354040283529160200191610d9a565b820191906000526020600020905b815481529060010190602001808311610d7d57829003601f168201915b505050505081526020016001820160009054906101000a900473ffffffffffffffffffffffffffffffffffffffff1673ffffffffffffffffffffffffffffffffffffffff1673ffffffffffffffffffffffffffffffffffffffff168152602001600282015481526020016003820160009054906101000a900467ffffffffffffffff1667ffffffffffffffff1667ffffffffffffffff1681526020016004820154815260200160058201548152602001600682015481526020016007820154815250509050610cc5565b919050565b600060606000610e798686611b39565b80955081935082945050505060008160ff1614610e9557600080fd5b6000610ea78533886004806004612224565b9050604051806060016040528082815260200185815260200160016003811115610ed457610ed3612967565b5b81525060016000888152602001908152602001600020600082015181600001556020820151816001015560408201518160020160006101000a81548160ff02191690836003811115610f2957610f28612967565b5b02179055509050505050509392505050565b6000805b600073__CoordinatesLib________________________63677342ce866040518263ffffffff1660e01b8152600401610f789190613838565b60206040518083038186803b158015610f9057600080fd5b505af4158015610fa4573d6000803e3d6000fd5b505050506040513d601f19601f82011682018060405250810190610fc89190613868565b90506000816fffffffffffffffffffffffffffffffff1611801561100a57506000600282610ff691906138c4565b6fffffffffffffffffffffffffffffffff16145b1561101f5760018161101c91906138f5565b90505b6000818261102d9190613929565b8661103891906138f5565b90506001826110479190613973565b9150600060028361105891906139b9565b90506000838361106891906139b9565b90506000848461107891906138c4565b905073__CoordinatesLib________________________630b8ee38c8260405180608001604052806000600f0b600f0b81526020017fffffffffffffffffffffffffffffffffffffffffffffffffffffffffffffffff600f0b600f0b81526020016000600f0b600f0b81526020016001600f0b600f0b815250856fffffffffffffffffffffffffffffffff166004811061111557611114613722565b5b602002015161112491906139ea565b8560405180608001604052806001600f0b600f0b81526020016001600f0b600f0b81526020017fffffffffffffffffffffffffffffffffffffffffffffffffffffffffffffffff600f0b600f0b81526020017fffffffffffffffffffffffffffffffffffffffffffffffffffffffffffffffff600f0b600f0b815250866fffffffffffffffffffffffffffffffff16600481106111c4576111c3613722565b5b60200201516111d391906139ea565b6111dd9190613ae1565b8a6111e891906139ea565b8360405180608001604052807fffffffffffffffffffffffffffffffffffffffffffffffffffffffffffffffff600f0b600f0b81526020016000600f0b600f0b81526020016001600f0b600f0b81526020016000600f0b600f0b815250866fffffffffffffffffffffffffffffffff166004811061126957611268613722565b5b602002015161127891906139ea565b8660405180608001604052806001600f0b600f0b81526020017fffffffffffffffffffffffffffffffffffffffffffffffffffffffffffffffff600f0b600f0b81526020017fffffffffffffffffffffffffffffffffffffffffffffffffffffffffffffffff600f0b600f0b81526020016001600f0b600f0b815250876fffffffffffffffffffffffffffffffff166004811061131857611317613722565b5b602002015161132791906139ea565b6113319190613ae1565b8b61133c91906139ea565b6040518363ffffffff1660e01b8152600401611359929190613b74565b60206040518083038186803b15801561137157600080fd5b505af4158015611385573d6000803e3d6000fd5b505050506040513d601f19601f820116820180604052508101906113a99190613bb2565b96506001896113b89190613973565b9550505050505060006001600084815260200190815260200160002060000154141580156113fc575042600160008481526020019081526020016000206001015411155b610f3f579250929050565b6000606060006114178585611b39565b80955081935082945050505060008160ff161161143357600080fd5b6040518060600160405280611448848461247f565b60e0015181526020018481526020016001600381111561146b5761146a612967565b5b81525060016000868152602001908152602001600020600082015181600001556020820151816001015560408201518160020160006101000a81548160ff021916908360038111156114c0576114bf612967565b5b0217905550905050505092915050565b6114d8612801565b6001600073__CoordinatesLib________________________630b8ee38c86866040518363ffffffff1660e01b8152600401611515929190613b74565b60206040518083038186803b15801561152d57600080fd5b505af4158015611541573d6000803e3d6000fd5b505050506040513d601f19601f820116820180604052508101906115659190613bb2565b815260200190815260200160002060405180606001604052908160008201548152602001600182015481526020016002820160009054906101000a900460ff1660038111156115b7576115b6612967565b5b60038111156115c9576115c8612967565b5b81525050905092915050565b60008054906101000a900473ffffffffffffffffffffffffffffffffffffffff1681565b60608060606000878661160c9190613bdf565b90506000878661161c9190613bdf565b8261162791906139ea565b6fffffffffffffffffffffffffffffffff1667ffffffffffffffff81111561165257611651612fa9565b5b60405190808252806020026020018201604052801561168b57816020015b611678612801565b8152602001906001900390816116705790505b5090506000888761169c9190613bdf565b836116a791906139ea565b6fffffffffffffffffffffffffffffffff1667ffffffffffffffff8111156116d2576116d1612fa9565b5b6040519080825280602002602001820160405280156117005781602001602082028036833780820191505090505b509050600089886117119190613bdf565b8461171c91906139ea565b6fffffffffffffffffffffffffffffffff1667ffffffffffffffff81111561174757611746612fa9565b5b6040519080825280602002602001820160405280156117755781602001602082028036833780820191505090505b5090506000808c90505b8a600f0b81600f0b1361180d5760008c90505b8a600f0b81600f0b136117f95760006117ab83836114d0565b905060008160000151146117e557808785806117c6906137b4565b9650815181106117d9576117d8613722565b5b60200260200101819052505b5080806117f190613c63565b915050611792565b50808061180590613c63565b91505061177f565b508067ffffffffffffffff81111561182857611827612fa9565b5b60405190808252806020026020018201604052801561186157816020015b61184e612801565b8152602001906001900390816118465790505b5097508067ffffffffffffffff81111561187e5761187d612fa9565b5b6040519080825280602002602001820160405280156118ac5781602001602082028036833780820191505090505b5096508067ffffffffffffffff8111156118c9576118c8612fa9565b5b6040519080825280602002602001820160405280156118f75781602001602082028036833780820191505090505b5095505b60008111156119d25783818151811061191757611916613722565b5b6020026020010151888261192a90613c9c565b9250828151811061193e5761193d613722565b5b602002602001018190525082818151811061195c5761195b613722565b5b602002602001015187828151811061197757611976613722565b5b6020026020010190600f0b9081600f0b8152505081818151811061199e5761199d613722565b5b60200260200101518682815181106119b9576119b8613722565b5b6020026020010190600f0b9081600f0b815250506118fb565b836000815181106119e6576119e5613722565b5b602002602001015188600081518110611a0257611a01613722565b5b602002602001018190525082600081518110611a2157611a20613722565b5b602002602001015187600081518110611a3d57611a3c613722565b5b6020026020010190600f0b9081600f0b8152505081600081518110611a6557611a64613722565b5b602002602001015186600081518110611a8157611a80613722565b5b6020026020010190600f0b9081600f0b8152505050505050509450945094915050565b678ac7230489e80000341015611ab957600080fd5b600080611ae5600460009054906101000a90046fffffffffffffffffffffffffffffffff166040610f3b565b9150915080600460006101000a8154816fffffffffffffffffffffffffffffffff02191690836fffffffffffffffffffffffffffffffff160217905550611b33833384600460086010612224565b50505050565b606060008060006002600187611b4f9190613780565b81548110611b6057611b5f613722565b5b906000526020600020906008020160405180610100016040529081600082018054611b8a9061363e565b80601f0160208091040260200160405190810160405280929190818152602001828054611bb69061363e565b8015611c035780601f10611bd857610100808354040283529160200191611c03565b820191906000526020600020905b815481529060010190602001808311611be657829003601f168201915b505050505081526020016001820160009054906101000a900473ffffffffffffffffffffffffffffffffffffffff1673ffffffffffffffffffffffffffffffffffffffff1673ffffffffffffffffffffffffffffffffffffffff168152602001600282015481526020016003820160009054906101000a900467ffffffffffffffff1667ffffffffffffffff1667ffffffffffffffff1681526020016004820154815260200160058201548152602001600682015481526020016007820154815250509050806020015173ffffffffffffffffffffffffffffffffffffffff163373ffffffffffffffffffffffffffffffffffffffff1614611d0457600080fd5b60008073__CoordinatesLib________________________63158c764984604001516040518263ffffffff1660e01b8152600401611d429190613cd5565b604080518083038186803b158015611d5957600080fd5b505af4158015611d6d573d6000803e3d6000fd5b505050506040513d601f19601f82011682018060405250810190611d919190613d05565b9150915060008073__CoordinatesLib________________________63158c76498a6040518263ffffffff1660e01b8152600401611dcf9190613cd5565b604080518083038186803b158015611de657600080fd5b505af4158015611dfa573d6000803e3d6000fd5b505050506040513d601f19601f82011682018060405250810190611e1e9190613d05565b91509150600073__CoordinatesLib________________________63845de716868686866040518563ffffffff1660e01b8152600401611e619493929190613d45565b60206040518083038186803b158015611e7957600080fd5b505af4158015611e8d573d6000803e3d6000fd5b505050506040513d601f19601f82011682018060405250810190611eb19190613868565b905042600882611ec19190613d8a565b611ecb9190613de4565b96506000600160008c8152602001908152602001600020600001541480611f07575086600160008c815260200190815260200160002060010154115b611f1057600080fd5b600467ffffffffffffffff811115611f2b57611f2a612fa9565b5b604051908082528060200260200182016040528015611f6457816020015b611f51612799565b815260200190600190039081611f495790505b5098506000975060007fffffffffffffffffffffffffffffffffffffffffffffffffffffffffffffffff90505b60018160000b136122165760007fffffffffffffffffffffffffffffffffffffffffffffffffffffffffffffffff90505b60018160000b13158015611feb57508060000b8260000b148015611fe9575060008260000b145b155b156122025760006001600073__CoordinatesLib________________________630b8ee38c8660000b8a61201f9190613ae1565b8660000b8a61202e9190613ae1565b6040518363ffffffff1660e01b815260040161204b929190613b74565b60206040518083038186803b15801561206357600080fd5b505af4158015612077573d6000803e3d6000fd5b505050506040513d601f19601f8201168201806040525081019061209b9190613bb2565b815260200190815260200160002060405180606001604052908160008201548152602001600182015481526020016002820160009054906101000a900460ff1660038111156120ed576120ec612967565b5b60038111156120ff576120fe612967565b5b8152505090506000806121158360000151610b34565b90503373ffffffffffffffffffffffffffffffffffffffff16816020015173ffffffffffffffffffffffffffffffffffffffff1614612156575050506121ef565b60005b8215801561216c57508d60ff168160ff16105b156121b6578160e001518f8260ff168151811061218c5761218b613722565b5b602002602001015160e0015114156121a357600192505b80806121ae90613e47565b915050612159565b50816121eb57808e8e806121c990613e47565b9f5060ff16815181106121df576121de613722565b5b60200260200101819052505b5050505b80806121fa90613e7e565b915050611fc2565b50808061220e90613e7e565b915050611f91565b505050505050509250925092565b600060016002805490506122389190613de4565b905060026040518061010001604052808981526020018873ffffffffffffffffffffffffffffffffffffffff168152602001878152602001600167ffffffffffffffff16815260200186815260200185815260200184815260200183815250908060018154018082558091505060019003906000526020600020906008020160009091909190915060008201518160000190805190602001906122dc929190612834565b5060208201518160010160006101000a81548173ffffffffffffffffffffffffffffffffffffffff021916908373ffffffffffffffffffffffffffffffffffffffff1602179055506040820151816002015560608201518160030160006101000a81548167ffffffffffffffff021916908367ffffffffffffffff1602179055506080820151816004015560a0820151816005015560c0820151816006015560e0820151816007015550506040518060600160405280828152602001428152602001600160038111156123b2576123b1612967565b5b81525060016000878152602001908152602001600020600082015181600001556020820151816001015560408201518160020160006101000a81548160ff0219169083600381111561240757612406612967565b5b0217905550905050600360008773ffffffffffffffffffffffffffffffffffffffff1673ffffffffffffffffffffffffffffffffffffffff1681526020019081526020016000208190806001815401808255809150506001900390600052602060002001600090919091909150559695505050505050565b612487612799565b60008360008151811061249d5761249c613722565b5b60200260200101516060015190506000846000815181106124c1576124c0613722565b5b60200260200101516080015190506000856000815181106124e5576124e4613722565b5b602002602001015160a00151905060008660008151811061250957612508613722565b5b602002602001015160c0015190506000849050876000815181106125305761252f613722565b5b602002602001015195506000600190505b8760ff168160ff1610156125f8576000898260ff168151811061256757612566613722565b5b602002602001015190508060600151876125819190613ea8565b96508060800151866125939190613de4565b95508060a00151856125a59190613de4565b94508060c00151846125b79190613de4565b93508267ffffffffffffffff16816060015167ffffffffffffffff1611156125e457806060015192508097505b5080806125f090613e47565b915050612541565b5084866060019067ffffffffffffffff16908167ffffffffffffffff168152505083866080018181525050828660a0018181525050818660c001818152505060005b8760ff168160ff16101561278d576000898260ff16815181106126605761265f613722565b5b6020026020010151905060008160e0015190508860e001518260e00181815250508160026001836126919190613780565b815481106126a2576126a1613722565b5b906000526020600020906008020160008201518160000190805190602001906126cc929190612834565b5060208201518160010160006101000a81548173ffffffffffffffffffffffffffffffffffffffff021916908373ffffffffffffffffffffffffffffffffffffffff1602179055506040820151816002015560608201518160030160006101000a81548167ffffffffffffffff021916908367ffffffffffffffff1602179055506080820151816004015560a0820151816005015560c0820151816006015560e082015181600701559050505050808061278590613e47565b91505061263a565b50505050505092915050565b60405180610100016040528060608152602001600073ffffffffffffffffffffffffffffffffffffffff16815260200160008019168152602001600067ffffffffffffffff168152602001600081526020016000815260200160008152602001600081525090565b604051806060016040528060008152602001600081526020016000600381111561282e5761282d612967565b5b81525090565b8280546128409061363e565b90600052602060002090601f01602090048101928261286257600085556128a9565b82601f1061287b57805160ff19168380011785556128a9565b828001600101855582156128a9579182015b828111156128a857825182559160200191906001019061288d565b5b5090506128b691906128ba565b5090565b5b808211156128d35760008160009055506001016128bb565b5090565b6000604051905090565b600080fd5b600080fd5b6000819050919050565b6128fe816128eb565b811461290957600080fd5b50565b60008135905061291b816128f5565b92915050565b600060208284031215612937576129366128e1565b5b60006129458482850161290c565b91505092915050565b6000819050919050565b6129618161294e565b82525050565b7f4e487b7100000000000000000000000000000000000000000000000000000000600052602160045260246000fd5b600481106129a7576129a6612967565b5b50565b60008190506129b882612996565b919050565b60006129c8826129aa565b9050919050565b6129d8816129bd565b82525050565b60006060820190506129f36000830186612958565b612a006020830185612958565b612a0d60408301846129cf565b949350505050565b612a1e8161294e565b8114612a2957600080fd5b50565b600081359050612a3b81612a15565b92915050565b600060208284031215612a5757612a566128e1565b5b6000612a6584828501612a2c565b91505092915050565b600081519050919050565b600082825260208201905092915050565b60005b83811015612aa8578082015181840152602081019050612a8d565b83811115612ab7576000848401525b50505050565b6000601f19601f8301169050919050565b6000612ad982612a6e565b612ae38185612a79565b9350612af3818560208601612a8a565b612afc81612abd565b840191505092915050565b600073ffffffffffffffffffffffffffffffffffffffff82169050919050565b6000612b3282612b07565b9050919050565b612b4281612b27565b82525050565b612b51816128eb565b82525050565b600067ffffffffffffffff82169050919050565b612b7481612b57565b82525050565b6000610100820190508181036000830152612b95818b612ace565b9050612ba4602083018a612b39565b612bb16040830189612b48565b612bbe6060830188612b6b565b612bcb6080830187612958565b612bd860a0830186612958565b612be560c0830185612958565b612bf260e0830184612958565b9998505050505050505050565b612c0881612b27565b8114612c1357600080fd5b50565b600081359050612c2581612bff565b92915050565b600060208284031215612c4157612c406128e1565b5b6000612c4f84828501612c16565b91505092915050565b600081519050919050565b600082825260208201905092915050565b6000819050602082019050919050565b600082825260208201905092915050565b6000612ca082612a6e565b612caa8185612c84565b9350612cba818560208601612a8a565b612cc381612abd565b840191505092915050565b612cd781612b27565b82525050565b612ce6816128eb565b82525050565b612cf581612b57565b82525050565b612d048161294e565b82525050565b6000610100830160008301518482036000860152612d288282612c95565b9150506020830151612d3d6020860182612cce565b506040830151612d506040860182612cdd565b506060830151612d636060860182612cec565b506080830151612d766080860182612cfb565b5060a0830151612d8960a0860182612cfb565b5060c0830151612d9c60c0860182612cfb565b5060e0830151612daf60e0860182612cfb565b508091505092915050565b6000612dc68383612d0a565b905092915050565b6000602082019050919050565b6000612de682612c58565b612df08185612c63565b935083602082028501612e0285612c74565b8060005b85811015612e3e5784840389528151612e1f8582612dba565b9450612e2a83612dce565b925060208a01995050600181019050612e06565b50829750879550505050505092915050565b60006020820190508181036000830152612e6a8184612ddb565b905092915050565b60008060408385031215612e8957612e886128e1565b5b6000612e9785828601612c16565b9250506020612ea885828601612a2c565b9150509250929050565b6000602082019050612ec76000830184612958565b92915050565b6000610100830160008301518482036000860152612eeb8282612c95565b9150506020830151612f006020860182612cce565b506040830151612f136040860182612cdd565b506060830151612f266060860182612cec565b506080830151612f396080860182612cfb565b5060a0830151612f4c60a0860182612cfb565b5060c0830151612f5f60c0860182612cfb565b5060e0830151612f7260e0860182612cfb565b508091505092915050565b60006020820190508181036000830152612f978184612ecd565b905092915050565b600080fd5b600080fd5b7f4e487b7100000000000000000000000000000000000000000000000000000000600052604160045260246000fd5b612fe182612abd565b810181811067ffffffffffffffff8211171561300057612fff612fa9565b5b80604052505050565b60006130136128d7565b905061301f8282612fd8565b919050565b600067ffffffffffffffff82111561303f5761303e612fa9565b5b61304882612abd565b9050602081019050919050565b82818337600083830152505050565b600061307761307284613024565b613009565b90508281526020810184848401111561309357613092612fa4565b5b61309e848285613055565b509392505050565b600082601f8301126130bb576130ba612f9f565b5b81356130cb848260208601613064565b91505092915050565b6000806000606084860312156130ed576130ec6128e1565b5b60006130fb86828701612a2c565b935050602061310c8682870161290c565b925050604084013567ffffffffffffffff81111561312d5761312c6128e6565b5b613139868287016130a6565b9150509250925092565b60006fffffffffffffffffffffffffffffffff82169050919050565b61316881613143565b811461317357600080fd5b50565b6000813590506131858161315f565b92915050565b600081600f0b9050919050565b6131a18161318b565b81146131ac57600080fd5b50565b6000813590506131be81613198565b92915050565b600080604083850312156131db576131da6128e1565b5b60006131e985828601613176565b92505060206131fa858286016131af565b9150509250929050565b61320d81613143565b82525050565b60006040820190506132286000830185612b48565b6132356020830184613204565b9392505050565b60008060408385031215613253576132526128e1565b5b600061326185828601612a2c565b92505060206132728582860161290c565b9150509250929050565b60008060408385031215613293576132926128e1565b5b60006132a1858286016131af565b92505060206132b2858286016131af565b9150509250929050565b6132c5816129bd565b82525050565b6060820160008201516132e16000850182612cfb565b5060208201516132f46020850182612cfb565b50604082015161330760408501826132bc565b50505050565b600060608201905061332260008301846132cb565b92915050565b600061333382612b07565b9050919050565b61334381613328565b82525050565b600060208201905061335e600083018461333a565b92915050565b6000806000806080858703121561337e5761337d6128e1565b5b600061338c878288016131af565b945050602061339d878288016131af565b93505060406133ae878288016131af565b92505060606133bf878288016131af565b91505092959194509250565b600081519050919050565b600082825260208201905092915050565b6000819050602082019050919050565b60608201600082015161340d6000850182612cfb565b5060208201516134206020850182612cfb565b50604082015161343360408501826132bc565b50505050565b600061344583836133f7565b60608301905092915050565b6000602082019050919050565b6000613469826133cb565b61347381856133d6565b935061347e836133e7565b8060005b838110156134af5781516134968882613439565b97506134a183613451565b925050600181019050613482565b5085935050505092915050565b600081519050919050565b600082825260208201905092915050565b6000819050602082019050919050565b6134f18161318b565b82525050565b600061350383836134e8565b60208301905092915050565b6000602082019050919050565b6000613527826134bc565b61353181856134c7565b935061353c836134d8565b8060005b8381101561356d57815161355488826134f7565b975061355f8361350f565b925050600181019050613540565b5085935050505092915050565b60006060820190508181036000830152613594818661345e565b905081810360208301526135a8818561351c565b905081810360408301526135bc818461351c565b9050949350505050565b6000602082840312156135dc576135db6128e1565b5b600082013567ffffffffffffffff8111156135fa576135f96128e6565b5b613606848285016130a6565b91505092915050565b7f4e487b7100000000000000000000000000000000000000000000000000000000600052602260045260246000fd5b6000600282049050600182168061365657607f821691505b6020821081141561366a5761366961360f565b5b50919050565b600081905092915050565b50565b600061368b600083613670565b91506136968261367b565b600082019050919050565b60006136ac8261367e565b9150819050919050565b7f4661696c656420746f2073656e64204574686572000000000000000000000000600082015250565b60006136ec601483612a79565b91506136f7826136b6565b602082019050919050565b6000602082019050818103600083015261371b816136df565b9050919050565b7f4e487b7100000000000000000000000000000000000000000000000000000000600052603260045260246000fd5b7f4e487b7100000000000000000000000000000000000000000000000000000000600052601160045260246000fd5b600061378b8261294e565b91506137968361294e565b9250828210156137a9576137a8613751565b5b828203905092915050565b60006137bf8261294e565b91507fffffffffffffffffffffffffffffffffffffffffffffffffffffffffffffffff8214156137f2576137f1613751565b5b600182019050919050565b6000819050919050565b600061382261381d61381884613143565b6137fd565b61294e565b9050919050565b61383281613807565b82525050565b600060208201905061384d6000830184613829565b92915050565b60008151905061386281612a15565b92915050565b60006020828403121561387e5761387d6128e1565b5b600061388c84828501613853565b91505092915050565b7f4e487b7100000000000000000000000000000000000000000000000000000000600052601260045260246000fd5b60006138cf82613143565b91506138da83613143565b9250826138ea576138e9613895565b5b828206905092915050565b600061390082613143565b915061390b83613143565b92508282101561391e5761391d613751565b5b828203905092915050565b600061393482613143565b915061393f83613143565b9250816fffffffffffffffffffffffffffffffff048311821515161561396857613967613751565b5b828202905092915050565b600061397e82613143565b915061398983613143565b9250826fffffffffffffffffffffffffffffffff038211156139ae576139ad613751565b5b828201905092915050565b60006139c482613143565b91506139cf83613143565b9250826139df576139de613895565b5b828204905092915050565b60006139f58261318b565b9150613a008361318b565b9250826f7fffffffffffffffffffffffffffffff0482116000841360008413161615613a2f57613a2e613751565b5b817fffffffffffffffffffffffffffffffff800000000000000000000000000000000583126000841260008413161615613a6c57613a6b613751565b5b827fffffffffffffffffffffffffffffffff800000000000000000000000000000000582126000841360008412161615613aa957613aa8613751565b5b826f7fffffffffffffffffffffffffffffff0582126000841260008412161615613ad657613ad5613751565b5b828202905092915050565b6000613aec8261318b565b9150613af78361318b565b9250816f7fffffffffffffffffffffffffffffff03831360008312151615613b2257613b21613751565b5b817fffffffffffffffffffffffffffffffff80000000000000000000000000000000038312600083121615613b5a57613b59613751565b5b828201905092915050565b613b6e8161318b565b82525050565b6000604082019050613b896000830185613b65565b613b966020830184613b65565b9392505050565b600081519050613bac816128f5565b92915050565b600060208284031215613bc857613bc76128e1565b5b6000613bd684828501613b9d565b91505092915050565b6000613bea8261318b565b9150613bf58361318b565b9250827fffffffffffffffffffffffffffffffff8000000000000000000000000000000001821260008412151615613c3057613c2f613751565b5b826f7fffffffffffffffffffffffffffffff018213600084121615613c5857613c57613751565b5b828203905092915050565b6000613c6e8261318b565b91506f7fffffffffffffffffffffffffffffff821415613c9157613c90613751565b5b600182019050919050565b6000613ca78261294e565b91506000821415613cbb57613cba613751565b5b600182039050919050565b613ccf816128eb565b82525050565b6000602082019050613cea6000830184613cc6565b92915050565b600081519050613cff81613198565b92915050565b60008060408385031215613d1c57613d1b6128e1565b5b6000613d2a85828601613cf0565b9250506020613d3b85828601613cf0565b9150509250929050565b6000608082019050613d5a6000830187613b65565b613d676020830186613b65565b613d746040830185613b65565b613d816060830184613b65565b95945050505050565b6000613d958261294e565b9150613da08361294e565b9250817fffffffffffffffffffffffffffffffffffffffffffffffffffffffffffffffff0483118215151615613dd957613dd8613751565b5b828202905092915050565b6000613def8261294e565b9150613dfa8361294e565b9250827fffffffffffffffffffffffffffffffffffffffffffffffffffffffffffffffff03821115613e2f57613e2e613751565b5b828201905092915050565b600060ff82169050919050565b6000613e5282613e3a565b915060ff821415613e6657613e65613751565b5b600182019050919050565b60008160000b9050919050565b6000613e8982613e71565b9150607f821415613e9d57613e9c613751565b5b600182019050919050565b6000613eb382612b57565b9150613ebe83612b57565b92508267ffffffffffffffff03821115613edb57613eda613751565b5b82820190509291505056fea26469706673582212201f3307701ad6fea4becebe02e137fabb529b790a21288f793282c04b03a4c6d564736f6c63430008090033",
  "immutableReferences": {},
  "source": "// SPDX-License-Identifier: MIT\npragma solidity >=0.8.9 <0.9.0;\n\nimport \"./CoordinatesLib.sol\";\n\ncontract Eykar {\n    address payable public owner;\n\n    constructor() payable {\n        owner = payable(msg.sender);\n    }\n\n    enum StructureType {\n        None,\n        SettlerCamp,\n        Hamlet,\n        Town\n    }\n\n    struct Plot {\n        uint256 owner; // owner is a colony id\n        uint256 dateOfOwnership; // when owner will really own it\n        StructureType structure;\n    }\n\n    struct Colony {\n        string name;\n        address owner; // owner is a player\n        bytes32 location; // place of power\n        uint64 plotsAmount;\n        uint256 people;\n        uint256 food;\n        uint256 materials;\n        uint256 redirection; // id should be your own if there is no redirection\n    }\n\n    // all redeemed plots on the map\n    mapping(bytes32 => Plot) public map;\n\n    // registered colonies\n    Colony[] public colonies;\n\n    // colonies id per player address\n    mapping(address => uint256[]) public coloniesPerPlayer;\n\n    /**\n     * Returns a specific Plot object\n     * @param x coordinate on the x axis\n     * @param y coordinate on the y axis\n     * @return plot object at this location\n     */\n    function getPlot(int128 x, int128 y) public view returns (Plot memory) {\n        return map[CoordinatesLib.convertFromCoordinates(x, y)];\n    }\n\n    /**\n     * Returns an array of Plots found on a specific area\n     * @param startX coordinate on the x axis of the top left point\n     * @param startY coordinate on the y axis of the top left point\n     * @param endX coordinate on the x axis of the bottom right point\n     * @param endY coordinate on the y axis of the top right point\n     * @return plots an array of plot object on this area\n     * @return xArray array of point x\n     * @return yArray array of point y\n     */\n    function getPlots(\n        int128 startX,\n        int128 startY,\n        int128 endX,\n        int128 endY\n    )\n        public\n        view\n        returns (\n            Plot[] memory plots,\n            int128[] memory xArray,\n            int128[] memory yArray\n        )\n    {\n        int128 width = (endX - startX);\n        Plot[] memory tempOutput = new Plot[](uint128(width * (endY - startY)));\n        int128[] memory tempxArray = new int128[](\n            uint128(width * (endY - startY))\n        );\n        int128[] memory tempyArray = new int128[](\n            uint128(width * (endY - startY))\n        );\n        uint256 i = 0;\n        for (int128 x = startX; x <= endX; x++)\n            for (int128 y = startY; y <= endY; y++) {\n                Plot memory plot = getPlot(x, y);\n                if (plot.owner != 0) tempOutput[i++] = plot;\n            }\n        plots = new Plot[](i);\n        xArray = new int128[](i);\n        yArray = new int128[](i);\n        while (i > 0) {\n            plots[--i] = tempOutput[i];\n            xArray[i] = tempxArray[i];\n            yArray[i] = tempyArray[i];\n        }\n        plots[0] = tempOutput[0];\n        xArray[0] = tempxArray[0];\n        yArray[0] = tempyArray[0];\n    }\n\n    /**\n     * Returns the next available plot location on the map and updates the lastRegistrationId\n     * @param spacing between plots\n     * @return location of the next available plot\n     */\n    function findNextLocationOnSpiral(\n        uint128 currentRegistrationId,\n        int128 spacing\n    ) public view returns (bytes32 location, uint128 newRegistrationId) {\n        do {\n            uint128 sqrt = uint128(CoordinatesLib.sqrt(currentRegistrationId));\n            if (sqrt > 0 && sqrt % 2 == 0) sqrt -= 1;\n\n            uint128 position_id = currentRegistrationId - sqrt * sqrt;\n            sqrt += 1;\n            uint128 circle_id = sqrt / 2;\n            uint128 side = position_id / sqrt;\n            uint128 position = position_id % sqrt;\n\n            location = CoordinatesLib.convertFromCoordinates(\n                spacing *\n                    ([int128(1), int128(1), int128(-1), int128(-1)][side] *\n                        int128(circle_id) +\n                        [int128(0), int128(-1), int128(0), int128(1)][side] *\n                        int128(position)),\n                spacing *\n                    ([int128(1), int128(-1), int128(-1), int128(1)][side] *\n                        int128(circle_id) +\n                        [int128(-1), int128(0), int128(1), int128(0)][side] *\n                        int128(position))\n            );\n            newRegistrationId = currentRegistrationId + 1;\n        } while (\n            map[location].owner != 0 &&\n                map[location].dateOfOwnership <= block.timestamp\n        );\n    }\n\n    // next input to the spiral function called on register\n    uint128 registrationId;\n\n    /**\n     * Registers a player to the game (creates its first colony)\n     * costs 10 ether\n     * @param name of the colony\n     */\n    function register(string memory name) public payable {\n        require(msg.value >= 10 ether);\n        (\n            bytes32 location,\n            uint128 newRegistrationId\n        ) = findNextLocationOnSpiral(registrationId, 64);\n\n        registrationId = newRegistrationId;\n        createColony(name, msg.sender, location, 4, 8, 16);\n    }\n\n    /**\n     * Withdraws all the balance\n     */\n    function withdraw() public {\n        (bool success, ) = owner.call{value: address(this).balance}(\"\");\n        require(success, \"Failed to send Ether\");\n    }\n\n    /**\n     * Returns the player owned colonies\n     * @param playerAddress the player address\n     * @return coloniesOwned by the player\n     */\n    function getColonies(address playerAddress)\n        public\n        view\n        returns (Colony[] memory coloniesOwned)\n    {\n        uint256[] memory result = coloniesPerPlayer[playerAddress];\n        uint256 count = 0;\n        for (uint256 i = 0; i < result.length; i++) {\n            uint256 colonyId = result[i];\n            Colony memory colony = colonies[colonyId - 1];\n            if (colonyId == colony.redirection && colony.owner == playerAddress)\n                count++;\n        }\n        coloniesOwned = new Colony[](count);\n        count = 0;\n        for (uint256 i = 0; i < result.length; i++) {\n            uint256 colonyId = result[i];\n            Colony memory colony = colonies[colonyId - 1];\n            if (colonyId == colony.redirection && colony.owner == playerAddress)\n                coloniesOwned[count++] = colony;\n        }\n    }\n\n    /**\n     * Returns the colony struct for the given colony id\n     * @param colonyId the colony id\n     * @return colony struct after redirections\n     */\n    function getColony(uint256 colonyId)\n        public\n        view\n        returns (Colony memory colony)\n    {\n        colony = colonies[colonyId - 1];\n        while (colony.redirection != colonyId) {\n            colonyId = colony.redirection;\n            colony = colonies[colonyId - 1];\n        }\n    }\n\n    /**\n     * Merges an array of colony into one single colony\n     * @param toMerge colonies to merge\n     * @param amount size of toMerge\n     * @return finalColony the merged colony\n     */\n    function mergeColonies(Colony[] memory toMerge, uint8 amount)\n        private\n        returns (Colony memory finalColony)\n    {\n        uint64 plotsAmount = toMerge[0].plotsAmount;\n        uint256 people = toMerge[0].people;\n        uint256 food = toMerge[0].food;\n        uint256 materials = toMerge[0].materials;\n        uint64 maxPlotsAmount = plotsAmount;\n        finalColony = toMerge[0];\n        for (uint8 i = 1; i < amount; i++) {\n            Colony memory toCompare = toMerge[i];\n            plotsAmount += toCompare.plotsAmount;\n            people += toCompare.people;\n            food += toCompare.food;\n            materials += toCompare.materials;\n            if (toCompare.plotsAmount > maxPlotsAmount) {\n                maxPlotsAmount = toCompare.plotsAmount;\n                finalColony = toCompare;\n            }\n        }\n\n        finalColony.plotsAmount = plotsAmount;\n        finalColony.people = people;\n        finalColony.food = food;\n        finalColony.materials = materials;\n\n        for (uint8 i = 0; i < amount; i++) {\n            Colony memory current = toMerge[i];\n            uint256 arrayPosition = current.redirection;\n            current.redirection = finalColony.redirection;\n            colonies[arrayPosition - 1] = current;\n        }\n    }\n\n    /**\n     * Create and register a new Colony\n     * @param name of the colony\n     * @param colonyOwner (player) of the colony\n     * @param location of the place of power\n     * @param people amount of people\n     * @param food amount of food\n     * @param materials amount of materials\n     * @return id of the created colony\n     */\n    function createColony(\n        string memory name,\n        address colonyOwner,\n        bytes32 location,\n        uint256 people,\n        uint256 food,\n        uint256 materials\n    ) private returns (uint256 id) {\n        id = colonies.length + 1;\n        colonies.push(\n            Colony({\n                name: name,\n                owner: colonyOwner,\n                location: location,\n                plotsAmount: 1,\n                people: people,\n                food: food,\n                materials: materials,\n                redirection: id\n            })\n        );\n\n        map[location] = Plot({\n            owner: id,\n            dateOfOwnership: block.timestamp,\n            structure: StructureType.SettlerCamp\n        });\n\n        coloniesPerPlayer[colonyOwner].push(id);\n    }\n\n    /**\n     * Common code between conquer with and without existing colony\n     * @param colonyId the source colony id\n     * @param location serialized plot location\n     * @return detectedColonies array of detected colonies\n     * @return detectedColoniesSize amount of detected colonies\n     * @return arrivalDate date of arrival\n     */\n    function conquer(uint256 colonyId, bytes32 location)\n        private\n        view\n        returns (\n            Colony[] memory detectedColonies,\n            uint8 detectedColoniesSize,\n            uint256 arrivalDate\n        )\n    {\n        Colony memory colony = colonies[colonyId - 1];\n        require(msg.sender == colony.owner);\n        (int128 x1, int128 y1) = CoordinatesLib.convertToCoordinates(\n            colony.location\n        );\n        (int128 x2, int128 y2) = CoordinatesLib.convertToCoordinates(location);\n        uint256 distanceLength = CoordinatesLib.distance(x1, y1, x2, y2);\n        arrivalDate = distanceLength * 8 + block.timestamp;\n\n        require(\n            map[location].owner == 0 ||\n                map[location].dateOfOwnership > arrivalDate\n        );\n\n        // we can have only 4 surrounding different colonies\n        detectedColonies = new Colony[](4);\n        detectedColoniesSize = 0;\n\n        for (int8 i = -1; i <= 1; i++)\n            for (int8 j = -1; j <= 1 && !(i == j && i == 0); j++) {\n                Plot memory plot = map[\n                    CoordinatesLib.convertFromCoordinates(x2 + i, y2 + j)\n                ];\n\n                // Insert colonies to detectedColonies so it doesn't contain duplicate value\n                bool found = false;\n                Colony memory foundColony = getColony(plot.owner);\n                if (foundColony.owner != msg.sender) continue;\n                for (uint8 k = 0; !found && k < detectedColoniesSize; k++)\n                    if (\n                        detectedColonies[k].redirection ==\n                        foundColony.redirection\n                    ) found = true;\n                if (!found)\n                    detectedColonies[detectedColoniesSize++] = foundColony;\n            }\n    }\n\n    /**\n     * Allows a player to conquer a new plot next to an existing colony\n     * @param colonyId the source colony id\n     * @param location serialized plot location\n     * @return arrivalDate\n     */\n    function conquerWithExistingColony(uint256 colonyId, bytes32 location)\n        public\n        returns (uint256 arrivalDate)\n    {\n        Colony[] memory detectedColonies;\n        uint8 detectedColoniesSize;\n        (detectedColonies, detectedColoniesSize, arrivalDate) = conquer(\n            colonyId,\n            location\n        );\n        require(detectedColoniesSize > 0);\n        map[location] = Plot(\n            mergeColonies(detectedColonies, detectedColoniesSize).redirection,\n            arrivalDate,\n            StructureType.SettlerCamp\n        );\n    }\n\n    /**\n     * Allows a player to conquer a new plot that is not next to an existing owned colony\n     * @param colonyId the source colony id\n     * @param location serialized plot location\n     * @return arrivalDate\n     */\n    function conquerWithoutExistingColony(\n        uint256 colonyId,\n        bytes32 location,\n        string memory newColonyName\n    ) public returns (uint256 arrivalDate) {\n        Colony[] memory detectedColonies;\n        uint8 detectedColoniesSize;\n        (detectedColonies, detectedColoniesSize, arrivalDate) = conquer(\n            colonyId,\n            location\n        );\n        require(detectedColoniesSize == 0);\n        uint256 newColonyId = createColony({\n            name: newColonyName,\n            colonyOwner: msg.sender,\n            location: location,\n            people: 4,\n            food: 4,\n            materials: 4\n        });\n        map[location] = Plot(\n            newColonyId,\n            arrivalDate,\n            StructureType.SettlerCamp\n        );\n    }\n}\n",
  "sourcePath": "/Users/thomas/workspace/eykar/contract/contracts/Eykar.sol",
  "compiler": {
    "name": "solc",
    "version": "0.8.9+commit.e5eed63a.Emscripten.clang"
  },
  "schemaVersion": "3.4.3",
  "updatedAt": "2021-11-20T16:53:27.830Z",
  "networkType": "ethereum",
  "devdoc": {
    "kind": "dev",
    "methods": {
      "conquerWithExistingColony(uint256,bytes32)": {
        "params": {
          "colonyId": "the source colony id",
          "location": "serialized plot location"
        },
        "returns": {
          "arrivalDate": "arrivalDate"
        }
      },
      "conquerWithoutExistingColony(uint256,bytes32,string)": {
        "params": {
          "colonyId": "the source colony id",
          "location": "serialized plot location"
        },
        "returns": {
          "arrivalDate": "arrivalDate"
        }
      },
      "findNextLocationOnSpiral(uint128,int128)": {
        "params": {
          "spacing": "between plots"
        },
        "returns": {
          "location": "of the next available plot"
        }
      },
      "getColonies(address)": {
        "params": {
          "playerAddress": "the player address"
        },
        "returns": {
          "coloniesOwned": "by the player"
        }
      },
      "getColony(uint256)": {
        "params": {
          "colonyId": "the colony id"
        },
        "returns": {
          "colony": "struct after redirections"
        }
      },
      "getPlot(int128,int128)": {
        "params": {
          "x": "coordinate on the x axis",
          "y": "coordinate on the y axis"
        },
        "returns": {
          "_0": "plot object at this location"
        }
      },
      "getPlots(int128,int128,int128,int128)": {
        "params": {
          "endX": "coordinate on the x axis of the bottom right point",
          "endY": "coordinate on the y axis of the top right point",
          "startX": "coordinate on the x axis of the top left point",
          "startY": "coordinate on the y axis of the top left point"
        },
        "returns": {
          "plots": "an array of plot object on this area",
          "xArray": "array of point x",
          "yArray": "array of point y"
        }
      },
      "register(string)": {
        "params": {
          "name": "of the colony"
        }
      }
    },
    "version": 1
  },
  "userdoc": {
    "kind": "user",
    "methods": {
      "conquerWithExistingColony(uint256,bytes32)": {
        "notice": "Allows a player to conquer a new plot next to an existing colony"
      },
      "conquerWithoutExistingColony(uint256,bytes32,string)": {
        "notice": "Allows a player to conquer a new plot that is not next to an existing owned colony"
      },
      "findNextLocationOnSpiral(uint128,int128)": {
        "notice": "Returns the next available plot location on the map and updates the lastRegistrationId"
      },
      "getColonies(address)": {
        "notice": "Returns the player owned colonies"
      },
      "getColony(uint256)": {
        "notice": "Returns the colony struct for the given colony id"
      },
      "getPlot(int128,int128)": {
        "notice": "Returns a specific Plot object"
      },
      "getPlots(int128,int128,int128,int128)": {
        "notice": "Returns an array of Plots found on a specific area"
      },
      "register(string)": {
        "notice": "Registers a player to the game (creates its first colony) costs 10 ether"
      },
      "withdraw()": {
        "notice": "Withdraws all the balance"
      }
    },
    "version": 1
  }
}