{
  "contractName": "Eykar",
  "abi": [
    {
      "inputs": [],
      "stateMutability": "payable",
      "type": "constructor",
      "payable": true
    },
    {
      "anonymous": false,
      "inputs": [
        {
          "indexed": true,
          "internalType": "bytes32",
          "name": "location",
          "type": "bytes32"
        },
        {
          "components": [
            {
              "internalType": "uint256",
              "name": "owner",
              "type": "uint256"
            },
            {
              "internalType": "uint256",
              "name": "dateOfOwnership",
              "type": "uint256"
            },
            {
              "internalType": "enum Eykar.StructureType",
              "name": "structure",
              "type": "uint8"
            }
          ],
          "indexed": false,
          "internalType": "struct Eykar.Plot",
          "name": "newPlot",
          "type": "tuple"
        }
      ],
      "name": "PlotChange",
      "type": "event"
    },
    {
      "inputs": [
        {
          "internalType": "uint256",
          "name": "",
          "type": "uint256"
        }
      ],
      "name": "colonies",
      "outputs": [
        {
          "internalType": "string",
          "name": "name",
          "type": "string"
        },
        {
          "internalType": "address",
          "name": "owner",
          "type": "address"
        },
        {
          "internalType": "bytes32",
          "name": "location",
          "type": "bytes32"
        },
        {
          "internalType": "uint64",
          "name": "plotsAmount",
          "type": "uint64"
        },
        {
          "internalType": "uint256",
          "name": "people",
          "type": "uint256"
        },
        {
          "internalType": "uint256",
          "name": "food",
          "type": "uint256"
        },
        {
          "internalType": "uint256",
          "name": "materials",
          "type": "uint256"
        },
        {
          "internalType": "uint256",
          "name": "redirection",
          "type": "uint256"
        }
      ],
      "stateMutability": "view",
      "type": "function",
      "constant": true
    },
    {
      "inputs": [
        {
          "internalType": "address",
          "name": "",
          "type": "address"
        },
        {
          "internalType": "uint256",
          "name": "",
          "type": "uint256"
        }
      ],
      "name": "coloniesPerPlayer",
      "outputs": [
        {
          "internalType": "uint256",
          "name": "",
          "type": "uint256"
        }
      ],
      "stateMutability": "view",
      "type": "function",
      "constant": true
    },
    {
      "inputs": [
        {
          "internalType": "bytes32",
          "name": "",
          "type": "bytes32"
        }
      ],
      "name": "map",
      "outputs": [
        {
          "internalType": "uint256",
          "name": "owner",
          "type": "uint256"
        },
        {
          "internalType": "uint256",
          "name": "dateOfOwnership",
          "type": "uint256"
        },
        {
          "internalType": "enum Eykar.StructureType",
          "name": "structure",
          "type": "uint8"
        }
      ],
      "stateMutability": "view",
      "type": "function",
      "constant": true
    },
    {
      "inputs": [],
      "name": "owner",
      "outputs": [
        {
          "internalType": "address payable",
          "name": "",
          "type": "address"
        }
      ],
      "stateMutability": "view",
      "type": "function",
      "constant": true
    },
    {
      "inputs": [
        {
          "components": [
            {
              "internalType": "string",
              "name": "name",
              "type": "string"
            },
            {
              "internalType": "address",
              "name": "owner",
              "type": "address"
            },
            {
              "internalType": "bytes32",
              "name": "location",
              "type": "bytes32"
            },
            {
              "internalType": "uint64",
              "name": "plotsAmount",
              "type": "uint64"
            },
            {
              "internalType": "uint256",
              "name": "people",
              "type": "uint256"
            },
            {
              "internalType": "uint256",
              "name": "food",
              "type": "uint256"
            },
            {
              "internalType": "uint256",
              "name": "materials",
              "type": "uint256"
            },
            {
              "internalType": "uint256",
              "name": "redirection",
              "type": "uint256"
            }
          ],
          "internalType": "struct Eykar.Colony",
          "name": "colony",
          "type": "tuple"
        }
      ],
      "name": "wrapColony",
      "outputs": [
        {
          "components": [
            {
              "internalType": "string",
              "name": "name",
              "type": "string"
            },
            {
              "internalType": "address",
              "name": "owner",
              "type": "address"
            },
            {
              "internalType": "int128",
              "name": "xLocation",
              "type": "int128"
            },
            {
              "internalType": "int128",
              "name": "yLocation",
              "type": "int128"
            },
            {
              "internalType": "uint64",
              "name": "plotsAmount",
              "type": "uint64"
            },
            {
              "internalType": "uint256",
              "name": "people",
              "type": "uint256"
            },
            {
              "internalType": "uint256",
              "name": "food",
              "type": "uint256"
            },
            {
              "internalType": "uint256",
              "name": "materials",
              "type": "uint256"
            },
            {
              "internalType": "uint256",
              "name": "id",
              "type": "uint256"
            }
          ],
          "internalType": "struct Eykar.WrappedColony",
          "name": "",
          "type": "tuple"
        }
      ],
      "stateMutability": "view",
      "type": "function",
      "constant": true
    },
    {
      "inputs": [
        {
          "internalType": "int128",
          "name": "x",
          "type": "int128"
        },
        {
          "internalType": "int128",
          "name": "y",
          "type": "int128"
        }
      ],
      "name": "getPlot",
      "outputs": [
        {
          "components": [
            {
              "internalType": "uint256",
              "name": "owner",
              "type": "uint256"
            },
            {
              "internalType": "uint256",
              "name": "dateOfOwnership",
              "type": "uint256"
            },
            {
              "internalType": "enum Eykar.StructureType",
              "name": "structure",
              "type": "uint8"
            }
          ],
          "internalType": "struct Eykar.Plot",
          "name": "",
          "type": "tuple"
        }
      ],
      "stateMutability": "view",
      "type": "function",
      "constant": true
    },
    {
      "inputs": [
        {
          "internalType": "int128",
          "name": "xChunk",
          "type": "int128"
        },
        {
          "internalType": "int128",
          "name": "yChunk",
          "type": "int128"
        }
      ],
      "name": "getPlots",
      "outputs": [
        {
          "components": [
            {
              "internalType": "uint256",
              "name": "owner",
              "type": "uint256"
            },
            {
              "internalType": "uint256",
              "name": "dateOfOwnership",
              "type": "uint256"
            },
            {
              "internalType": "enum Eykar.StructureType",
              "name": "structure",
              "type": "uint8"
            }
          ],
          "internalType": "struct Eykar.Plot[]",
          "name": "plots",
          "type": "tuple[]"
        },
        {
          "internalType": "int128[]",
          "name": "xArray",
          "type": "int128[]"
        },
        {
          "internalType": "int128[]",
          "name": "yArray",
          "type": "int128[]"
        }
      ],
      "stateMutability": "view",
      "type": "function",
      "constant": true
    },
    {
      "inputs": [
        {
          "internalType": "uint128",
          "name": "currentRegistrationId",
          "type": "uint128"
        },
        {
          "internalType": "int128",
          "name": "spacing",
          "type": "int128"
        }
      ],
      "name": "findNextLocationOnSpiral",
      "outputs": [
        {
          "internalType": "bytes32",
          "name": "location",
          "type": "bytes32"
        },
        {
          "internalType": "uint128",
          "name": "newRegistrationId",
          "type": "uint128"
        }
      ],
      "stateMutability": "view",
      "type": "function",
      "constant": true
    },
    {
      "inputs": [
        {
          "internalType": "string",
          "name": "name",
          "type": "string"
        }
      ],
      "name": "register",
      "outputs": [],
      "stateMutability": "payable",
      "type": "function",
      "payable": true
    },
    {
      "inputs": [],
      "name": "withdraw",
      "outputs": [],
      "stateMutability": "nonpayable",
      "type": "function"
    },
    {
      "inputs": [
        {
          "internalType": "address",
          "name": "playerAddress",
          "type": "address"
        }
      ],
      "name": "getColonies",
      "outputs": [
        {
          "components": [
            {
              "internalType": "string",
              "name": "name",
              "type": "string"
            },
            {
              "internalType": "address",
              "name": "owner",
              "type": "address"
            },
            {
              "internalType": "int128",
              "name": "xLocation",
              "type": "int128"
            },
            {
              "internalType": "int128",
              "name": "yLocation",
              "type": "int128"
            },
            {
              "internalType": "uint64",
              "name": "plotsAmount",
              "type": "uint64"
            },
            {
              "internalType": "uint256",
              "name": "people",
              "type": "uint256"
            },
            {
              "internalType": "uint256",
              "name": "food",
              "type": "uint256"
            },
            {
              "internalType": "uint256",
              "name": "materials",
              "type": "uint256"
            },
            {
              "internalType": "uint256",
              "name": "id",
              "type": "uint256"
            }
          ],
          "internalType": "struct Eykar.WrappedColony[]",
          "name": "coloniesOwned",
          "type": "tuple[]"
        }
      ],
      "stateMutability": "view",
      "type": "function",
      "constant": true
    },
    {
      "inputs": [
        {
          "internalType": "uint256",
          "name": "colonyId",
          "type": "uint256"
        }
      ],
      "name": "getColony",
      "outputs": [
        {
          "components": [
            {
              "internalType": "string",
              "name": "name",
              "type": "string"
            },
            {
              "internalType": "address",
              "name": "owner",
              "type": "address"
            },
            {
              "internalType": "bytes32",
              "name": "location",
              "type": "bytes32"
            },
            {
              "internalType": "uint64",
              "name": "plotsAmount",
              "type": "uint64"
            },
            {
              "internalType": "uint256",
              "name": "people",
              "type": "uint256"
            },
            {
              "internalType": "uint256",
              "name": "food",
              "type": "uint256"
            },
            {
              "internalType": "uint256",
              "name": "materials",
              "type": "uint256"
            },
            {
              "internalType": "uint256",
              "name": "redirection",
              "type": "uint256"
            }
          ],
          "internalType": "struct Eykar.Colony",
          "name": "colony",
          "type": "tuple"
        }
      ],
      "stateMutability": "view",
      "type": "function",
      "constant": true
    },
    {
      "inputs": [
        {
          "internalType": "uint256",
          "name": "colonyId",
          "type": "uint256"
        },
        {
          "internalType": "bytes32",
          "name": "location",
          "type": "bytes32"
        }
      ],
      "name": "conquerWithExistingColony",
      "outputs": [
        {
          "internalType": "uint256",
          "name": "arrivalDate",
          "type": "uint256"
        }
      ],
      "stateMutability": "nonpayable",
      "type": "function"
    },
    {
      "inputs": [
        {
          "internalType": "uint256",
          "name": "colonyId",
          "type": "uint256"
        },
        {
          "internalType": "bytes32",
          "name": "location",
          "type": "bytes32"
        },
        {
          "internalType": "string",
          "name": "newColonyName",
          "type": "string"
        }
      ],
      "name": "conquerWithoutExistingColony",
      "outputs": [
        {
          "internalType": "uint256",
          "name": "arrivalDate",
          "type": "uint256"
        }
      ],
      "stateMutability": "nonpayable",
      "type": "function"
    }
  ],
  "bytecode": "0x6080604052336000806101000a81548173ffffffffffffffffffffffffffffffffffffffff021916908373ffffffffffffffffffffffffffffffffffffffff1602179055506141b2806100536000396000f3fe6080604052600436106100dd5760003560e01c8063751036561161007f578063825fe9e511610059578063825fe9e51461032a5780638da5cb5b14610367578063c26138bd14610392578063f2c298be146103cf576100dd565b80637510365614610272578063751e3b30146102af5780637896c51e146102ed576100dd565b8063418d1f19116100bb578063418d1f191461017c578063454aeaf5146101b95780636ed1f79b146101f85780636f92650d14610235576100dd565b80630ae186a8146100e25780632cfb2053146101215780633ccfd60b14610165575b600080fd5b3480156100ee57600080fd5b5061010960048036038101906101049190612a41565b6103eb565b60405161011893929190612afe565b60405180910390f35b34801561012d57600080fd5b5061014860048036038101906101439190612b61565b610422565b60405161015c989796959493929190612c9a565b60405180910390f35b34801561017157600080fd5b5061017a610536565b005b34801561018857600080fd5b506101a3600480360381019061019e9190612d4b565b610606565b6040516101b09190612f92565b60405180910390f35b3480156101c557600080fd5b506101e060048036038101906101db9190612fe0565b610b63565b6040516101ef939291906131cf565b60405180910390f35b34801561020457600080fd5b5061021f600480360381019061021a919061321b565b610f84565b60405161022c919061325b565b60405180910390f35b34801561024157600080fd5b5061025c60048036038101906102579190612b61565b610fb5565b6040516102699190613335565b60405180910390f35b34801561027e57600080fd5b506102996004803603810190610294919061348c565b6112ea565b6040516102a6919061325b565b60405180910390f35b3480156102bb57600080fd5b506102d660048036038101906102d19190613543565b61136b565b6040516102e4929190613592565b60405180910390f35b3480156102f957600080fd5b50610314600480360381019061030f91906135bb565b611837565b604051610321919061325b565b60405180910390f35b34801561033657600080fd5b50610351600480360381019061034c9190612fe0565b6118af565b60405161035e919061363d565b60405180910390f35b34801561037357600080fd5b5061037c6119b4565b6040516103899190613679565b60405180910390f35b34801561039e57600080fd5b506103b960048036038101906103b491906137b0565b6119d8565b6040516103c691906138be565b60405180910390f35b6103e960048036038101906103e491906138e0565b611b0c565b005b60016020528060005260406000206000915090508060000154908060010154908060020160009054906101000a900460ff16905083565b6002818154811061043257600080fd5b906000526020600020906008020160009150905080600001805461045590613958565b80601f016020809104026020016040519081016040528092919081815260200182805461048190613958565b80156104ce5780601f106104a3576101008083540402835291602001916104ce565b820191906000526020600020905b8154815290600101906020018083116104b157829003601f168201915b5050505050908060010160009054906101000a900473ffffffffffffffffffffffffffffffffffffffff16908060020154908060030160009054906101000a900467ffffffffffffffff16908060040154908060050154908060060154908060070154905088565b60008060009054906101000a900473ffffffffffffffffffffffffffffffffffffffff1673ffffffffffffffffffffffffffffffffffffffff164760405161057d906139bb565b60006040518083038185875af1925050503d80600081146105ba576040519150601f19603f3d011682016040523d82523d6000602084013e6105bf565b606091505b5050905080610603576040517f08c379a00000000000000000000000000000000000000000000000000000000081526004016105fa90613a1c565b60405180910390fd5b50565b60606000600360008473ffffffffffffffffffffffffffffffffffffffff1673ffffffffffffffffffffffffffffffffffffffff16815260200190815260200160002080548060200260200160405190810160405280929190818152602001828054801561069357602002820191906000526020600020905b81548152602001906001019080831161067f575b505050505090506000805b82518110156108bb5760008382815181106106bc576106bb613a3c565b5b60200260200101519050600060026001836106d79190613a9a565b815481106106e8576106e7613a3c565b5b90600052602060002090600802016040518061010001604052908160008201805461071290613958565b80601f016020809104026020016040519081016040528092919081815260200182805461073e90613958565b801561078b5780601f106107605761010080835404028352916020019161078b565b820191906000526020600020905b81548152906001019060200180831161076e57829003601f168201915b505050505081526020016001820160009054906101000a900473ffffffffffffffffffffffffffffffffffffffff1673ffffffffffffffffffffffffffffffffffffffff1673ffffffffffffffffffffffffffffffffffffffff168152602001600282015481526020016003820160009054906101000a900467ffffffffffffffff1667ffffffffffffffff1667ffffffffffffffff16815260200160048201548152602001600582015481526020016006820154815260200160078201548152505090508060e001518214801561089257508673ffffffffffffffffffffffffffffffffffffffff16816020015173ffffffffffffffffffffffffffffffffffffffff16145b156108a65783806108a290613ace565b9450505b505080806108b390613ace565b91505061069e565b508067ffffffffffffffff8111156108d6576108d5613361565b5b60405190808252806020026020018201604052801561090f57816020015b6108fc612847565b8152602001906001900390816108f45790505b5092506000905060005b8251811015610b5b57600083828151811061093757610936613a3c565b5b60200260200101519050600060026001836109529190613a9a565b8154811061096357610962613a3c565b5b90600052602060002090600802016040518061010001604052908160008201805461098d90613958565b80601f01602080910402602001604051908101604052809291908181526020018280546109b990613958565b8015610a065780601f106109db57610100808354040283529160200191610a06565b820191906000526020600020905b8154815290600101906020018083116109e957829003601f168201915b505050505081526020016001820160009054906101000a900473ffffffffffffffffffffffffffffffffffffffff1673ffffffffffffffffffffffffffffffffffffffff1673ffffffffffffffffffffffffffffffffffffffff168152602001600282015481526020016003820160009054906101000a900467ffffffffffffffff1667ffffffffffffffff1667ffffffffffffffff16815260200160048201548152602001600582015481526020016006820154815260200160078201548152505090508060e0015182148015610b0d57508673ffffffffffffffffffffffffffffffffffffffff16816020015173ffffffffffffffffffffffffffffffffffffffff16145b15610b4657610b1b816119d8565b868580610b2790613ace565b965081518110610b3a57610b39613a3c565b5b60200260200101819052505b50508080610b5390613ace565b915050610919565b505050919050565b6060806060600080604067ffffffffffffffff811115610b8657610b85613361565b5b604051908082528060200260200182016040528015610bbf57816020015b610bac6128b9565b815260200190600190039081610ba45790505b5090506000604067ffffffffffffffff811115610bdf57610bde613361565b5b604051908082528060200260200182016040528015610c0d5781602001602082028036833780820191505090505b5090506000604067ffffffffffffffff811115610c2d57610c2c613361565b5b604051908082528060200260200182016040528015610c5b5781602001602082028036833780820191505090505b509050600060088a610c6d9190613b17565b90505b600860018b610c7f9190613c0e565b610c899190613b17565b600f0b81600f0b1215610db257600060088a610ca59190613b17565b90505b600860018b610cb79190613c0e565b610cc19190613b17565b600f0b81600f0b1215610d9e576000610cda83836118af565b905060006003811115610cf057610cef612a87565b5b81604001516003811115610d0757610d06612a87565b5b14610d8a5780868881518110610d2057610d1f613a3c565b5b602002602001018190525082858881518110610d3f57610d3e613a3c565b5b6020026020010190600f0b9081600f0b8152505081848881518110610d6757610d66613a3c565b5b6020026020010190600f0b9081600f0b815250508680610d8690613ace565b9750505b508080610d9690613c92565b915050610ca8565b508080610daa90613c92565b915050610c70565b508367ffffffffffffffff811115610dcd57610dcc613361565b5b604051908082528060200260200182016040528015610e0657816020015b610df36128b9565b815260200190600190039081610deb5790505b5096508367ffffffffffffffff811115610e2357610e22613361565b5b604051908082528060200260200182016040528015610e515781602001602082028036833780820191505090505b5095508367ffffffffffffffff811115610e6e57610e6d613361565b5b604051908082528060200260200182016040528015610e9c5781602001602082028036833780820191505090505b5094505b6000841115610f79578380610eb490613ccb565b945050828481518110610eca57610ec9613a3c565b5b6020026020010151878581518110610ee557610ee4613a3c565b5b6020026020010181905250818481518110610f0357610f02613a3c565b5b6020026020010151868581518110610f1e57610f1d613a3c565b5b6020026020010190600f0b9081600f0b81525050808481518110610f4557610f44613a3c565b5b6020026020010151858581518110610f6057610f5f613a3c565b5b6020026020010190600f0b9081600f0b81525050610ea0565b505050509250925092565b60036020528160005260406000208181548110610fa057600080fd5b90600052602060002001600091509150505481565b610fbd6128ec565b6002600183610fcc9190613a9a565b81548110610fdd57610fdc613a3c565b5b90600052602060002090600802016040518061010001604052908160008201805461100790613958565b80601f016020809104026020016040519081016040528092919081815260200182805461103390613958565b80156110805780601f1061105557610100808354040283529160200191611080565b820191906000526020600020905b81548152906001019060200180831161106357829003601f168201915b505050505081526020016001820160009054906101000a900473ffffffffffffffffffffffffffffffffffffffff1673ffffffffffffffffffffffffffffffffffffffff1673ffffffffffffffffffffffffffffffffffffffff168152602001600282015481526020016003820160009054906101000a900467ffffffffffffffff1667ffffffffffffffff1667ffffffffffffffff16815260200160048201548152602001600582015481526020016006820154815260200160078201548152505090505b818160e00151146112e5578060e00151915060026001836111679190613a9a565b8154811061117857611177613a3c565b5b9060005260206000209060080201604051806101000160405290816000820180546111a290613958565b80601f01602080910402602001604051908101604052809291908181526020018280546111ce90613958565b801561121b5780601f106111f05761010080835404028352916020019161121b565b820191906000526020600020905b8154815290600101906020018083116111fe57829003601f168201915b505050505081526020016001820160009054906101000a900473ffffffffffffffffffffffffffffffffffffffff1673ffffffffffffffffffffffffffffffffffffffff1673ffffffffffffffffffffffffffffffffffffffff168152602001600282015481526020016003820160009054906101000a900467ffffffffffffffff1667ffffffffffffffff1667ffffffffffffffff1681526020016004820154815260200160058201548152602001600682015481526020016007820154815250509050611146565b919050565b6000606060006112fa8686611ba1565b80955081935082945050505060008160ff161461131657600080fd5b6000611328853388600480600461228c565b90506113618660405180606001604052808481526020018781526020016001600381111561135957611358612a87565b5b815250612496565b5050509392505050565b6000805b600073__CoordinatesLib________________________63677342ce866040518263ffffffff1660e01b81526004016113a89190613d30565b60206040518083038186803b1580156113c057600080fd5b505af41580156113d4573d6000803e3d6000fd5b505050506040513d601f19601f820116820180604052508101906113f89190613d60565b90506000816fffffffffffffffffffffffffffffffff1611801561143a575060006002826114269190613dbc565b6fffffffffffffffffffffffffffffffff16145b1561144f5760018161144c9190613ded565b90505b6000818261145d9190613e21565b866114689190613ded565b90506001826114779190613e6b565b915060006002836114889190613eb1565b9050600083836114989190613eb1565b9050600084846114a89190613dbc565b905073__CoordinatesLib________________________630b8ee38c8260405180608001604052806000600f0b600f0b81526020017fffffffffffffffffffffffffffffffffffffffffffffffffffffffffffffffff600f0b600f0b81526020016000600f0b600f0b81526020016001600f0b600f0b815250856fffffffffffffffffffffffffffffffff166004811061154557611544613a3c565b5b60200201516115549190613b17565b8560405180608001604052806001600f0b600f0b81526020016001600f0b600f0b81526020017fffffffffffffffffffffffffffffffffffffffffffffffffffffffffffffffff600f0b600f0b81526020017fffffffffffffffffffffffffffffffffffffffffffffffffffffffffffffffff600f0b600f0b815250866fffffffffffffffffffffffffffffffff16600481106115f4576115f3613a3c565b5b60200201516116039190613b17565b61160d9190613c0e565b8a6116189190613b17565b8360405180608001604052807fffffffffffffffffffffffffffffffffffffffffffffffffffffffffffffffff600f0b600f0b81526020016000600f0b600f0b81526020016001600f0b600f0b81526020016000600f0b600f0b815250866fffffffffffffffffffffffffffffffff166004811061169957611698613a3c565b5b60200201516116a89190613b17565b8660405180608001604052806001600f0b600f0b81526020017fffffffffffffffffffffffffffffffffffffffffffffffffffffffffffffffff600f0b600f0b81526020017fffffffffffffffffffffffffffffffffffffffffffffffffffffffffffffffff600f0b600f0b81526020016001600f0b600f0b815250876fffffffffffffffffffffffffffffffff166004811061174857611747613a3c565b5b60200201516117579190613b17565b6117619190613c0e565b8b61176c9190613b17565b6040518363ffffffff1660e01b8152600401611789929190613ef1565b60206040518083038186803b1580156117a157600080fd5b505af41580156117b5573d6000803e3d6000fd5b505050506040513d601f19601f820116820180604052508101906117d99190613f2f565b96506001896117e89190613e6b565b95505050505050600060016000848152602001908152602001600020600001541415801561182c575042600160008481526020019081526020016000206001015411155b61136f579250929050565b6000606060006118478585611ba1565b80955081935082945050505060008160ff161161186357600080fd5b6118a784604051806060016040528061187c868661252d565b60e0015181526020018681526020016001600381111561189f5761189e612a87565b5b815250612496565b505092915050565b6118b76128b9565b6001600073__CoordinatesLib________________________630b8ee38c86866040518363ffffffff1660e01b81526004016118f4929190613ef1565b60206040518083038186803b15801561190c57600080fd5b505af4158015611920573d6000803e3d6000fd5b505050506040513d601f19601f820116820180604052508101906119449190613f2f565b815260200190815260200160002060405180606001604052908160008201548152602001600182015481526020016002820160009054906101000a900460ff16600381111561199657611995612a87565b5b60038111156119a8576119a7612a87565b5b81525050905092915050565b60008054906101000a900473ffffffffffffffffffffffffffffffffffffffff1681565b6119e0612847565b60008073__CoordinatesLib________________________63158c764985604001516040518263ffffffff1660e01b8152600401611a1e9190613f6b565b604080518083038186803b158015611a3557600080fd5b505af4158015611a49573d6000803e3d6000fd5b505050506040513d601f19601f82011682018060405250810190611a6d9190613f9b565b809250819350505060405180610120016040528085600001518152602001856020015173ffffffffffffffffffffffffffffffffffffffff16815260200183600f0b815260200182600f0b8152602001856060015167ffffffffffffffff168152602001856080015181526020018560a0015181526020018560c001518152602001611afc8660e00151610fb5565b60e0015181525092505050919050565b678ac7230489e80000341015611b2157600080fd5b600080611b4d600460009054906101000a90046fffffffffffffffffffffffffffffffff16604061136b565b9150915080600460006101000a8154816fffffffffffffffffffffffffffffffff02191690836fffffffffffffffffffffffffffffffff160217905550611b9b83338460046008601061228c565b50505050565b606060008060006002600187611bb79190613a9a565b81548110611bc857611bc7613a3c565b5b906000526020600020906008020160405180610100016040529081600082018054611bf290613958565b80601f0160208091040260200160405190810160405280929190818152602001828054611c1e90613958565b8015611c6b5780601f10611c4057610100808354040283529160200191611c6b565b820191906000526020600020905b815481529060010190602001808311611c4e57829003601f168201915b505050505081526020016001820160009054906101000a900473ffffffffffffffffffffffffffffffffffffffff1673ffffffffffffffffffffffffffffffffffffffff1673ffffffffffffffffffffffffffffffffffffffff168152602001600282015481526020016003820160009054906101000a900467ffffffffffffffff1667ffffffffffffffff1667ffffffffffffffff1681526020016004820154815260200160058201548152602001600682015481526020016007820154815250509050806020015173ffffffffffffffffffffffffffffffffffffffff163373ffffffffffffffffffffffffffffffffffffffff1614611d6c57600080fd5b60008073__CoordinatesLib________________________63158c764984604001516040518263ffffffff1660e01b8152600401611daa9190613f6b565b604080518083038186803b158015611dc157600080fd5b505af4158015611dd5573d6000803e3d6000fd5b505050506040513d601f19601f82011682018060405250810190611df99190613f9b565b9150915060008073__CoordinatesLib________________________63158c76498a6040518263ffffffff1660e01b8152600401611e379190613f6b565b604080518083038186803b158015611e4e57600080fd5b505af4158015611e62573d6000803e3d6000fd5b505050506040513d601f19601f82011682018060405250810190611e869190613f9b565b91509150600073__CoordinatesLib________________________63845de716868686866040518563ffffffff1660e01b8152600401611ec99493929190613fdb565b60206040518083038186803b158015611ee157600080fd5b505af4158015611ef5573d6000803e3d6000fd5b505050506040513d601f19601f82011682018060405250810190611f199190613d60565b905042600882611f299190614020565b611f33919061407a565b96506000600160008c8152602001908152602001600020600001541480611f6f575086600160008c815260200190815260200160002060010154115b611f7857600080fd5b600467ffffffffffffffff811115611f9357611f92613361565b5b604051908082528060200260200182016040528015611fcc57816020015b611fb96128ec565b815260200190600190039081611fb15790505b5098506000975060007fffffffffffffffffffffffffffffffffffffffffffffffffffffffffffffffff90505b60018160000b1361227e5760007fffffffffffffffffffffffffffffffffffffffffffffffffffffffffffffffff90505b60018160000b1315801561205357508060000b8260000b148015612051575060008260000b145b155b1561226a5760006001600073__CoordinatesLib________________________630b8ee38c8660000b8a6120879190613c0e565b8660000b8a6120969190613c0e565b6040518363ffffffff1660e01b81526004016120b3929190613ef1565b60206040518083038186803b1580156120cb57600080fd5b505af41580156120df573d6000803e3d6000fd5b505050506040513d601f19601f820116820180604052508101906121039190613f2f565b815260200190815260200160002060405180606001604052908160008201548152602001600182015481526020016002820160009054906101000a900460ff16600381111561215557612154612a87565b5b600381111561216757612166612a87565b5b81525050905060008061217d8360000151610fb5565b90503373ffffffffffffffffffffffffffffffffffffffff16816020015173ffffffffffffffffffffffffffffffffffffffff16146121be57505050612257565b60005b821580156121d457508d60ff168160ff16105b1561221e578160e001518f8260ff16815181106121f4576121f3613a3c565b5b602002602001015160e00151141561220b57600192505b8080612216906140dd565b9150506121c1565b508161225357808e8e80612231906140dd565b9f5060ff168151811061224757612246613a3c565b5b60200260200101819052505b5050505b808061226290614114565b91505061202a565b50808061227690614114565b915050611ff9565b505050505050509250925092565b600060016002805490506122a0919061407a565b905060026040518061010001604052808981526020018873ffffffffffffffffffffffffffffffffffffffff168152602001878152602001600167ffffffffffffffff1681526020018681526020018581526020018481526020018381525090806001815401808255809150506001900390600052602060002090600802016000909190919091506000820151816000019080519060200190612344929190612954565b5060208201518160010160006101000a81548173ffffffffffffffffffffffffffffffffffffffff021916908373ffffffffffffffffffffffffffffffffffffffff1602179055506040820151816002015560608201518160030160006101000a81548167ffffffffffffffff021916908367ffffffffffffffff1602179055506080820151816004015560a0820151816005015560c0820151816006015560e0820151816007015550506124268560405180606001604052808481526020014281526020016001600381111561241e5761241d612a87565b5b815250612496565b600360008773ffffffffffffffffffffffffffffffffffffffff1673ffffffffffffffffffffffffffffffffffffffff1681526020019081526020016000208190806001815401808255809150506001900390600052602060002001600090919091909150559695505050505050565b8060016000848152602001908152602001600020600082015181600001556020820151816001015560408201518160020160006101000a81548160ff021916908360038111156124e9576124e8612a87565b5b0217905550905050817fb0b3ea803f5e36351f6eb0eec7e662cac0949697e039219aea060eb29f64a0d082604051612521919061363d565b60405180910390a25050565b6125356128ec565b60008360008151811061254b5761254a613a3c565b5b602002602001015160600151905060008460008151811061256f5761256e613a3c565b5b602002602001015160800151905060008560008151811061259357612592613a3c565b5b602002602001015160a0015190506000866000815181106125b7576125b6613a3c565b5b602002602001015160c0015190506000849050876000815181106125de576125dd613a3c565b5b602002602001015195506000600190505b8760ff168160ff1610156126a6576000898260ff168151811061261557612614613a3c565b5b6020026020010151905080606001518761262f919061413e565b9650806080015186612641919061407a565b95508060a0015185612653919061407a565b94508060c0015184612665919061407a565b93508267ffffffffffffffff16816060015167ffffffffffffffff16111561269257806060015192508097505b50808061269e906140dd565b9150506125ef565b5084866060019067ffffffffffffffff16908167ffffffffffffffff168152505083866080018181525050828660a0018181525050818660c001818152505060005b8760ff168160ff16101561283b576000898260ff168151811061270e5761270d613a3c565b5b6020026020010151905060008160e0015190508860e001518260e001818152505081600260018361273f9190613a9a565b815481106127505761274f613a3c565b5b9060005260206000209060080201600082015181600001908051906020019061277a929190612954565b5060208201518160010160006101000a81548173ffffffffffffffffffffffffffffffffffffffff021916908373ffffffffffffffffffffffffffffffffffffffff1602179055506040820151816002015560608201518160030160006101000a81548167ffffffffffffffff021916908367ffffffffffffffff1602179055506080820151816004015560a0820151816005015560c0820151816006015560e0820151816007015590505050508080612833906140dd565b9150506126e8565b50505050505092915050565b60405180610120016040528060608152602001600073ffffffffffffffffffffffffffffffffffffffff1681526020016000600f0b81526020016000600f0b8152602001600067ffffffffffffffff168152602001600081526020016000815260200160008152602001600081525090565b60405180606001604052806000815260200160008152602001600060038111156128e6576128e5612a87565b5b81525090565b60405180610100016040528060608152602001600073ffffffffffffffffffffffffffffffffffffffff16815260200160008019168152602001600067ffffffffffffffff168152602001600081526020016000815260200160008152602001600081525090565b82805461296090613958565b90600052602060002090601f01602090048101928261298257600085556129c9565b82601f1061299b57805160ff19168380011785556129c9565b828001600101855582156129c9579182015b828111156129c85782518255916020019190600101906129ad565b5b5090506129d691906129da565b5090565b5b808211156129f35760008160009055506001016129db565b5090565b6000604051905090565b600080fd5b600080fd5b6000819050919050565b612a1e81612a0b565b8114612a2957600080fd5b50565b600081359050612a3b81612a15565b92915050565b600060208284031215612a5757612a56612a01565b5b6000612a6584828501612a2c565b91505092915050565b6000819050919050565b612a8181612a6e565b82525050565b7f4e487b7100000000000000000000000000000000000000000000000000000000600052602160045260246000fd5b60048110612ac757612ac6612a87565b5b50565b6000819050612ad882612ab6565b919050565b6000612ae882612aca565b9050919050565b612af881612add565b82525050565b6000606082019050612b136000830186612a78565b612b206020830185612a78565b612b2d6040830184612aef565b949350505050565b612b3e81612a6e565b8114612b4957600080fd5b50565b600081359050612b5b81612b35565b92915050565b600060208284031215612b7757612b76612a01565b5b6000612b8584828501612b4c565b91505092915050565b600081519050919050565b600082825260208201905092915050565b60005b83811015612bc8578082015181840152602081019050612bad565b83811115612bd7576000848401525b50505050565b6000601f19601f8301169050919050565b6000612bf982612b8e565b612c038185612b99565b9350612c13818560208601612baa565b612c1c81612bdd565b840191505092915050565b600073ffffffffffffffffffffffffffffffffffffffff82169050919050565b6000612c5282612c27565b9050919050565b612c6281612c47565b82525050565b612c7181612a0b565b82525050565b600067ffffffffffffffff82169050919050565b612c9481612c77565b82525050565b6000610100820190508181036000830152612cb5818b612bee565b9050612cc4602083018a612c59565b612cd16040830189612c68565b612cde6060830188612c8b565b612ceb6080830187612a78565b612cf860a0830186612a78565b612d0560c0830185612a78565b612d1260e0830184612a78565b9998505050505050505050565b612d2881612c47565b8114612d3357600080fd5b50565b600081359050612d4581612d1f565b92915050565b600060208284031215612d6157612d60612a01565b5b6000612d6f84828501612d36565b91505092915050565b600081519050919050565b600082825260208201905092915050565b6000819050602082019050919050565b600082825260208201905092915050565b6000612dc082612b8e565b612dca8185612da4565b9350612dda818560208601612baa565b612de381612bdd565b840191505092915050565b612df781612c47565b82525050565b600081600f0b9050919050565b612e1381612dfd565b82525050565b612e2281612c77565b82525050565b612e3181612a6e565b82525050565b6000610120830160008301518482036000860152612e558282612db5565b9150506020830151612e6a6020860182612dee565b506040830151612e7d6040860182612e0a565b506060830151612e906060860182612e0a565b506080830151612ea36080860182612e19565b5060a0830151612eb660a0860182612e28565b5060c0830151612ec960c0860182612e28565b5060e0830151612edc60e0860182612e28565b50610100830151612ef1610100860182612e28565b508091505092915050565b6000612f088383612e37565b905092915050565b6000602082019050919050565b6000612f2882612d78565b612f328185612d83565b935083602082028501612f4485612d94565b8060005b85811015612f805784840389528151612f618582612efc565b9450612f6c83612f10565b925060208a01995050600181019050612f48565b50829750879550505050505092915050565b60006020820190508181036000830152612fac8184612f1d565b905092915050565b612fbd81612dfd565b8114612fc857600080fd5b50565b600081359050612fda81612fb4565b92915050565b60008060408385031215612ff757612ff6612a01565b5b600061300585828601612fcb565b925050602061301685828601612fcb565b9150509250929050565b600081519050919050565b600082825260208201905092915050565b6000819050602082019050919050565b61305581612add565b82525050565b6060820160008201516130716000850182612e28565b5060208201516130846020850182612e28565b506040820151613097604085018261304c565b50505050565b60006130a9838361305b565b60608301905092915050565b6000602082019050919050565b60006130cd82613020565b6130d7818561302b565b93506130e28361303c565b8060005b838110156131135781516130fa888261309d565b9750613105836130b5565b9250506001810190506130e6565b5085935050505092915050565b600081519050919050565b600082825260208201905092915050565b6000819050602082019050919050565b60006131588383612e0a565b60208301905092915050565b6000602082019050919050565b600061317c82613120565b613186818561312b565b93506131918361313c565b8060005b838110156131c25781516131a9888261314c565b97506131b483613164565b925050600181019050613195565b5085935050505092915050565b600060608201905081810360008301526131e981866130c2565b905081810360208301526131fd8185613171565b905081810360408301526132118184613171565b9050949350505050565b6000806040838503121561323257613231612a01565b5b600061324085828601612d36565b925050602061325185828601612b4c565b9150509250929050565b60006020820190506132706000830184612a78565b92915050565b61327f81612a0b565b82525050565b60006101008301600083015184820360008601526132a38282612db5565b91505060208301516132b86020860182612dee565b5060408301516132cb6040860182613276565b5060608301516132de6060860182612e19565b5060808301516132f16080860182612e28565b5060a083015161330460a0860182612e28565b5060c083015161331760c0860182612e28565b5060e083015161332a60e0860182612e28565b508091505092915050565b6000602082019050818103600083015261334f8184613285565b905092915050565b600080fd5b600080fd5b7f4e487b7100000000000000000000000000000000000000000000000000000000600052604160045260246000fd5b61339982612bdd565b810181811067ffffffffffffffff821117156133b8576133b7613361565b5b80604052505050565b60006133cb6129f7565b90506133d78282613390565b919050565b600067ffffffffffffffff8211156133f7576133f6613361565b5b61340082612bdd565b9050602081019050919050565b82818337600083830152505050565b600061342f61342a846133dc565b6133c1565b90508281526020810184848401111561344b5761344a61335c565b5b61345684828561340d565b509392505050565b600082601f83011261347357613472613357565b5b813561348384826020860161341c565b91505092915050565b6000806000606084860312156134a5576134a4612a01565b5b60006134b386828701612b4c565b93505060206134c486828701612a2c565b925050604084013567ffffffffffffffff8111156134e5576134e4612a06565b5b6134f18682870161345e565b9150509250925092565b60006fffffffffffffffffffffffffffffffff82169050919050565b613520816134fb565b811461352b57600080fd5b50565b60008135905061353d81613517565b92915050565b6000806040838503121561355a57613559612a01565b5b60006135688582860161352e565b925050602061357985828601612fcb565b9150509250929050565b61358c816134fb565b82525050565b60006040820190506135a76000830185612c68565b6135b46020830184613583565b9392505050565b600080604083850312156135d2576135d1612a01565b5b60006135e085828601612b4c565b92505060206135f185828601612a2c565b9150509250929050565b6060820160008201516136116000850182612e28565b5060208201516136246020850182612e28565b506040820151613637604085018261304c565b50505050565b600060608201905061365260008301846135fb565b92915050565b600061366382612c27565b9050919050565b61367381613658565b82525050565b600060208201905061368e600083018461366a565b92915050565b600080fd5b600080fd5b6136a781612c77565b81146136b257600080fd5b50565b6000813590506136c48161369e565b92915050565b600061010082840312156136e1576136e0613694565b5b6136ec6101006133c1565b9050600082013567ffffffffffffffff81111561370c5761370b613699565b5b6137188482850161345e565b600083015250602061372c84828501612d36565b602083015250604061374084828501612a2c565b6040830152506060613754848285016136b5565b606083015250608061376884828501612b4c565b60808301525060a061377c84828501612b4c565b60a08301525060c061379084828501612b4c565b60c08301525060e06137a484828501612b4c565b60e08301525092915050565b6000602082840312156137c6576137c5612a01565b5b600082013567ffffffffffffffff8111156137e4576137e3612a06565b5b6137f0848285016136ca565b91505092915050565b60006101208301600083015184820360008601526138178282612db5565b915050602083015161382c6020860182612dee565b50604083015161383f6040860182612e0a565b5060608301516138526060860182612e0a565b5060808301516138656080860182612e19565b5060a083015161387860a0860182612e28565b5060c083015161388b60c0860182612e28565b5060e083015161389e60e0860182612e28565b506101008301516138b3610100860182612e28565b508091505092915050565b600060208201905081810360008301526138d881846137f9565b905092915050565b6000602082840312156138f6576138f5612a01565b5b600082013567ffffffffffffffff81111561391457613913612a06565b5b6139208482850161345e565b91505092915050565b7f4e487b7100000000000000000000000000000000000000000000000000000000600052602260045260246000fd5b6000600282049050600182168061397057607f821691505b6020821081141561398457613983613929565b5b50919050565b600081905092915050565b50565b60006139a560008361398a565b91506139b082613995565b600082019050919050565b60006139c682613998565b9150819050919050565b7f4661696c656420746f2073656e64204574686572000000000000000000000000600082015250565b6000613a06601483612b99565b9150613a11826139d0565b602082019050919050565b60006020820190508181036000830152613a35816139f9565b9050919050565b7f4e487b7100000000000000000000000000000000000000000000000000000000600052603260045260246000fd5b7f4e487b7100000000000000000000000000000000000000000000000000000000600052601160045260246000fd5b6000613aa582612a6e565b9150613ab083612a6e565b925082821015613ac357613ac2613a6b565b5b828203905092915050565b6000613ad982612a6e565b91507fffffffffffffffffffffffffffffffffffffffffffffffffffffffffffffffff821415613b0c57613b0b613a6b565b5b600182019050919050565b6000613b2282612dfd565b9150613b2d83612dfd565b9250826f7fffffffffffffffffffffffffffffff0482116000841360008413161615613b5c57613b5b613a6b565b5b817fffffffffffffffffffffffffffffffff800000000000000000000000000000000583126000841260008413161615613b9957613b98613a6b565b5b827fffffffffffffffffffffffffffffffff800000000000000000000000000000000582126000841360008412161615613bd657613bd5613a6b565b5b826f7fffffffffffffffffffffffffffffff0582126000841260008412161615613c0357613c02613a6b565b5b828202905092915050565b6000613c1982612dfd565b9150613c2483612dfd565b9250816f7fffffffffffffffffffffffffffffff03831360008312151615613c4f57613c4e613a6b565b5b817fffffffffffffffffffffffffffffffff80000000000000000000000000000000038312600083121615613c8757613c86613a6b565b5b828201905092915050565b6000613c9d82612dfd565b91506f7fffffffffffffffffffffffffffffff821415613cc057613cbf613a6b565b5b600182019050919050565b6000613cd682612a6e565b91506000821415613cea57613ce9613a6b565b5b600182039050919050565b6000819050919050565b6000613d1a613d15613d10846134fb565b613cf5565b612a6e565b9050919050565b613d2a81613cff565b82525050565b6000602082019050613d456000830184613d21565b92915050565b600081519050613d5a81612b35565b92915050565b600060208284031215613d7657613d75612a01565b5b6000613d8484828501613d4b565b91505092915050565b7f4e487b7100000000000000000000000000000000000000000000000000000000600052601260045260246000fd5b6000613dc7826134fb565b9150613dd2836134fb565b925082613de257613de1613d8d565b5b828206905092915050565b6000613df8826134fb565b9150613e03836134fb565b925082821015613e1657613e15613a6b565b5b828203905092915050565b6000613e2c826134fb565b9150613e37836134fb565b9250816fffffffffffffffffffffffffffffffff0483118215151615613e6057613e5f613a6b565b5b828202905092915050565b6000613e76826134fb565b9150613e81836134fb565b9250826fffffffffffffffffffffffffffffffff03821115613ea657613ea5613a6b565b5b828201905092915050565b6000613ebc826134fb565b9150613ec7836134fb565b925082613ed757613ed6613d8d565b5b828204905092915050565b613eeb81612dfd565b82525050565b6000604082019050613f066000830185613ee2565b613f136020830184613ee2565b9392505050565b600081519050613f2981612a15565b92915050565b600060208284031215613f4557613f44612a01565b5b6000613f5384828501613f1a565b91505092915050565b613f6581612a0b565b82525050565b6000602082019050613f806000830184613f5c565b92915050565b600081519050613f9581612fb4565b92915050565b60008060408385031215613fb257613fb1612a01565b5b6000613fc085828601613f86565b9250506020613fd185828601613f86565b9150509250929050565b6000608082019050613ff06000830187613ee2565b613ffd6020830186613ee2565b61400a6040830185613ee2565b6140176060830184613ee2565b95945050505050565b600061402b82612a6e565b915061403683612a6e565b9250817fffffffffffffffffffffffffffffffffffffffffffffffffffffffffffffffff048311821515161561406f5761406e613a6b565b5b828202905092915050565b600061408582612a6e565b915061409083612a6e565b9250827fffffffffffffffffffffffffffffffffffffffffffffffffffffffffffffffff038211156140c5576140c4613a6b565b5b828201905092915050565b600060ff82169050919050565b60006140e8826140d0565b915060ff8214156140fc576140fb613a6b565b5b600182019050919050565b60008160000b9050919050565b600061411f82614107565b9150607f82141561413357614132613a6b565b5b600182019050919050565b600061414982612c77565b915061415483612c77565b92508267ffffffffffffffff0382111561417157614170613a6b565b5b82820190509291505056fea26469706673582212208ca0974808b21e395824bfa5b00a1aea93cb78a6de0524f3bda632a55f3463c964736f6c63430008090033",
  "immutableReferences": {},
  "source": "// SPDX-License-Identifier: MIT\npragma solidity >=0.8.9 <0.9.0;\n\nimport \"./CoordinatesLib.sol\";\n\ncontract Eykar {\n    address payable public owner;\n\n    constructor() payable {\n        owner = payable(msg.sender);\n    }\n\n    enum StructureType {\n        None,\n        SettlerCamp,\n        Hamlet,\n        Town\n    }\n\n    struct Plot {\n        uint256 owner; // owner is a colony id\n        uint256 dateOfOwnership; // when owner will really own it\n        StructureType structure;\n    }\n\n    struct Colony {\n        string name;\n        address owner; // owner is a player\n        bytes32 location; // place of power\n        uint64 plotsAmount;\n        uint256 people;\n        uint256 food;\n        uint256 materials;\n        uint256 redirection; // id should be your own if there is no redirection\n    }\n\n    struct WrappedColony {\n        string name;\n        address owner; // owner is a player\n        int128 xLocation; // place of power\n        int128 yLocation; // place of power\n        uint64 plotsAmount;\n        uint256 people;\n        uint256 food;\n        uint256 materials;\n        uint256 id;\n    }\n\n    // all redeemed plots on the map\n    mapping(bytes32 => Plot) public map;\n\n    // registered colonies\n    Colony[] public colonies;\n\n    // colonies id per player address\n    mapping(address => uint256[]) public coloniesPerPlayer;\n\n    // called when a plot is updated\n    event PlotChange(bytes32 indexed location, Plot newPlot);\n\n    /**\n     * Returns a colony with readable location and id\n     * @param colony to wrap\n     * @return wrapped colony\n     */\n    function wrapColony(Colony memory colony)\n        public\n        view\n        returns (WrappedColony memory)\n    {\n        int128 x;\n        int128 y;\n        (x, y) = CoordinatesLib.convertToCoordinates(colony.location);\n        return\n            WrappedColony({\n                name: colony.name,\n                owner: colony.owner,\n                xLocation: x,\n                yLocation: y,\n                plotsAmount: colony.plotsAmount,\n                people: colony.people,\n                food: colony.food,\n                materials: colony.materials,\n                id: getColony(colony.redirection).redirection\n            });\n    }\n\n    /**\n     * Places a Plot on the map\n     * @param location of the plot\n     * @param plot to place\n     */\n    function setPlot(bytes32 location, Plot memory plot) private {\n        map[location] = plot;\n        emit PlotChange(location, plot);\n    }\n\n    /**\n     * Returns a specific Plot object\n     * @param x coordinate on the x axis\n     * @param y coordinate on the y axis\n     * @return plot object at this location\n     */\n    function getPlot(int128 x, int128 y) public view returns (Plot memory) {\n        return map[CoordinatesLib.convertFromCoordinates(x, y)];\n    }\n\n    /**\n     * Returns an array of Plots found on a specific chunk\n     * @param xChunk coordinate on the x axis of the chunk\n     * @param yChunk coordinate on the y axis of the chunk\n     * @return plots an array of plot object on this area\n     * @return xArray array of point x\n     * @return yArray array of point\n     */\n    function getPlots(int128 xChunk, int128 yChunk)\n        public\n        view\n        returns (\n            Plot[] memory plots,\n            int128[] memory xArray,\n            int128[] memory yArray\n        )\n    {\n        uint256 i = 0;\n        Plot[] memory tempOutput = new Plot[](64);\n        int128[] memory tempxArray = new int128[](64);\n        int128[] memory tempyArray = new int128[](64);\n\n        for (int128 x = xChunk * 8; x < (xChunk + 1) * 8; x++)\n            for (int128 y = yChunk * 8; y < (yChunk + 1) * 8; y++) {\n                Plot memory plot = getPlot(x, y);\n                if (plot.structure != StructureType.None) {\n                    tempOutput[i] = plot;\n                    tempxArray[i] = x;\n                    tempyArray[i] = y;\n                    i++;\n                }\n            }\n        plots = new Plot[](i);\n        xArray = new int128[](i);\n        yArray = new int128[](i);\n        while (i > 0) {\n            i--;\n            plots[i] = tempOutput[i];\n            xArray[i] = tempxArray[i];\n            yArray[i] = tempyArray[i];\n        }\n    }\n\n    /**\n     * Returns the next available plot location on the map and updates the lastRegistrationId\n     * @param spacing between plots\n     * @return location of the next available plot\n     */\n    function findNextLocationOnSpiral(\n        uint128 currentRegistrationId,\n        int128 spacing\n    ) public view returns (bytes32 location, uint128 newRegistrationId) {\n        do {\n            uint128 sqrt = uint128(CoordinatesLib.sqrt(currentRegistrationId));\n            if (sqrt > 0 && sqrt % 2 == 0) sqrt -= 1;\n\n            uint128 position_id = currentRegistrationId - sqrt * sqrt;\n            sqrt += 1;\n            uint128 circle_id = sqrt / 2;\n            uint128 side = position_id / sqrt;\n            uint128 position = position_id % sqrt;\n\n            location = CoordinatesLib.convertFromCoordinates(\n                spacing *\n                    ([int128(1), int128(1), int128(-1), int128(-1)][side] *\n                        int128(circle_id) +\n                        [int128(0), int128(-1), int128(0), int128(1)][side] *\n                        int128(position)),\n                spacing *\n                    ([int128(1), int128(-1), int128(-1), int128(1)][side] *\n                        int128(circle_id) +\n                        [int128(-1), int128(0), int128(1), int128(0)][side] *\n                        int128(position))\n            );\n            newRegistrationId = currentRegistrationId + 1;\n        } while (\n            map[location].owner != 0 &&\n                map[location].dateOfOwnership <= block.timestamp\n        );\n    }\n\n    // next input to the spiral function called on register\n    uint128 registrationId;\n\n    /**\n     * Registers a player to the game (creates its first colony)\n     * costs 10 ether\n     * @param name of the colony\n     */\n    function register(string memory name) public payable {\n        require(msg.value >= 10 ether);\n        (\n            bytes32 location,\n            uint128 newRegistrationId\n        ) = findNextLocationOnSpiral(registrationId, 64);\n\n        registrationId = newRegistrationId;\n        createColony(name, msg.sender, location, 4, 8, 16);\n    }\n\n    /**\n     * Withdraws all the balance\n     */\n    function withdraw() public {\n        (bool success, ) = owner.call{value: address(this).balance}(\"\");\n        require(success, \"Failed to send Ether\");\n    }\n\n    /**\n     * Returns the player owned colonies\n     * @param playerAddress the player address\n     * @return coloniesOwned by the player\n     */\n    function getColonies(address playerAddress)\n        public\n        view\n        returns (WrappedColony[] memory coloniesOwned)\n    {\n        uint256[] memory result = coloniesPerPlayer[playerAddress];\n        uint256 count = 0;\n        for (uint256 i = 0; i < result.length; i++) {\n            uint256 colonyId = result[i];\n            Colony memory colony = colonies[colonyId - 1];\n            if (colonyId == colony.redirection && colony.owner == playerAddress)\n                count++;\n        }\n        coloniesOwned = new WrappedColony[](count);\n        count = 0;\n        for (uint256 i = 0; i < result.length; i++) {\n            uint256 colonyId = result[i];\n            Colony memory colony = colonies[colonyId - 1];\n            if (colonyId == colony.redirection && colony.owner == playerAddress)\n                coloniesOwned[count++] = wrapColony(colony);\n        }\n    }\n\n    /**\n     * Returns the colony struct for the given colony id\n     * @param colonyId the colony id\n     * @return colony struct after redirections\n     */\n    function getColony(uint256 colonyId)\n        public\n        view\n        returns (Colony memory colony)\n    {\n        colony = colonies[colonyId - 1];\n        while (colony.redirection != colonyId) {\n            colonyId = colony.redirection;\n            colony = colonies[colonyId - 1];\n        }\n    }\n\n    /**\n     * Merges an array of colony into one single colony\n     * @param toMerge colonies to merge\n     * @param amount size of toMerge\n     * @return finalColony the merged colony\n     */\n    function mergeColonies(Colony[] memory toMerge, uint8 amount)\n        private\n        returns (Colony memory finalColony)\n    {\n        uint64 plotsAmount = toMerge[0].plotsAmount;\n        uint256 people = toMerge[0].people;\n        uint256 food = toMerge[0].food;\n        uint256 materials = toMerge[0].materials;\n        uint64 maxPlotsAmount = plotsAmount;\n        finalColony = toMerge[0];\n        for (uint8 i = 1; i < amount; i++) {\n            Colony memory toCompare = toMerge[i];\n            plotsAmount += toCompare.plotsAmount;\n            people += toCompare.people;\n            food += toCompare.food;\n            materials += toCompare.materials;\n            if (toCompare.plotsAmount > maxPlotsAmount) {\n                maxPlotsAmount = toCompare.plotsAmount;\n                finalColony = toCompare;\n            }\n        }\n\n        finalColony.plotsAmount = plotsAmount;\n        finalColony.people = people;\n        finalColony.food = food;\n        finalColony.materials = materials;\n\n        for (uint8 i = 0; i < amount; i++) {\n            Colony memory current = toMerge[i];\n            uint256 arrayPosition = current.redirection;\n            current.redirection = finalColony.redirection;\n            colonies[arrayPosition - 1] = current;\n        }\n    }\n\n    /**\n     * Create and register a new Colony\n     * @param name of the colony\n     * @param colonyOwner (player) of the colony\n     * @param location of the place of power\n     * @param people amount of people\n     * @param food amount of food\n     * @param materials amount of materials\n     * @return id of the created colony\n     */\n    function createColony(\n        string memory name,\n        address colonyOwner,\n        bytes32 location,\n        uint256 people,\n        uint256 food,\n        uint256 materials\n    ) private returns (uint256 id) {\n        id = colonies.length + 1;\n        colonies.push(\n            Colony({\n                name: name,\n                owner: colonyOwner,\n                location: location,\n                plotsAmount: 1,\n                people: people,\n                food: food,\n                materials: materials,\n                redirection: id\n            })\n        );\n        setPlot(\n            location,\n            Plot({\n                owner: id,\n                dateOfOwnership: block.timestamp,\n                structure: StructureType.SettlerCamp\n            })\n        );\n        coloniesPerPlayer[colonyOwner].push(id);\n    }\n\n    /**\n     * Common code between conquer with and without existing colony\n     * @param colonyId the source colony id\n     * @param location serialized plot location\n     * @return detectedColonies array of detected colonies\n     * @return detectedColoniesSize amount of detected colonies\n     * @return arrivalDate date of arrival\n     */\n    function conquer(uint256 colonyId, bytes32 location)\n        private\n        view\n        returns (\n            Colony[] memory detectedColonies,\n            uint8 detectedColoniesSize,\n            uint256 arrivalDate\n        )\n    {\n        Colony memory colony = colonies[colonyId - 1];\n        require(msg.sender == colony.owner);\n        (int128 x1, int128 y1) = CoordinatesLib.convertToCoordinates(\n            colony.location\n        );\n        (int128 x2, int128 y2) = CoordinatesLib.convertToCoordinates(location);\n        uint256 distanceLength = CoordinatesLib.distance(x1, y1, x2, y2);\n        arrivalDate = distanceLength * 8 + block.timestamp;\n\n        require(\n            map[location].owner == 0 ||\n                map[location].dateOfOwnership > arrivalDate\n        );\n\n        // we can have only 4 surrounding different colonies\n        detectedColonies = new Colony[](4);\n        detectedColoniesSize = 0;\n\n        for (int8 i = -1; i <= 1; i++)\n            for (int8 j = -1; j <= 1 && !(i == j && i == 0); j++) {\n                Plot memory plot = map[\n                    CoordinatesLib.convertFromCoordinates(x2 + i, y2 + j)\n                ];\n\n                // Insert colonies to detectedColonies so it doesn't contain duplicate value\n                bool found = false;\n                Colony memory foundColony = getColony(plot.owner);\n                if (foundColony.owner != msg.sender) continue;\n                for (uint8 k = 0; !found && k < detectedColoniesSize; k++)\n                    if (\n                        detectedColonies[k].redirection ==\n                        foundColony.redirection\n                    ) found = true;\n                if (!found)\n                    detectedColonies[detectedColoniesSize++] = foundColony;\n            }\n    }\n\n    /**\n     * Allows a player to conquer a new plot next to an existing colony\n     * @param colonyId the source colony id\n     * @param location serialized plot location\n     * @return arrivalDate\n     */\n    function conquerWithExistingColony(uint256 colonyId, bytes32 location)\n        public\n        returns (uint256 arrivalDate)\n    {\n        Colony[] memory detectedColonies;\n        uint8 detectedColoniesSize;\n        (detectedColonies, detectedColoniesSize, arrivalDate) = conquer(\n            colonyId,\n            location\n        );\n        require(detectedColoniesSize > 0);\n        setPlot(\n            location,\n            Plot(\n                mergeColonies(detectedColonies, detectedColoniesSize)\n                    .redirection,\n                arrivalDate,\n                StructureType.SettlerCamp\n            )\n        );\n    }\n\n    /**\n     * Allows a player to conquer a new plot that is not next to an existing owned colony\n     * @param colonyId the source colony id\n     * @param location serialized plot location\n     * @return arrivalDate\n     */\n    function conquerWithoutExistingColony(\n        uint256 colonyId,\n        bytes32 location,\n        string memory newColonyName\n    ) public returns (uint256 arrivalDate) {\n        Colony[] memory detectedColonies;\n        uint8 detectedColoniesSize;\n        (detectedColonies, detectedColoniesSize, arrivalDate) = conquer(\n            colonyId,\n            location\n        );\n        require(detectedColoniesSize == 0);\n        uint256 newColonyId = createColony({\n            name: newColonyName,\n            colonyOwner: msg.sender,\n            location: location,\n            people: 4,\n            food: 4,\n            materials: 4\n        });\n        setPlot(\n            location,\n            Plot(newColonyId, arrivalDate, StructureType.SettlerCamp)\n        );\n    }\n}\n",
  "sourcePath": "/home/thomas/workspace/eykar/contract/contracts/Eykar.sol",
  "compiler": {
    "name": "solc",
    "version": "0.8.9+commit.e5eed63a.Emscripten.clang"
  },
  "schemaVersion": "3.4.3",
  "updatedAt": "2022-01-10T09:49:07.892Z",
  "networkType": "ethereum",
  "devdoc": {
    "kind": "dev",
    "methods": {
      "conquerWithExistingColony(uint256,bytes32)": {
        "params": {
          "colonyId": "the source colony id",
          "location": "serialized plot location"
        },
        "returns": {
          "arrivalDate": "arrivalDate"
        }
      },
      "conquerWithoutExistingColony(uint256,bytes32,string)": {
        "params": {
          "colonyId": "the source colony id",
          "location": "serialized plot location"
        },
        "returns": {
          "arrivalDate": "arrivalDate"
        }
      },
      "findNextLocationOnSpiral(uint128,int128)": {
        "params": {
          "spacing": "between plots"
        },
        "returns": {
          "location": "of the next available plot"
        }
      },
      "getColonies(address)": {
        "params": {
          "playerAddress": "the player address"
        },
        "returns": {
          "coloniesOwned": "by the player"
        }
      },
      "getColony(uint256)": {
        "params": {
          "colonyId": "the colony id"
        },
        "returns": {
          "colony": "struct after redirections"
        }
      },
      "getPlot(int128,int128)": {
        "params": {
          "x": "coordinate on the x axis",
          "y": "coordinate on the y axis"
        },
        "returns": {
          "_0": "plot object at this location"
        }
      },
      "getPlots(int128,int128)": {
        "params": {
          "xChunk": "coordinate on the x axis of the chunk",
          "yChunk": "coordinate on the y axis of the chunk"
        },
        "returns": {
          "plots": "an array of plot object on this area",
          "xArray": "array of point x",
          "yArray": "array of point"
        }
      },
      "register(string)": {
        "params": {
          "name": "of the colony"
        }
      },
      "wrapColony((string,address,bytes32,uint64,uint256,uint256,uint256,uint256))": {
        "params": {
          "colony": "to wrap"
        },
        "returns": {
          "_0": "wrapped colony"
        }
      }
    },
    "version": 1
  },
  "userdoc": {
    "kind": "user",
    "methods": {
      "conquerWithExistingColony(uint256,bytes32)": {
        "notice": "Allows a player to conquer a new plot next to an existing colony"
      },
      "conquerWithoutExistingColony(uint256,bytes32,string)": {
        "notice": "Allows a player to conquer a new plot that is not next to an existing owned colony"
      },
      "findNextLocationOnSpiral(uint128,int128)": {
        "notice": "Returns the next available plot location on the map and updates the lastRegistrationId"
      },
      "getColonies(address)": {
        "notice": "Returns the player owned colonies"
      },
      "getColony(uint256)": {
        "notice": "Returns the colony struct for the given colony id"
      },
      "getPlot(int128,int128)": {
        "notice": "Returns a specific Plot object"
      },
      "getPlots(int128,int128)": {
        "notice": "Returns an array of Plots found on a specific chunk"
      },
      "register(string)": {
        "notice": "Registers a player to the game (creates its first colony) costs 10 ether"
      },
      "withdraw()": {
        "notice": "Withdraws all the balance"
      },
      "wrapColony((string,address,bytes32,uint64,uint256,uint256,uint256,uint256))": {
        "notice": "Returns a colony with readable location and id"
      }
    },
    "version": 1
  }
}